{
  "_format": "hh-sol-artifact-1",
  "contractName": "PrescriptionAuditContract",
  "sourceName": "contracts/PrescriptionAuditContract.sol",
  "abi": [
    {
      "inputs": [],
      "stateMutability": "nonpayable",
      "type": "constructor"
    },
    {
      "anonymous": false,
      "inputs": [
        {
          "indexed": true,
          "internalType": "uint256",
          "name": "blockchainId",
          "type": "uint256"
        },
        {
          "indexed": true,
          "internalType": "uint256",
          "name": "auditId",
          "type": "uint256"
        },
        {
          "indexed": false,
          "internalType": "uint256",
          "name": "prescriptionId",
          "type": "uint256"
        },
        {
          "indexed": false,
          "internalType": "string",
          "name": "patientId",
          "type": "string"
        },
        {
          "indexed": false,
          "internalType": "bool",
          "name": "flagged",
          "type": "bool"
        },
        {
          "indexed": false,
          "internalType": "uint8",
          "name": "oudRiskScore",
          "type": "uint8"
        },
        {
          "indexed": false,
          "internalType": "uint256",
          "name": "timestamp",
          "type": "uint256"
        }
      ],
      "name": "AuditRecorded",
      "type": "event"
    },
    {
      "anonymous": false,
      "inputs": [
        {
          "indexed": true,
          "internalType": "uint256",
          "name": "blockchainId",
          "type": "uint256"
        },
        {
          "indexed": true,
          "internalType": "uint256",
          "name": "auditId",
          "type": "uint256"
        },
        {
          "indexed": false,
          "internalType": "string",
          "name": "action",
          "type": "string"
        },
        {
          "indexed": false,
          "internalType": "string",
          "name": "reviewedBy",
          "type": "string"
        },
        {
          "indexed": false,
          "internalType": "uint256",
          "name": "timestamp",
          "type": "uint256"
        }
      ],
      "name": "PharmacistActionRecorded",
      "type": "event"
    },
    {
      "inputs": [
        {
          "internalType": "uint256",
          "name": "",
          "type": "uint256"
        }
      ],
      "name": "auditIdToBlockchainId",
      "outputs": [
        {
          "internalType": "uint256",
          "name": "",
          "type": "uint256"
        }
      ],
      "stateMutability": "view",
      "type": "function"
    },
    {
      "inputs": [
        {
          "internalType": "uint256",
          "name": "",
          "type": "uint256"
        }
      ],
      "name": "auditRecords",
      "outputs": [
        {
          "internalType": "uint256",
          "name": "blockchainId",
          "type": "uint256"
        },
        {
          "internalType": "uint256",
          "name": "auditId",
          "type": "uint256"
        },
        {
          "internalType": "uint256",
          "name": "prescriptionId",
          "type": "uint256"
        },
        {
          "internalType": "string",
          "name": "patientId",
          "type": "string"
        },
        {
          "internalType": "string",
          "name": "drugName",
          "type": "string"
        },
        {
          "internalType": "uint8",
          "name": "eligibilityScore",
          "type": "uint8"
        },
        {
          "internalType": "uint8",
          "name": "eligibilityPrediction",
          "type": "uint8"
        },
        {
          "internalType": "uint8",
          "name": "oudRiskScore",
          "type": "uint8"
        },
        {
          "internalType": "uint8",
          "name": "oudRiskPrediction",
          "type": "uint8"
        },
        {
          "internalType": "bool",
          "name": "flagged",
          "type": "bool"
        },
        {
          "internalType": "string",
          "name": "flagReason",
          "type": "string"
        },
        {
          "internalType": "string",
          "name": "recommendation",
          "type": "string"
        },
        {
          "internalType": "uint256",
          "name": "auditedAt",
          "type": "uint256"
        },
        {
          "internalType": "string",
          "name": "reviewedBy",
          "type": "string"
        },
        {
          "internalType": "string",
          "name": "reviewedByName",
          "type": "string"
        },
        {
          "internalType": "string",
          "name": "reviewedByEmail",
          "type": "string"
        },
        {
          "internalType": "string",
          "name": "action",
          "type": "string"
        },
        {
          "internalType": "string",
          "name": "actionReason",
          "type": "string"
        },
        {
          "internalType": "uint256",
          "name": "reviewedAt",
          "type": "uint256"
        }
      ],
      "stateMutability": "view",
      "type": "function"
    },
    {
      "inputs": [
        {
          "internalType": "uint256",
          "name": "blockchainId",
          "type": "uint256"
        }
      ],
      "name": "getAuditRecord",
      "outputs": [
        {
          "components": [
            {
              "internalType": "uint256",
              "name": "blockchainId",
              "type": "uint256"
            },
            {
              "internalType": "uint256",
              "name": "auditId",
              "type": "uint256"
            },
            {
              "internalType": "uint256",
              "name": "prescriptionId",
              "type": "uint256"
            },
            {
              "internalType": "string",
              "name": "patientId",
              "type": "string"
            },
            {
              "internalType": "string",
              "name": "drugName",
              "type": "string"
            },
            {
              "internalType": "uint8",
              "name": "eligibilityScore",
              "type": "uint8"
            },
            {
              "internalType": "uint8",
              "name": "eligibilityPrediction",
              "type": "uint8"
            },
            {
              "internalType": "uint8",
              "name": "oudRiskScore",
              "type": "uint8"
            },
            {
              "internalType": "uint8",
              "name": "oudRiskPrediction",
              "type": "uint8"
            },
            {
              "internalType": "bool",
              "name": "flagged",
              "type": "bool"
            },
            {
              "internalType": "string",
              "name": "flagReason",
              "type": "string"
            },
            {
              "internalType": "string",
              "name": "recommendation",
              "type": "string"
            },
            {
              "internalType": "uint256",
              "name": "auditedAt",
              "type": "uint256"
            },
            {
              "internalType": "string",
              "name": "reviewedBy",
              "type": "string"
            },
            {
              "internalType": "string",
              "name": "reviewedByName",
              "type": "string"
            },
            {
              "internalType": "string",
              "name": "reviewedByEmail",
              "type": "string"
            },
            {
              "internalType": "string",
              "name": "action",
              "type": "string"
            },
            {
              "internalType": "string",
              "name": "actionReason",
              "type": "string"
            },
            {
              "internalType": "uint256",
              "name": "reviewedAt",
              "type": "uint256"
            }
          ],
          "internalType": "struct PrescriptionAuditContract.PrescriptionRecord",
          "name": "",
          "type": "tuple"
        }
      ],
      "stateMutability": "view",
      "type": "function"
    },
    {
      "inputs": [
        {
          "internalType": "uint256",
          "name": "auditId",
          "type": "uint256"
        }
      ],
      "name": "getBlockchainIdByAuditId",
      "outputs": [
        {
          "internalType": "uint256",
          "name": "",
          "type": "uint256"
        }
      ],
      "stateMutability": "view",
      "type": "function"
    },
    {
      "inputs": [
        {
          "internalType": "string",
          "name": "patientId",
          "type": "string"
        }
      ],
      "name": "getPatientAudits",
      "outputs": [
        {
          "internalType": "uint256[]",
          "name": "",
          "type": "uint256[]"
        }
      ],
      "stateMutability": "view",
      "type": "function"
    },
    {
      "inputs": [],
      "name": "getTotalRecords",
      "outputs": [
        {
          "internalType": "uint256",
          "name": "",
          "type": "uint256"
        }
      ],
      "stateMutability": "view",
      "type": "function"
    },
    {
      "inputs": [],
      "name": "owner",
      "outputs": [
        {
          "internalType": "address",
          "name": "",
          "type": "address"
        }
      ],
      "stateMutability": "view",
      "type": "function"
    },
    {
      "inputs": [
        {
          "internalType": "string",
          "name": "",
          "type": "string"
        },
        {
          "internalType": "uint256",
          "name": "",
          "type": "uint256"
        }
      ],
      "name": "patientAudits",
      "outputs": [
        {
          "internalType": "uint256",
          "name": "",
          "type": "uint256"
        }
      ],
      "stateMutability": "view",
      "type": "function"
    },
    {
      "inputs": [
        {
          "components": [
            {
              "internalType": "uint256",
              "name": "auditId",
              "type": "uint256"
            },
            {
              "internalType": "uint256",
              "name": "prescriptionId",
              "type": "uint256"
            },
            {
              "internalType": "string",
              "name": "patientId",
              "type": "string"
            },
            {
              "internalType": "string",
              "name": "drugName",
              "type": "string"
            },
            {
              "internalType": "uint8",
              "name": "eligibilityScore",
              "type": "uint8"
            },
            {
              "internalType": "uint8",
              "name": "eligibilityPrediction",
              "type": "uint8"
            },
            {
              "internalType": "uint8",
              "name": "oudRiskScore",
              "type": "uint8"
            },
            {
              "internalType": "uint8",
              "name": "oudRiskPrediction",
              "type": "uint8"
            },
            {
              "internalType": "bool",
              "name": "flagged",
              "type": "bool"
            },
            {
              "internalType": "string",
              "name": "flagReason",
              "type": "string"
            },
            {
              "internalType": "string",
              "name": "recommendation",
              "type": "string"
            }
          ],
          "internalType": "struct PrescriptionAuditContract.AuditInput",
          "name": "input",
          "type": "tuple"
        }
      ],
      "name": "recordAudit",
      "outputs": [
        {
          "internalType": "uint256",
          "name": "",
          "type": "uint256"
        }
      ],
      "stateMutability": "nonpayable",
      "type": "function"
    },
    {
      "inputs": [],
      "name": "recordCounter",
      "outputs": [
        {
          "internalType": "uint256",
          "name": "",
          "type": "uint256"
        }
      ],
      "stateMutability": "view",
      "type": "function"
    },
    {
      "inputs": [
        {
          "internalType": "uint256",
          "name": "auditId",
          "type": "uint256"
        },
        {
          "internalType": "string",
          "name": "action",
          "type": "string"
        },
        {
          "internalType": "string",
          "name": "actionReason",
          "type": "string"
        },
        {
          "internalType": "string",
          "name": "reviewedBy",
          "type": "string"
        },
        {
          "internalType": "string",
          "name": "reviewedByName",
          "type": "string"
        },
        {
          "internalType": "string",
          "name": "reviewedByEmail",
          "type": "string"
        }
      ],
      "name": "recordPharmacistAction",
      "outputs": [
        {
          "internalType": "uint256",
          "name": "",
          "type": "uint256"
        }
      ],
      "stateMutability": "nonpayable",
      "type": "function"
    }
  ],
  "bytecode": "0x6080806040523461002d576000600481905580546001600160a01b0319163317905561278f90816100338239f35b600080fdfe608080604052600436101561001357600080fd5b60003560e01c9081630aeacb5e146124a7575080634ac99882146115c357806350ecee1b1461025557806358dda5de146114ec5780637599be5d146114ce578063783b8bd0146111945780638da5cb5b1461116b578063a82cf045146102fb578063bc656a6414610281578063c2099b62146102555763e74e786d1461009857600080fd5b346102505760203660031901126102505760043560005260016020526040600020805490600181015490600281015490600381016100d590612654565b6100e160048301612654565b60058301546100f260068501612654565b6100fe60078601612654565b60088601549061011060098801612654565b9261011d600a8901612654565b9461012a600b8a01612654565b96610137600c8b01612654565b98610144600d8c01612654565b9a600e01549b6040519e8f9e8f9182526020820152604001528c6102606060819201528d0161017291612593565b8c810360808e015261018391612593565b9060ff811660a08d01528060081c60ff1660c08d01528060101c60ff1660e08d01528060181c60ff166101008d015260201c60ff1615156101208c01528a81036101408c01526101d291612593565b8981036101608b01526101e491612593565b906101808901528781036101a08901526101fd91612593565b8681036101c088015261020f91612593565b8581036101e087015261022191612593565b84810361020086015261023391612593565b83810361022085015261024591612593565b906102408301520390f35b600080fd5b346102505760203660031901126102505760043560005260026020526020604060002054604051908152f35b34610250576040366003190112610250576004356001600160401b038111610250576102b190369060040161251a565b6102cd6020602435928160405193828580945193849201612570565b810160038152030190208054821015610250576020916102ec916125ec565b90549060031b1c604051908152f35b3461025057600319602036820112610250576001600160401b03600435116102505761016090600435360301126102505760405161016081018181106001600160401b03821117610ae9576040526004803590810135825260248101356020830152604401356001600160401b0381116102505761038090600436918135010161251a565b6040820152606460043501356001600160401b038111610250576103ab90600436918135010161251a565b60608201526103be6084600435016125b8565b60808201526103d160a4600435016125b8565b60a08201526103e460c4600435016125b8565b60c08201526103f760e4600435016125b8565b60e0820152600435610104013580151590036102505761010460043501356101008201526001600160401b03610124600435013511610250576104453660048035610124810135010161251a565b6101208201526001600160401b03610144600435013511610250576104753660048035610144810135010161251a565b6101408201526104866004546126fa565b809181600455805160208201516040830151606084015160ff60808601511660ff60a08701511660ff60c0880151169160ff60e089015116936101008901511515956101208a0151976101408b01519960206040519e8f906104e7826124c2565b8152015260408d015260608c015260808b015260a08a015260c089015260e088015261010087015261012086015261014085015261016084015242610180840152604051610534816124de565b600081526101a084015260405161054a816124de565b600081526101c0840152604051610560816124de565b600081526101e0840152604051610576816124de565b6000815261020084015260405161058c816124de565b600081526102208401526000610240840152816000526001602052604060002083518155602084015160018201556040840151600282015560608401518051906001600160401b038211610ae95781906105e9600385015461261a565b601f8111611118575b50602090601f83116001146110a65760009261109b575b50508160011b916000199060031b1c19161760038201555b60808401518051906001600160401b038211610ae9578190610646600485015461261a565b601f8111611048575b50602090601f8311600114610fd657600092610fcb575b50508160011b916000199060031b1c19161760048201555b6005810160ff60a08601511681549060c087015162ff000060e089015160101b169061ff0063ff0000006101008b015160181b169364ff000000006101208c0151151560201b169564ffffffffff1916179160081b161717171790556101408401518051906001600160401b038211610ae9578190610700600685015461261a565b601f8111610f78575b50602090601f8311600114610f0657600092610efb575b50508160011b916000199060031b1c19161760068201555b6101608401518051906001600160401b038211610ae957819061075e600785015461261a565b601f8111610ea8575b50602090601f8311600114610e3657600092610e2b575b50508160011b916000199060031b1c19161760078201555b61018084015160088201556101a08401518051906001600160401b038211610ae95781906107c7600985015461261a565b601f8111610dd8575b50602090601f8311600114610d6b57600092610d60575b50508160011b916000199060031b1c19161760098201555b6101c08401518051906001600160401b038211610ae9578190610825600a85015461261a565b601f8111610d0d575b50602090601f8311600114610ca057600092610c95575b50508160011b916000199060031b1c191617600a8201555b6101e08401518051906001600160401b038211610ae9578190610883600b85015461261a565b601f8111610c42575b50602090601f8311600114610bd557600092610bca575b50508160011b916000199060031b1c191617600b8201555b6102008401518051906001600160401b038211610ae95781906108e1600c85015461261a565b601f8111610b77575b50602090601f8311600114610b0a57600092610aff575b50508160011b916000199060031b1c191617600c8201555b6102208401519384516001600160401b038111610ae95761093d600d84015461261a565b95601f8711610aa2575b602096508690601f8311600114610a2e579180600e949261024094600092610a23575b50508160011b916000199060031b1c191617600d8501555b0151910155805160005260028352816040600020556109ad826109a860408401516125c6565b61271f565b817f74e6f14bf089cf15eab9bd2bc8691eecced5c8cf361593b087608d0315e2861d8251928581015160408201519160ff60c0610100830151151592015116610a07604051948594855260a08b86015260a0850190612593565b91604084015260608301524260808301520390a3604051908152f35b01519050898061096a565b90600d8501600052876000209160005b601f1985168110610a8b575092600e94926001926102409583601f19811610610a72575b505050811b01600d850155610982565b015160001960f88460031b161c19169055898080610a62565b919289600181928685015181550194019201610a3e565b600d84016000526020600020601f830160051c810160208410610ae2575b601f890160051c82018110610ad6575050610947565b60008155600101610ac0565b5080610ac0565b634e487b7160e01b600052604160045260246000fd5b015190508680610901565b600c85016000908152602081209350601f198516905b818110610b5f5750908460019594939210610b46575b505050811b01600c820155610919565b015160001960f88460031b161c19169055868080610b36565b92936020600181928786015181550195019301610b20565b909150600c84016000526020600020601f840160051c810160208510610bc3575b90849392915b601f830160051c82018110610bb45750506108ea565b60008155859450600101610b9e565b5080610b98565b0151905086806108a3565b600b85016000908152602081209350601f198516905b818110610c2a5750908460019594939210610c11575b505050811b01600b8201556108bb565b015160001960f88460031b161c19169055868080610c01565b92936020600181928786015181550195019301610beb565b909150600b84016000526020600020601f840160051c810160208510610c8e575b90849392915b601f830160051c82018110610c7f57505061088c565b60008155859450600101610c69565b5080610c63565b015190508680610845565b600a85016000908152602081209350601f198516905b818110610cf55750908460019594939210610cdc575b505050811b01600a82015561085d565b015160001960f88460031b161c19169055868080610ccc565b92936020600181928786015181550195019301610cb6565b909150600a84016000526020600020601f840160051c810160208510610d59575b90849392915b601f830160051c82018110610d4a57505061082e565b60008155859450600101610d34565b5080610d2e565b0151905086806107e7565b600985016000908152602081209350601f198516905b818110610dc05750908460019594939210610da7575b505050811b0160098201556107ff565b015160001960f88460031b161c19169055868080610d97565b92936020600181928786015181550195019301610d81565b909150600984016000526020600020601f840160051c810160208510610e24575b90849392915b601f830160051c82018110610e155750506107d0565b60008155859450600101610dff565b5080610df9565b01519050868061077e565b9250600784016000526020600020906000935b601f1984168510610e8d576001945083601f19811610610e74575b505050811b016007820155610796565b015160001960f88460031b161c19169055868080610e64565b81810151835560209485019460019093019290910190610e49565b909150600784016000526020600020601f840160051c810160208510610ef4575b90849392915b601f830160051c82018110610ee5575050610767565b60008155859450600101610ecf565b5080610ec9565b015190508680610720565b9250600684016000526020600020906000935b601f1984168510610f5d576001945083601f19811610610f44575b505050811b016006820155610738565b015160001960f88460031b161c19169055868080610f34565b81810151835560209485019460019093019290910190610f19565b909150600684016000526020600020601f840160051c810160208510610fc4575b90849392915b601f830160051c82018110610fb5575050610709565b60008155859450600101610f9f565b5080610f99565b015190508680610666565b9250600484016000526020600020906000935b601f198416851061102d576001945083601f19811610611014575b505050811b01600482015561067e565b015160001960f88460031b161c19169055868080611004565b81810151835560209485019460019093019290910190610fe9565b909150600484016000526020600020601f840160051c810160208510611094575b90849392915b601f830160051c8201811061108557505061064f565b6000815585945060010161106f565b5080611069565b015190508680610609565b9250600384016000526020600020906000935b601f19841685106110fd576001945083601f198116106110e4575b505050811b016003820155610621565b015160001960f88460031b161c191690558680806110d4565b818101518355602094850194600190930192909101906110b9565b909150600384016000526020600020601f840160051c810160208510611164575b90849392915b601f830160051c820181106111555750506105f2565b6000815585945060010161113f565b5080611139565b34610250576000366003190112610250576000546040516001600160a01b039091168152602090f35b346102505760203660031901126102505760006102406040516111b6816124c2565b828152826020820152826040820152606080820152606060808201528260a08201528260c08201528260e08201528261010082015282610120820152606061014082015260606101608201528261018082015260606101a082015260606101c082015260606101e08201526060610200820152606061022082015201526004356000526001602052608060606040600020600e60405191611256836124c2565b80548352600181015460208401526002810154604084015261127a60038201612654565b8484015261128a60048201612654565b8584015260ff600582015481811660a0860152818160081c1660c0860152818160101c1660e0860152818160181c1661010086015260201c1615156101208401526112d760068201612654565b6101408401526112e960078201612654565b610160840152600881015461018084015261130660098201612654565b6101a0840152611318600a8201612654565b6101c084015261132a600b8201612654565b6101e084015261133c600c8201612654565b61020084015261134e600d8201612654565b61022084015201546102408201526102406114c16114ab61149361147b61146361143f6114276113ca6113b48a6102606040519e8f9e8f9360208552805160208601526020810151604086015260408101518286015201519201526102808d0190612593565b60808b01518c8203601f190160a08e0152612593565b60ff60a08b01511660c08c015260ff60c08b01511660e08c015260ff60e08b0151166101008c015260ff6101008b0151166101208c01526101208a015115156101408c01526101408a0151601f198c8303016101608d0152612593565b6101608901518a8203601f19016101808c0152612593565b6101808801516101a08a01526101a0880151601f198a8303016101c08b0152612593565b6101c0870151888203601f19016101e08a0152612593565b6101e0860151878203601f1901610200890152612593565b610200850151868203601f1901610220880152612593565b610220840151858203601f190184870152612593565b9101516102608301520390f35b34610250576000366003190112610250576020600454604051908152f35b3461025057602080600319360112610250576004356001600160401b038111610250578161152161153492369060040161251a565b8160405193828580945193849201612570565b8101600381520301902060405190818382549182815201908192600052846000209060005b868282106115af57868661156f828803836124f9565b604051928392818401908285525180915260408401929160005b82811061159857505050500390f35b835185528695509381019392810192600101611589565b835485529093019260019283019201611559565b346102505760c0366003190112610250576024356001600160401b038111610250576115f390369060040161251a565b6044356001600160401b0381116102505761161290369060040161251a565b6064356001600160401b0381116102505761163190369060040161251a565b916084356001600160401b0381116102505761165190369060040161251a565b9160a4356001600160401b0381116102505761167190369060040161251a565b9260043560005260026020526040600020548015612469576000526001602052604060002091604051926116a4846124c2565b8054845260018101546020850152600281015460408501526116c860038201612654565b60608501526116d960048201612654565b6080850152600581015460ff811660a08601528060081c60ff1660c08601528060101c60ff1660e08601528060181c60ff1661010086015260201c60ff1615156101208501526006810161172c90612654565b61014085015261173e60078201612654565b610160850152600881015461018085015261175b60098201612654565b6101a085015261176d600a8201612654565b6101c085015261177f600b8201612654565b6101e0850152611791600c8201612654565b6102008501526117a3600d8201612654565b610220850152600e01546102408401526004546117bf906126fa565b948560045560408401519286856060810151608082015160a083015160ff1660c084015160ff1660e085015160ff169061010086015160ff169261012087015115159461014088015196610160890151986101800151996040519e8f91611825836124c2565b8252600435602083015260408201526060015260808d015260a08c015260c08b015260e08a0152610100890152610120880152610140870152610160860152610180850152876101a08501526101c08401526101e0830152836102008301526102208201524261024082015283600052600160205260406000209080518255602081015160018301556040810151600283015560608101518051906001600160401b038211610ae95781906118dd600386015461261a565b601f8111612416575b50602090601f83116001146123a457600092612399575b50508160011b916000199060031b1c19161760038301555b60808101518051906001600160401b038211610ae957819061193a600486015461261a565b601f8111612346575b50602090601f83116001146122d4576000926122c9575b50508160011b916000199060031b1c19161760048301555b6005820160ff60a08301511681549061ff0060c085015160081b1662ff000060e086015160101b169063ff00000061010087015160181b169264ff00000000610120880151151560201b169464ffffffffff1916171717171790556101408101518051906001600160401b038211610ae95781906119f3600686015461261a565b601f8111612276575b50602090601f8311600114612204576000926121f9575b50508160011b916000199060031b1c19161760068301555b6101608101518051906001600160401b038211610ae9578190611a51600786015461261a565b601f81116121a6575b50602090601f831160011461213457600092612129575b50508160011b916000199060031b1c19161760078301555b61018081015160088301556101a08101518051906001600160401b038211610ae9578190611aba600986015461261a565b601f81116120d6575b50602090601f831160011461206457600092612059575b50508160011b916000199060031b1c19161760098301555b6101c08101518051906001600160401b038211610ae9578190611b18600a86015461261a565b601f8111612006575b50602090601f8311600114611f9457600092611f89575b50508160011b916000199060031b1c191617600a8301555b6101e08101518051906001600160401b038211610ae9578190611b76600b86015461261a565b601f8111611f36575b50602090601f8311600114611ec457600092611eb9575b50508160011b916000199060031b1c191617600b8301555b6102008101518051906001600160401b038211610ae9578190611bd4600c86015461261a565b601f8111611e66575b50602090601f8311600114611df457600092611de9575b50508160011b916000199060031b1c191617600c8301555b6102208101518051906001600160401b038211610ae957611c30600d85015461261a565b601f8111611da2575b509160209793918795938990601f8311600114611cfa57611cd8957fc79f180dba4756bbb3acd7d4dd843a3d11315bb7b5053b532d8a04e3666100bc9795600e610240611cb697878d986109a898606098600092611cef575b50508160011b916000199060031b1c191617600d8501555b015191015501516125c6565b611ccb60405195606087526060870190612593565b9085820388870152612593565b9242604082015280600435940390a3604051908152f35b015190503880611c92565b90600d85016000528a6000209160005b601f1985168110611d885750957fc79f180dba4756bbb3acd7d4dd843a3d11315bb7b5053b532d8a04e3666100bc9795600e610240611cb6976001886109a8988f9a98611cd89e60609a601f19811610611d6f575b505050811b01600d850155611caa565b015160001960f88460031b161c19169055388080611d5f565b8183015184558b9950600190930192918c01918c01611d0a565b600d85016000526020600020601f840160051c810160208510611de2575b601f830160051c82018110611dd6575050611c39565b60008155600101611dc0565b5080611dc0565b015190508880611bf4565b9250600c85016000526020600020906000935b601f1984168510611e4b576001945083601f19811610611e32575b505050811b01600c830155611c0c565b015160001960f88460031b161c19169055888080611e22565b81810151835560209485019460019093019290910190611e07565b909150600c85016000526020600020601f840160051c810160208510611eb2575b90849392915b601f830160051c82018110611ea3575050611bdd565b60008155859450600101611e8d565b5080611e87565b015190508880611b96565b9250600b85016000526020600020906000935b601f1984168510611f1b576001945083601f19811610611f02575b505050811b01600b830155611bae565b015160001960f88460031b161c19169055888080611ef2565b81810151835560209485019460019093019290910190611ed7565b909150600b85016000526020600020601f840160051c810160208510611f82575b90849392915b601f830160051c82018110611f73575050611b7f565b60008155859450600101611f5d565b5080611f57565b015190508880611b38565b9250600a85016000526020600020906000935b601f1984168510611feb576001945083601f19811610611fd2575b505050811b01600a830155611b50565b015160001960f88460031b161c19169055888080611fc2565b81810151835560209485019460019093019290910190611fa7565b909150600a85016000526020600020601f840160051c810160208510612052575b90849392915b601f830160051c82018110612043575050611b21565b6000815585945060010161202d565b5080612027565b015190508880611ada565b9250600985016000526020600020906000935b601f19841685106120bb576001945083601f198116106120a2575b505050811b016009830155611af2565b015160001960f88460031b161c19169055888080612092565b81810151835560209485019460019093019290910190612077565b909150600985016000526020600020601f840160051c810160208510612122575b90849392915b601f830160051c82018110612113575050611ac3565b600081558594506001016120fd565b50806120f7565b015190508880611a71565b9250600785016000526020600020906000935b601f198416851061218b576001945083601f19811610612172575b505050811b016007830155611a89565b015160001960f88460031b161c19169055888080612162565b81810151835560209485019460019093019290910190612147565b909150600785016000526020600020601f840160051c8101602085106121f2575b90849392915b601f830160051c820181106121e3575050611a5a565b600081558594506001016121cd565b50806121c7565b015190508880611a13565b9250600685016000526020600020906000935b601f198416851061225b576001945083601f19811610612242575b505050811b016006830155611a2b565b015160001960f88460031b161c19169055888080612232565b81810151835560209485019460019093019290910190612217565b909150600685016000526020600020601f840160051c8101602085106122c2575b90849392915b601f830160051c820181106122b35750506119fc565b6000815585945060010161229d565b5080612297565b01519050888061195a565b9250600485016000526020600020906000935b601f198416851061232b576001945083601f19811610612312575b505050811b016004830155611972565b015160001960f88460031b161c19169055888080612302565b818101518355602094850194600190930192909101906122e7565b909150600485016000526020600020601f840160051c810160208510612392575b90849392915b601f830160051c82018110612383575050611943565b6000815585945060010161236d565b5080612367565b0151905088806118fd565b9250600385016000526020600020906000935b601f19841685106123fb576001945083601f198116106123e2575b505050811b016003830155611915565b015160001960f88460031b161c191690558880806123d2565b818101518355602094850194600190930192909101906123b7565b909150600385016000526020600020601f840160051c810160208510612462575b90849392915b601f830160051c820181106124535750506118e6565b6000815585945060010161243d565b5080612437565b60405162461bcd60e51b8152602060048201526016602482015275105d591a5d081c9958dbdc99081b9bdd08199bdd5b9960521b6044820152606490fd5b34610250576000366003190112610250576020906004548152f35b61026081019081106001600160401b03821117610ae957604052565b602081019081106001600160401b03821117610ae957604052565b90601f801991011681019081106001600160401b03821117610ae957604052565b81601f82011215610250578035906001600160401b038211610ae9576040519261254e601f8401601f1916602001856124f9565b8284526020838301011161025057816000926020809301838601378301015290565b60005b8381106125835750506000910152565b8181015183820152602001612573565b906020916125ac81518092818552858086019101612570565b601f01601f1916010190565b359060ff8216820361025057565b60206125df918160405193828580945193849201612570565b8101600381520301902090565b80548210156126045760005260206000200190600090565b634e487b7160e01b600052603260045260246000fd5b90600182811c9216801561264a575b602083101461263457565b634e487b7160e01b600052602260045260246000fd5b91607f1691612629565b90604051918260008254926126688461261a565b9081845260019485811690816000146126d75750600114612694575b5050612692925003836124f9565b565b9093915060005260209081600020936000915b8183106126bf57505061269293508201013880612684565b855488840185015294850194879450918301916126a7565b91505061269294506020925060ff191682840152151560051b8201013880612684565b60001981146127095760010190565b634e487b7160e01b600052601160045260246000fd5b805468010000000000000000811015610ae957612741916001820181556125ec565b819291549060031b91821b91600019901b191617905556fea2646970667358221220dbf1aa1f0b6e2346db8b4ac6d41bba4610ff57191f43abe9464e20a8f6da6b3b64736f6c63430008130033",
  "linkReferences": {},
  "deployedLinkReferences": {}
}