{
  "contractName": "PrescriptionAuditContract",
  "abi": [
    {
      "inputs": [],
      "stateMutability": "nonpayable",
      "type": "constructor"
    },
    {
      "anonymous": false,
      "inputs": [
        {
          "indexed": true,
          "internalType": "uint256",
          "name": "prescriptionId",
          "type": "uint256"
        },
        {
          "indexed": false,
          "internalType": "string",
          "name": "patientId",
          "type": "string"
        },
        {
          "indexed": false,
          "internalType": "string",
          "name": "doctorId",
          "type": "string"
        },
        {
          "indexed": false,
          "internalType": "string",
          "name": "pharmacyId",
          "type": "string"
        },
        {
          "indexed": false,
          "internalType": "uint8",
          "name": "riskScore",
          "type": "uint8"
        },
        {
          "indexed": false,
          "internalType": "string",
          "name": "riskFactors",
          "type": "string"
        }
      ],
      "name": "PrescriptionFlagged",
      "type": "event"
    },
    {
      "anonymous": false,
      "inputs": [
        {
          "indexed": true,
          "internalType": "uint256",
          "name": "prescriptionId",
          "type": "uint256"
        },
        {
          "indexed": false,
          "internalType": "string",
          "name": "overrideBy",
          "type": "string"
        },
        {
          "indexed": false,
          "internalType": "string",
          "name": "overrideReason",
          "type": "string"
        },
        {
          "indexed": false,
          "internalType": "uint256",
          "name": "timestamp",
          "type": "uint256"
        }
      ],
      "name": "PrescriptionOverridden",
      "type": "event"
    },
    {
      "anonymous": false,
      "inputs": [
        {
          "indexed": true,
          "internalType": "uint256",
          "name": "prescriptionId",
          "type": "uint256"
        },
        {
          "indexed": false,
          "internalType": "string",
          "name": "verifiedBy",
          "type": "string"
        },
        {
          "indexed": false,
          "internalType": "uint256",
          "name": "timestamp",
          "type": "uint256"
        }
      ],
      "name": "PrescriptionVerified",
      "type": "event"
    },
    {
      "inputs": [],
      "name": "RISK_THRESHOLD",
      "outputs": [
        {
          "internalType": "uint256",
          "name": "",
          "type": "uint256"
        }
      ],
      "stateMutability": "view",
      "type": "function"
    },
    {
      "inputs": [
        {
          "internalType": "address",
          "name": "",
          "type": "address"
        }
      ],
      "name": "authorizedAuditors",
      "outputs": [
        {
          "internalType": "bool",
          "name": "",
          "type": "bool"
        }
      ],
      "stateMutability": "view",
      "type": "function"
    },
    {
      "inputs": [
        {
          "internalType": "address",
          "name": "",
          "type": "address"
        }
      ],
      "name": "authorizedDoctors",
      "outputs": [
        {
          "internalType": "bool",
          "name": "",
          "type": "bool"
        }
      ],
      "stateMutability": "view",
      "type": "function"
    },
    {
      "inputs": [
        {
          "internalType": "address",
          "name": "",
          "type": "address"
        }
      ],
      "name": "authorizedPharmacists",
      "outputs": [
        {
          "internalType": "bool",
          "name": "",
          "type": "bool"
        }
      ],
      "stateMutability": "view",
      "type": "function"
    },
    {
      "inputs": [
        {
          "internalType": "string",
          "name": "",
          "type": "string"
        },
        {
          "internalType": "uint256",
          "name": "",
          "type": "uint256"
        }
      ],
      "name": "doctorPrescriptions",
      "outputs": [
        {
          "internalType": "uint256",
          "name": "",
          "type": "uint256"
        }
      ],
      "stateMutability": "view",
      "type": "function"
    },
    {
      "inputs": [],
      "name": "owner",
      "outputs": [
        {
          "internalType": "address",
          "name": "",
          "type": "address"
        }
      ],
      "stateMutability": "view",
      "type": "function"
    },
    {
      "inputs": [
        {
          "internalType": "string",
          "name": "",
          "type": "string"
        },
        {
          "internalType": "uint256",
          "name": "",
          "type": "uint256"
        }
      ],
      "name": "patientPrescriptions",
      "outputs": [
        {
          "internalType": "uint256",
          "name": "",
          "type": "uint256"
        }
      ],
      "stateMutability": "view",
      "type": "function"
    },
    {
      "inputs": [
        {
          "internalType": "string",
          "name": "",
          "type": "string"
        },
        {
          "internalType": "uint256",
          "name": "",
          "type": "uint256"
        }
      ],
      "name": "pharmacyPrescriptions",
      "outputs": [
        {
          "internalType": "uint256",
          "name": "",
          "type": "uint256"
        }
      ],
      "stateMutability": "view",
      "type": "function"
    },
    {
      "inputs": [],
      "name": "prescriptionCounter",
      "outputs": [
        {
          "internalType": "uint256",
          "name": "",
          "type": "uint256"
        }
      ],
      "stateMutability": "view",
      "type": "function"
    },
    {
      "inputs": [
        {
          "internalType": "uint256",
          "name": "",
          "type": "uint256"
        }
      ],
      "name": "prescriptions",
      "outputs": [
        {
          "internalType": "uint256",
          "name": "prescriptionId",
          "type": "uint256"
        },
        {
          "internalType": "string",
          "name": "patientId",
          "type": "string"
        },
        {
          "internalType": "string",
          "name": "doctorId",
          "type": "string"
        },
        {
          "internalType": "string",
          "name": "pharmacyId",
          "type": "string"
        },
        {
          "internalType": "string",
          "name": "drugName",
          "type": "string"
        },
        {
          "internalType": "uint256",
          "name": "quantity",
          "type": "uint256"
        },
        {
          "internalType": "uint256",
          "name": "timestamp",
          "type": "uint256"
        },
        {
          "internalType": "uint8",
          "name": "riskScore",
          "type": "uint8"
        },
        {
          "internalType": "string",
          "name": "riskFactors",
          "type": "string"
        },
        {
          "internalType": "bool",
          "name": "isFlagged",
          "type": "bool"
        },
        {
          "internalType": "bool",
          "name": "isOverridden",
          "type": "bool"
        },
        {
          "internalType": "string",
          "name": "overrideReason",
          "type": "string"
        },
        {
          "internalType": "string",
          "name": "overrideBy",
          "type": "string"
        },
        {
          "internalType": "uint256",
          "name": "overrideTimestamp",
          "type": "uint256"
        }
      ],
      "stateMutability": "view",
      "type": "function"
    },
    {
      "inputs": [
        {
          "internalType": "address",
          "name": "doctor",
          "type": "address"
        }
      ],
      "name": "addAuthorizedDoctor",
      "outputs": [],
      "stateMutability": "nonpayable",
      "type": "function"
    },
    {
      "inputs": [
        {
          "internalType": "address",
          "name": "pharmacist",
          "type": "address"
        }
      ],
      "name": "addAuthorizedPharmacist",
      "outputs": [],
      "stateMutability": "nonpayable",
      "type": "function"
    },
    {
      "inputs": [
        {
          "internalType": "address",
          "name": "auditor",
          "type": "address"
        }
      ],
      "name": "addAuthorizedAuditor",
      "outputs": [],
      "stateMutability": "nonpayable",
      "type": "function"
    },
    {
      "inputs": [
        {
          "internalType": "string",
          "name": "patientId",
          "type": "string"
        },
        {
          "internalType": "string",
          "name": "doctorId",
          "type": "string"
        },
        {
          "internalType": "string",
          "name": "pharmacyId",
          "type": "string"
        },
        {
          "internalType": "string",
          "name": "drugName",
          "type": "string"
        },
        {
          "internalType": "uint256",
          "name": "quantity",
          "type": "uint256"
        },
        {
          "internalType": "uint8",
          "name": "riskScore",
          "type": "uint8"
        },
        {
          "internalType": "string",
          "name": "riskFactors",
          "type": "string"
        }
      ],
      "name": "recordFlaggedPrescription",
      "outputs": [
        {
          "internalType": "uint256",
          "name": "",
          "type": "uint256"
        }
      ],
      "stateMutability": "nonpayable",
      "type": "function"
    },
    {
      "inputs": [
        {
          "internalType": "uint256",
          "name": "prescriptionId",
          "type": "uint256"
        },
        {
          "internalType": "string",
          "name": "overrideReason",
          "type": "string"
        },
        {
          "internalType": "string",
          "name": "overrideBy",
          "type": "string"
        }
      ],
      "name": "overridePrescription",
      "outputs": [],
      "stateMutability": "nonpayable",
      "type": "function"
    },
    {
      "inputs": [
        {
          "internalType": "uint256",
          "name": "prescriptionId",
          "type": "uint256"
        },
        {
          "internalType": "string",
          "name": "verifiedBy",
          "type": "string"
        }
      ],
      "name": "verifyPrescription",
      "outputs": [],
      "stateMutability": "nonpayable",
      "type": "function"
    },
    {
      "inputs": [
        {
          "internalType": "uint256",
          "name": "prescriptionId",
          "type": "uint256"
        }
      ],
      "name": "getPrescription",
      "outputs": [
        {
          "internalType": "uint256",
          "name": "id",
          "type": "uint256"
        },
        {
          "internalType": "string",
          "name": "patientId",
          "type": "string"
        },
        {
          "internalType": "string",
          "name": "doctorId",
          "type": "string"
        },
        {
          "internalType": "string",
          "name": "pharmacyId",
          "type": "string"
        },
        {
          "internalType": "string",
          "name": "drugName",
          "type": "string"
        },
        {
          "internalType": "uint256",
          "name": "quantity",
          "type": "uint256"
        },
        {
          "internalType": "uint256",
          "name": "timestamp",
          "type": "uint256"
        },
        {
          "internalType": "uint8",
          "name": "riskScore",
          "type": "uint8"
        },
        {
          "internalType": "string",
          "name": "riskFactors",
          "type": "string"
        },
        {
          "internalType": "bool",
          "name": "isFlagged",
          "type": "bool"
        },
        {
          "internalType": "bool",
          "name": "isOverridden",
          "type": "bool"
        },
        {
          "internalType": "string",
          "name": "overrideReason",
          "type": "string"
        },
        {
          "internalType": "string",
          "name": "overrideBy",
          "type": "string"
        },
        {
          "internalType": "uint256",
          "name": "overrideTimestamp",
          "type": "uint256"
        }
      ],
      "stateMutability": "view",
      "type": "function"
    },
    {
      "inputs": [
        {
          "internalType": "string",
          "name": "patientId",
          "type": "string"
        }
      ],
      "name": "getPatientPrescriptions",
      "outputs": [
        {
          "internalType": "uint256[]",
          "name": "",
          "type": "uint256[]"
        }
      ],
      "stateMutability": "view",
      "type": "function"
    },
    {
      "inputs": [
        {
          "internalType": "string",
          "name": "doctorId",
          "type": "string"
        }
      ],
      "name": "getDoctorPrescriptions",
      "outputs": [
        {
          "internalType": "uint256[]",
          "name": "",
          "type": "uint256[]"
        }
      ],
      "stateMutability": "view",
      "type": "function"
    },
    {
      "inputs": [
        {
          "internalType": "string",
          "name": "pharmacyId",
          "type": "string"
        }
      ],
      "name": "getPharmacyPrescriptions",
      "outputs": [
        {
          "internalType": "uint256[]",
          "name": "",
          "type": "uint256[]"
        }
      ],
      "stateMutability": "view",
      "type": "function"
    },
    {
      "inputs": [],
      "name": "getTotalPrescriptions",
      "outputs": [
        {
          "internalType": "uint256",
          "name": "",
          "type": "uint256"
        }
      ],
      "stateMutability": "view",
      "type": "function"
    },
    {
      "inputs": [
        {
          "internalType": "uint256",
          "name": "prescriptionId",
          "type": "uint256"
        }
      ],
      "name": "isPrescriptionFlagged",
      "outputs": [
        {
          "internalType": "bool",
          "name": "",
          "type": "bool"
        }
      ],
      "stateMutability": "view",
      "type": "function"
    }
  ],
  "bytecode": "0x6080806040523461002d576000600581905580546001600160a01b03191633179055611de190816100338239f35b600080fdfe6080604052600436101561001257600080fd5b60003560e01c806312367db0146119375780632d3975f0146118f45780632e338def1461186c57806331dfc91b146117b557806342189e0f1461172d57806342894c58146116ed57806345855163146113865780634767bc9f146116d1578063500134a2146115d657806350ced3aa1461152f5780636f16af10146113e75780637fe202c7146113a457806382a7fa4a146113865780638d8bb09b1461133a5780638da5cb5b14611311578063a7d5dcd9146112c0578063affd0f8b146106a0578063b8b550d41461064f578063b8be85b4146101fd578063c0228501146101ba578063c4b774a2146101645763dd838a731461010e57600080fd5b3461015f57602036600319011261015f576004356001600160a01b038181169182900361015f5761014490600054163314611c99565b6000908152600660205260409020805460ff19166001179055005b600080fd5b3461015f57602061018c61017736611a17565b92908160405193828580945193849201611a48565b81016003815203019020805482101561015f576020916101ab91611a6b565b90549060031b1c604051908152f35b3461015f57602036600319011261015f576004356001600160a01b0381169081900361015f576000526008602052602060ff604060002054166040519015158152f35b3461015f57606036600319011261015f576001600160401b0360043560243582811161015f576102319036906004016119c1565b9160443581811161015f5761024a9036906004016119c1565b92336000526020916006835260ff60406000205416801561063c575b8015610629575b8015610615575b61027d90611cef565b836000526001908184526102976040600020541515611d66565b8460005281845260ff60096040600020015416156105d0578460005281845260ff60096040600020015460081c166105965784600052818452600a60406000206009810161010061ff001982541617905501908351918183116104ce576102fe8154611ad4565b92601f93848111610550575b5080878582116001146104ef576000916104e4575b50600019600383901b1c191690851b1790555b85600052828552600b6040600020019187519182116104ce576103558354611ad4565b818111610488575b50859082116001146103fb57926103d89592827f1a01465fb5294d5b485a16786722224818c96b01b7bbd04a5c88a6f44338616c989996936103e5966000916103f0575b50600019600383901b1c191690831b1790555b87600052825242600c60406000200155604051948594606086526060860190611bb4565b9184830390850152611bb4565b4260408301520390a2005b90508701518b6103a1565b601f1982169083600052866000209160005b8181106104735750948381936103d89996937f1a01465fb5294d5b485a16786722224818c96b01b7bbd04a5c88a6f44338616c9b9c99966103e5991061045a575b5050811b0190556103b4565b89015160001960f88460031b161c191690558b8061044e565b8a83015184559286019291880191880161040d565b83600052866000208280850160051c8201928986106104c5575b0160051c019085905b8281106104b957505061035d565b600081550185906104ab565b925081926104a2565b634e487b7160e01b600052604160045260246000fd5b90508601518a61031f565b869250601f1982169084600052896000209160005b8b82821061053a5750508311610521575b5050811b019055610332565b88015160001960f88460031b161c191690558a80610515565b838c015185558a96909401939283019201610504565b82600052876000208580840160051c8201928a851061058d575b0160051c019086905b82811061058157505061030a565b60008155018690610573565b9250819261056a565b60405162461bcd60e51b815260048101859052601260248201527120b63932b0b23c9037bb32b93934b23232b760711b6044820152606490fd5b60405162461bcd60e51b815260048101859052601860248201527f507265736372697074696f6e206e6f7420666c616767656400000000000000006044820152606490fd5b506000546001600160a01b03163314610274565b506008835260ff6040600020541661026d565b506007835260ff60406000205416610266565b3461015f57602036600319011261015f576004356001600160a01b038181169182900361015f5761068590600054163314611c99565b6000908152600860205260409020805460ff19166001179055005b3461015f5760e036600319011261015f576004356001600160401b03811161015f576106d09036906004016119c1565b6024356001600160401b03811161015f576106ef9036906004016119c1565b6044356001600160401b03811161015f5761070e9036906004016119c1565b6064356001600160401b03811161015f5761072d9036906004016119c1565b9260a43560ff8116810361015f5760c4356001600160401b03811161015f5761075a9036906004016119c1565b9233600052600660205260ff6040600020541680156112ac575b8015611298575b8015611284575b61078b90611cef565b604660ff83161061123f576005549460001986146112295760018601600555604051966107b788611969565b600187018852846020890152816040890152826060890152608088015260843560a08801524260c088015260ff831660e0880152846101008801526001610120880152600061014088015260405161080e81611985565b6000815261016088015260405161082481611985565b6000815261018088015260006101a088015260018601600052600160205260406000208751815560208801518051906001600160401b0382116104ce5781906108706001850154611ad4565b601f81116111d6575b50602090601f831160011461116457600092611159575b50508160011b916000199060031b1c19161760018201555b60408801518051906001600160401b0382116104ce5781906108cd6002850154611ad4565b601f8111611106575b50602090601f831160011461109457600092611089575b50508160011b916000199060031b1c19161760028201555b60608801518051906001600160401b0382116104ce57819061092a6003850154611ad4565b601f8111611036575b50602090601f8311600114610fc457600092610fb9575b50508160011b916000199060031b1c19161760038201555b60808801518051906001600160401b0382116104ce5781906109876004850154611ad4565b601f8111610f66575b50602090601f8311600114610ef457600092610ee9575b50508160011b916000199060031b1c19161760048201555b60a0880151600582015560c088015160068201556007810160ff60e08a01511660ff198254161790556101008801518051906001600160401b0382116104ce578190610a0e6008850154611ad4565b601f8111610e96575b50602090601f8311600114610e2457600092610e19575b50508160011b916000199060031b1c19161760088201555b600981016101208901511515815460ff61ff006101408d0151151560081b1692169061ffff1916171790556101608801518051906001600160401b0382116104ce578190610a97600a850154611ad4565b601f8111610dc6575b50602090601f8311600114610d5457600092610d49575b50508160011b916000199060031b1c191617600a8201555b6101808801519788516001600160401b0381116104ce57610af3600b840154611ad4565b99601f8b11610d02575b60209a508a90601f8311600114610c5a57610c4195610c0d9895600c6101a060ff9787610c28987f2822d9f9616171d98d1ce5a2aca60be5793312304babb52f98831c9bd5fbb78d9f9d98610c1a98600092610c4f575b50508160011b916000199060031b1c191617600b8501555b0151910155610ba18c610b8f8f8b60018260405194838680955193849201611a48565b82019460028652019303019020611d2c565b610bcd8c6040518f8160018651610bbb8184868b01611a48565b82019460038652019303019020611d2c565b610bf98c6040518f8160018851610be78184868d01611a48565b82019460048652019303019020611d2c565b60405198899860a08a5260a08a0190611bb4565b908882038e8a0152611bb4565b908682036040880152611bb4565b9116606084015282810360808401526001870195611bb4565b0390a2600160405191018152f35b015190503880610b54565b90600b85016000528b6000209160005b601f1985168110610ceb575095610c0d9895600c6101a060ff976001887f2822d9f9616171d98d1ce5a2aca60be5793312304babb52f98831c9bd5fbb78d9f9d98610c1a98610c419e610c289c601f19811610610cd2575b505050811b01600b850155610b6c565b015160001960f88460031b161c19169055388080610cc2565b91928d600181928685015181550194019201610c6a565b600b84016000526020600020601f830160051c810160208410610d42575b601f8d0160051c82018110610d36575050610afd565b60008155600101610d20565b5080610d20565b015190508a80610ab7565b9250600a84016000526020600020906000935b601f1984168510610dab576001945083601f19811610610d92575b505050811b01600a820155610acf565b015160001960f88460031b161c191690558a8080610d82565b81810151835560209485019460019093019290910190610d67565b909150600a84016000526020600020601f840160051c810160208510610e12575b90849392915b601f830160051c82018110610e03575050610aa0565b60008155859450600101610ded565b5080610de7565b015190508a80610a2e565b9250600884016000526020600020906000935b601f1984168510610e7b576001945083601f19811610610e62575b505050811b016008820155610a46565b015160001960f88460031b161c191690558a8080610e52565b81810151835560209485019460019093019290910190610e37565b909150600884016000526020600020601f840160051c810160208510610ee2575b90849392915b601f830160051c82018110610ed3575050610a17565b60008155859450600101610ebd565b5080610eb7565b015190508a806109a7565b9250600484016000526020600020906000935b601f1984168510610f4b576001945083601f19811610610f32575b505050811b0160048201556109bf565b015160001960f88460031b161c191690558a8080610f22565b81810151835560209485019460019093019290910190610f07565b909150600484016000526020600020601f840160051c810160208510610fb2575b90849392915b601f830160051c82018110610fa3575050610990565b60008155859450600101610f8d565b5080610f87565b015190508a8061094a565b9250600384016000526020600020906000935b601f198416851061101b576001945083601f19811610611002575b505050811b016003820155610962565b015160001960f88460031b161c191690558a8080610ff2565b81810151835560209485019460019093019290910190610fd7565b909150600384016000526020600020601f840160051c810160208510611082575b90849392915b601f830160051c82018110611073575050610933565b6000815585945060010161105d565b5080611057565b015190508a806108ed565b9250600284016000526020600020906000935b601f19841685106110eb576001945083601f198116106110d2575b505050811b016002820155610905565b015160001960f88460031b161c191690558a80806110c2565b818101518355602094850194600190930192909101906110a7565b909150600284016000526020600020601f840160051c810160208510611152575b90849392915b601f830160051c820181106111435750506108d6565b6000815585945060010161112d565b5080611127565b015190508a80610890565b9250600184016000526020600020906000935b601f19841685106111bb576001945083601f198116106111a2575b505050811b0160018201556108a8565b015160001960f88460031b161c191690558a8080611192565b81810151835560209485019460019093019290910190611177565b909150600184016000526020600020601f840160051c810160208510611222575b90849392915b601f830160051c82018110611213575050610879565b600081558594506001016111fd565b50806111f7565b634e487b7160e01b600052601160045260246000fd5b60405162461bcd60e51b815260206004820152601a60248201527f5269736b2073636f72652062656c6f77207468726573686f6c640000000000006044820152606490fd5b506000546001600160a01b03163314610782565b50600860205260ff6040600020541661077b565b50600760205260ff60406000205416610774565b3461015f57602036600319011261015f576004356001600160a01b038181169182900361015f576112f690600054163314611c99565b6000908152600760205260409020805460ff19166001179055005b3461015f57600036600319011261015f576000546040516001600160a01b039091168152602090f35b3461015f57602036600319011261015f576004356000526001602052602060096040600020015460ff81169081611377575b506040519015158152f35b60ff915060081c16158261136c565b3461015f57600036600319011261015f576020600554604051908152f35b3461015f57602036600319011261015f576004356001600160a01b0381169081900361015f576000526007602052602060ff604060002054166040519015158152f35b3461015f57602036600319011261015f576004356000526001602052604060002060405161141481611969565b8154815261152b61142760018401611b0e565b916020810192835261018061143e60028601611b0e565b94604083019586528261145360038301611b0e565b916060820192835261146760048201611b0e565b9060808301918252600581015460a08401908152600682015460c0850190815260ff6007840154169060e086019182526114a360088501611b0e565b92610100870193845260098501549560ff600c6101208a0197828a1615158952826101408c019a60081c1615158a526101606114e1600a8301611b0e565b9b019a8b528d6114f3600b8301611b0e565b9d8e91015201549b8c6101a0820152519d519e519951915192519351945116945195511515965115159751986040519e8f9e8f611bd9565b0390f35b3461015f5760208060031936011261015f576004356001600160401b03811161015f57816115646115779236906004016119c1565b8160405193828580945193849201611a48565b8101600481520301902090604051908181845491828152019360005281600020916000905b8282106115bf5761152b856115b3818903826119a0565b60405191829182611a99565b83548652948501946001938401939091019061159c565b3461015f57604036600319011261015f576004356024356001600160401b03811161015f5761168a61162d7f3ccbd6378ae87e08807ee71cd51281c9fb67a6555164e57a72afc0cfebfa82809236906004016119c1565b33600052600660205260ff6040600020541680156116bd575b80156116a9575b8015611695575b61165d90611cef565b8360005260016020526116766040600020541515611d66565b604051918291604083526040830190611bb4565b4260208301520390a2005b506000546001600160a01b03163314611654565b50600860205260ff6040600020541661164d565b50600760205260ff60406000205416611646565b3461015f57600036600319011261015f57602060405160468152f35b3461015f57602061170061017736611a17565b81016004815203019020805482101561015f5760209161171f91611a6b565b90546040519160031b1c8152f35b3461015f5760208060031936011261015f576004356001600160401b03811161015f57816115646117629236906004016119c1565b8101600381520301902090604051908181845491828152019360005281600020916000905b82821061179e5761152b856115b3818903826119a0565b835486529485019460019384019390910190611787565b3461015f57602036600319011261015f5760043560005260016020526040600020805461152b6117e760018401611b0e565b916117f460028501611b0e565b9361180160038201611b0e565b9161180e60048301611b0e565b90600583015490600684015460ff60078601541661182e60088701611b0e565b91600987015494611841600a8901611b0e565b96600c611850600b8b01611b0e565b990154996040519d8e9d8e9860ff808c60081c169b1699611bd9565b3461015f5760208060031936011261015f576004356001600160401b03811161015f57816115646118a19236906004016119c1565b8101600281520301902090604051908181845491828152019360005281600020916000905b8282106118dd5761152b856115b3818903826119a0565b8354865294850194600193840193909101906118c6565b3461015f57602036600319011261015f576004356001600160a01b0381169081900361015f576000526006602052602060ff604060002054166040519015158152f35b3461015f57602061194a61017736611a17565b81016002815203019020805482101561015f5760209161171f91611a6b565b6101c081019081106001600160401b038211176104ce57604052565b602081019081106001600160401b038211176104ce57604052565b90601f801991011681019081106001600160401b038211176104ce57604052565b81601f8201121561015f578035906001600160401b0382116104ce57604051926119f5601f8401601f1916602001856119a0565b8284526020838301011161015f57816000926020809301838601378301015290565b604060031982011261015f57600435906001600160401b03821161015f57611a41916004016119c1565b9060243590565b60005b838110611a5b5750506000910152565b8181015183820152602001611a4b565b8054821015611a835760005260206000200190600090565b634e487b7160e01b600052603260045260246000fd5b6020908160408183019282815285518094520193019160005b828110611ac0575050505090565b835185529381019392810192600101611ab2565b90600182811c92168015611b04575b6020831014611aee57565b634e487b7160e01b600052602260045260246000fd5b91607f1691611ae3565b9060405191826000825492611b2284611ad4565b908184526001948581169081600014611b915750600114611b4e575b5050611b4c925003836119a0565b565b9093915060005260209081600020936000915b818310611b79575050611b4c93508201013880611b3e565b85548884018501529485019487945091830191611b61565b915050611b4c94506020925060ff191682840152151560051b8201013880611b3e565b90602091611bcd81518092818552858086019101611a48565b601f01601f1916010190565b9e9d9c99978f92906101a09d98611c48611c6698611c949f9a98611c3a90611c859f99611c2c90611c1e60ff9960e09b8d5260208d6101c091829101528d0190611bb4565b908b820360408d0152611bb4565b9089820360608b0152611bb4565b908782036080890152611bb4565b9660a086015260c0850152169101528c610100818403910152611bb4565b9215156101208b015215156101408a01528882036101608a0152611bb4565b90868203610180880152611bb4565b930152565b15611ca057565b60405162461bcd60e51b815260206004820152602160248201527f4f6e6c79206f776e65722063616e2063616c6c20746869732066756e6374696f6044820152603760f91b6064820152608490fd5b15611cf657565b60405162461bcd60e51b815260206004820152600e60248201526d139bdd08185d5d1a1bdc9a5e995960921b6044820152606490fd5b8054680100000000000000008110156104ce57611d4e91600182018155611a6b565b819291549060031b91821b91600019901b1916179055565b15611d6d57565b60405162461bcd60e51b8152602060048201526016602482015275141c995cd8dc9a5c1d1a5bdb881b9bdd08199bdd5b9960521b6044820152606490fdfea26469706673582212201914c18eb70f2d09c8aee40feb3d0aecf1ed90fe03e8865085c68dad9ef7aa0464736f6c63430008130033",
  "immutableReferences": {},
  "source": "// SPDX-License-Identifier: MIT\npragma solidity ^0.8.19;\n\n/**\n * @title PrescriptionAuditContract\n * @dev Smart contract for tracking flagged prescriptions and override actions\n * @author AutoRxAudit System\n */\ncontract PrescriptionAuditContract {\n    \n    // Struct to represent a prescription record\n    struct PrescriptionRecord {\n        uint256 prescriptionId;\n        string patientId;\n        string doctorId;\n        string pharmacyId;\n        string drugName;\n        uint256 quantity;\n        uint256 timestamp;\n        uint8 riskScore; // 0-100 risk score from AI\n        string riskFactors; // JSON string of risk factors\n        bool isFlagged;\n        bool isOverridden;\n        string overrideReason;\n        string overrideBy; // Doctor/pharmacist who overrode\n        uint256 overrideTimestamp;\n    }\n    \n    // Events for tracking actions\n    event PrescriptionFlagged(\n        uint256 indexed prescriptionId,\n        string patientId,\n        string doctorId,\n        string pharmacyId,\n        uint8 riskScore,\n        string riskFactors\n    );\n    \n    event PrescriptionOverridden(\n        uint256 indexed prescriptionId,\n        string overrideBy,\n        string overrideReason,\n        uint256 timestamp\n    );\n    \n    event PrescriptionVerified(\n        uint256 indexed prescriptionId,\n        string verifiedBy,\n        uint256 timestamp\n    );\n    \n    // State variables\n    address public owner;\n    mapping(uint256 => PrescriptionRecord) public prescriptions;\n    mapping(string => uint256[]) public patientPrescriptions; // patientId => prescriptionIds\n    mapping(string => uint256[]) public doctorPrescriptions; // doctorId => prescriptionIds\n    mapping(string => uint256[]) public pharmacyPrescriptions; // pharmacyId => prescriptionIds\n    \n    uint256 public prescriptionCounter = 0;\n    uint256 public constant RISK_THRESHOLD = 70; // Flag prescriptions with risk score >= 70\n    \n    // Access control\n    mapping(address => bool) public authorizedDoctors;\n    mapping(address => bool) public authorizedPharmacists;\n    mapping(address => bool) public authorizedAuditors;\n    \n    modifier onlyOwner() {\n        require(msg.sender == owner, \"Only owner can call this function\");\n        _;\n    }\n    \n    modifier onlyAuthorized() {\n        require(\n            authorizedDoctors[msg.sender] || \n            authorizedPharmacists[msg.sender] || \n            authorizedAuditors[msg.sender] || \n            msg.sender == owner,\n            \"Not authorized\"\n        );\n        _;\n    }\n    \n    constructor() {\n        owner = msg.sender;\n    }\n    \n    /**\n     * @dev Add authorized doctor\n     */\n    function addAuthorizedDoctor(address doctor) external onlyOwner {\n        authorizedDoctors[doctor] = true;\n    }\n    \n    /**\n     * @dev Add authorized pharmacist\n     */\n    function addAuthorizedPharmacist(address pharmacist) external onlyOwner {\n        authorizedPharmacists[pharmacist] = true;\n    }\n    \n    /**\n     * @dev Add authorized auditor\n     */\n    function addAuthorizedAuditor(address auditor) external onlyOwner {\n        authorizedAuditors[auditor] = true;\n    }\n    \n    /**\n     * @dev Record a flagged prescription\n     * @param patientId Patient identifier\n     * @param doctorId Doctor identifier\n     * @param pharmacyId Pharmacy identifier\n     * @param drugName Name of the prescribed drug\n     * @param quantity Quantity prescribed\n     * @param riskScore AI-calculated risk score (0-100)\n     * @param riskFactors JSON string of risk factors\n     */\n    function recordFlaggedPrescription(\n        string memory patientId,\n        string memory doctorId,\n        string memory pharmacyId,\n        string memory drugName,\n        uint256 quantity,\n        uint8 riskScore,\n        string memory riskFactors\n    ) external onlyAuthorized returns (uint256) {\n        require(riskScore >= RISK_THRESHOLD, \"Risk score below threshold\");\n        \n        prescriptionCounter++;\n        uint256 prescriptionId = prescriptionCounter;\n        \n        PrescriptionRecord memory newPrescription = PrescriptionRecord({\n            prescriptionId: prescriptionId,\n            patientId: patientId,\n            doctorId: doctorId,\n            pharmacyId: pharmacyId,\n            drugName: drugName,\n            quantity: quantity,\n            timestamp: block.timestamp,\n            riskScore: riskScore,\n            riskFactors: riskFactors,\n            isFlagged: true,\n            isOverridden: false,\n            overrideReason: \"\",\n            overrideBy: \"\",\n            overrideTimestamp: 0\n        });\n        \n        prescriptions[prescriptionId] = newPrescription;\n        patientPrescriptions[patientId].push(prescriptionId);\n        doctorPrescriptions[doctorId].push(prescriptionId);\n        pharmacyPrescriptions[pharmacyId].push(prescriptionId);\n        \n        emit PrescriptionFlagged(\n            prescriptionId,\n            patientId,\n            doctorId,\n            pharmacyId,\n            riskScore,\n            riskFactors\n        );\n        \n        return prescriptionId;\n    }\n    \n    /**\n     * @dev Override a flagged prescription\n     * @param prescriptionId ID of the prescription to override\n     * @param overrideReason Reason for override\n     * @param overrideBy Identifier of person overriding\n     */\n    function overridePrescription(\n        uint256 prescriptionId,\n        string memory overrideReason,\n        string memory overrideBy\n    ) external onlyAuthorized {\n        require(prescriptions[prescriptionId].prescriptionId != 0, \"Prescription not found\");\n        require(prescriptions[prescriptionId].isFlagged, \"Prescription not flagged\");\n        require(!prescriptions[prescriptionId].isOverridden, \"Already overridden\");\n        \n        prescriptions[prescriptionId].isOverridden = true;\n        prescriptions[prescriptionId].overrideReason = overrideReason;\n        prescriptions[prescriptionId].overrideBy = overrideBy;\n        prescriptions[prescriptionId].overrideTimestamp = block.timestamp;\n        \n        emit PrescriptionOverridden(\n            prescriptionId,\n            overrideBy,\n            overrideReason,\n            block.timestamp\n        );\n    }\n    \n    /**\n     * @dev Verify a prescription (for pharmacy use)\n     * @param prescriptionId ID of the prescription to verify\n     * @param verifiedBy Identifier of person verifying\n     */\n    function verifyPrescription(\n        uint256 prescriptionId,\n        string memory verifiedBy\n    ) external onlyAuthorized {\n        require(prescriptions[prescriptionId].prescriptionId != 0, \"Prescription not found\");\n        \n        emit PrescriptionVerified(\n            prescriptionId,\n            verifiedBy,\n            block.timestamp\n        );\n    }\n    \n    /**\n     * @dev Get prescription details\n     * @param prescriptionId ID of the prescription\n     */\n    function getPrescription(uint256 prescriptionId) external view returns (\n        uint256 id,\n        string memory patientId,\n        string memory doctorId,\n        string memory pharmacyId,\n        string memory drugName,\n        uint256 quantity,\n        uint256 timestamp,\n        uint8 riskScore,\n        string memory riskFactors,\n        bool isFlagged,\n        bool isOverridden,\n        string memory overrideReason,\n        string memory overrideBy,\n        uint256 overrideTimestamp\n    ) {\n        PrescriptionRecord memory prescription = prescriptions[prescriptionId];\n        return (\n            prescription.prescriptionId,\n            prescription.patientId,\n            prescription.doctorId,\n            prescription.pharmacyId,\n            prescription.drugName,\n            prescription.quantity,\n            prescription.timestamp,\n            prescription.riskScore,\n            prescription.riskFactors,\n            prescription.isFlagged,\n            prescription.isOverridden,\n            prescription.overrideReason,\n            prescription.overrideBy,\n            prescription.overrideTimestamp\n        );\n    }\n    \n    /**\n     * @dev Get all prescriptions for a patient\n     * @param patientId Patient identifier\n     */\n    function getPatientPrescriptions(string memory patientId) external view returns (uint256[] memory) {\n        return patientPrescriptions[patientId];\n    }\n    \n    /**\n     * @dev Get all prescriptions for a doctor\n     * @param doctorId Doctor identifier\n     */\n    function getDoctorPrescriptions(string memory doctorId) external view returns (uint256[] memory) {\n        return doctorPrescriptions[doctorId];\n    }\n    \n    /**\n     * @dev Get all prescriptions for a pharmacy\n     * @param pharmacyId Pharmacy identifier\n     */\n    function getPharmacyPrescriptions(string memory pharmacyId) external view returns (uint256[] memory) {\n        return pharmacyPrescriptions[pharmacyId];\n    }\n    \n    /**\n     * @dev Get total prescription count\n     */\n    function getTotalPrescriptions() external view returns (uint256) {\n        return prescriptionCounter;\n    }\n    \n    /**\n     * @dev Check if prescription is flagged\n     * @param prescriptionId ID of the prescription\n     */\n    function isPrescriptionFlagged(uint256 prescriptionId) external view returns (bool) {\n        return prescriptions[prescriptionId].isFlagged && !prescriptions[prescriptionId].isOverridden;\n    }\n}",
  "sourcePath": "/Users/rukshik/Documents/GitHub/AutoRxAudit/truffle/contracts/PrescriptionAudit.sol",
  "compiler": {
    "name": "solc",
    "version": "0.8.19+commit.7dd6d404.Emscripten.clang"
  },
  "schemaVersion": "3.4.16",
  "updatedAt": "2025-10-14T02:32:21.944Z",
  "devdoc": {
    "author": "AutoRxAudit System",
    "details": "Smart contract for tracking flagged prescriptions and override actions",
    "kind": "dev",
    "methods": {
      "addAuthorizedAuditor(address)": {
        "details": "Add authorized auditor"
      },
      "addAuthorizedDoctor(address)": {
        "details": "Add authorized doctor"
      },
      "addAuthorizedPharmacist(address)": {
        "details": "Add authorized pharmacist"
      },
      "getDoctorPrescriptions(string)": {
        "details": "Get all prescriptions for a doctor",
        "params": {
          "doctorId": "Doctor identifier"
        }
      },
      "getPatientPrescriptions(string)": {
        "details": "Get all prescriptions for a patient",
        "params": {
          "patientId": "Patient identifier"
        }
      },
      "getPharmacyPrescriptions(string)": {
        "details": "Get all prescriptions for a pharmacy",
        "params": {
          "pharmacyId": "Pharmacy identifier"
        }
      },
      "getPrescription(uint256)": {
        "details": "Get prescription details",
        "params": {
          "prescriptionId": "ID of the prescription"
        }
      },
      "getTotalPrescriptions()": {
        "details": "Get total prescription count"
      },
      "isPrescriptionFlagged(uint256)": {
        "details": "Check if prescription is flagged",
        "params": {
          "prescriptionId": "ID of the prescription"
        }
      },
      "overridePrescription(uint256,string,string)": {
        "details": "Override a flagged prescription",
        "params": {
          "overrideBy": "Identifier of person overriding",
          "overrideReason": "Reason for override",
          "prescriptionId": "ID of the prescription to override"
        }
      },
      "recordFlaggedPrescription(string,string,string,string,uint256,uint8,string)": {
        "details": "Record a flagged prescription",
        "params": {
          "doctorId": "Doctor identifier",
          "drugName": "Name of the prescribed drug",
          "patientId": "Patient identifier",
          "pharmacyId": "Pharmacy identifier",
          "quantity": "Quantity prescribed",
          "riskFactors": "JSON string of risk factors",
          "riskScore": "AI-calculated risk score (0-100)"
        }
      },
      "verifyPrescription(uint256,string)": {
        "details": "Verify a prescription (for pharmacy use)",
        "params": {
          "prescriptionId": "ID of the prescription to verify",
          "verifiedBy": "Identifier of person verifying"
        }
      }
    },
    "title": "PrescriptionAuditContract",
    "version": 1
  },
  "userdoc": {
    "kind": "user",
    "methods": {},
    "version": 1
  }
}