{"contracts/PrescriptionAuditContract.sol":{"PrescriptionAuditContract":{"abi":[{"inputs":[],"stateMutability":"nonpayable","type":"constructor"},{"anonymous":false,"inputs":[{"indexed":true,"internalType":"uint256","name":"blockchainId","type":"uint256"},{"indexed":true,"internalType":"uint256","name":"auditId","type":"uint256"},{"indexed":false,"internalType":"uint256","name":"prescriptionId","type":"uint256"},{"indexed":false,"internalType":"string","name":"patientId","type":"string"},{"indexed":false,"internalType":"bool","name":"flagged","type":"bool"},{"indexed":false,"internalType":"uint8","name":"oudRiskScore","type":"uint8"},{"indexed":false,"internalType":"uint256","name":"timestamp","type":"uint256"}],"name":"AuditRecorded","type":"event"},{"anonymous":false,"inputs":[{"indexed":true,"internalType":"uint256","name":"blockchainId","type":"uint256"},{"indexed":true,"internalType":"uint256","name":"auditId","type":"uint256"},{"indexed":false,"internalType":"string","name":"action","type":"string"},{"indexed":false,"internalType":"string","name":"reviewedBy","type":"string"},{"indexed":false,"internalType":"uint256","name":"timestamp","type":"uint256"}],"name":"PharmacistActionRecorded","type":"event"},{"inputs":[{"internalType":"uint256","name":"","type":"uint256"}],"name":"auditIdToBlockchainId","outputs":[{"internalType":"uint256","name":"","type":"uint256"}],"stateMutability":"view","type":"function"},{"inputs":[{"internalType":"uint256","name":"","type":"uint256"}],"name":"auditRecords","outputs":[{"internalType":"uint256","name":"blockchainId","type":"uint256"},{"internalType":"uint256","name":"auditId","type":"uint256"},{"internalType":"uint256","name":"prescriptionId","type":"uint256"},{"internalType":"string","name":"patientId","type":"string"},{"internalType":"string","name":"drugName","type":"string"},{"internalType":"uint8","name":"eligibilityScore","type":"uint8"},{"internalType":"uint8","name":"eligibilityPrediction","type":"uint8"},{"internalType":"uint8","name":"oudRiskScore","type":"uint8"},{"internalType":"uint8","name":"oudRiskPrediction","type":"uint8"},{"internalType":"bool","name":"flagged","type":"bool"},{"internalType":"string","name":"flagReason","type":"string"},{"internalType":"string","name":"recommendation","type":"string"},{"internalType":"uint256","name":"auditedAt","type":"uint256"},{"internalType":"string","name":"reviewedBy","type":"string"},{"internalType":"string","name":"reviewedByName","type":"string"},{"internalType":"string","name":"reviewedByEmail","type":"string"},{"internalType":"string","name":"action","type":"string"},{"internalType":"string","name":"actionReason","type":"string"},{"internalType":"uint256","name":"reviewedAt","type":"uint256"}],"stateMutability":"view","type":"function"},{"inputs":[{"internalType":"uint256","name":"blockchainId","type":"uint256"}],"name":"getAuditRecord","outputs":[{"components":[{"internalType":"uint256","name":"blockchainId","type":"uint256"},{"internalType":"uint256","name":"auditId","type":"uint256"},{"internalType":"uint256","name":"prescriptionId","type":"uint256"},{"internalType":"string","name":"patientId","type":"string"},{"internalType":"string","name":"drugName","type":"string"},{"internalType":"uint8","name":"eligibilityScore","type":"uint8"},{"internalType":"uint8","name":"eligibilityPrediction","type":"uint8"},{"internalType":"uint8","name":"oudRiskScore","type":"uint8"},{"internalType":"uint8","name":"oudRiskPrediction","type":"uint8"},{"internalType":"bool","name":"flagged","type":"bool"},{"internalType":"string","name":"flagReason","type":"string"},{"internalType":"string","name":"recommendation","type":"string"},{"internalType":"uint256","name":"auditedAt","type":"uint256"},{"internalType":"string","name":"reviewedBy","type":"string"},{"internalType":"string","name":"reviewedByName","type":"string"},{"internalType":"string","name":"reviewedByEmail","type":"string"},{"internalType":"string","name":"action","type":"string"},{"internalType":"string","name":"actionReason","type":"string"},{"internalType":"uint256","name":"reviewedAt","type":"uint256"}],"internalType":"struct PrescriptionAuditContract.PrescriptionRecord","name":"","type":"tuple"}],"stateMutability":"view","type":"function"},{"inputs":[{"internalType":"uint256","name":"auditId","type":"uint256"}],"name":"getBlockchainIdByAuditId","outputs":[{"internalType":"uint256","name":"","type":"uint256"}],"stateMutability":"view","type":"function"},{"inputs":[{"internalType":"string","name":"patientId","type":"string"}],"name":"getPatientAudits","outputs":[{"internalType":"uint256[]","name":"","type":"uint256[]"}],"stateMutability":"view","type":"function"},{"inputs":[],"name":"getTotalRecords","outputs":[{"internalType":"uint256","name":"","type":"uint256"}],"stateMutability":"view","type":"function"},{"inputs":[],"name":"owner","outputs":[{"internalType":"address","name":"","type":"address"}],"stateMutability":"view","type":"function"},{"inputs":[{"internalType":"string","name":"","type":"string"},{"internalType":"uint256","name":"","type":"uint256"}],"name":"patientAudits","outputs":[{"internalType":"uint256","name":"","type":"uint256"}],"stateMutability":"view","type":"function"},{"inputs":[{"components":[{"internalType":"uint256","name":"auditId","type":"uint256"},{"internalType":"uint256","name":"prescriptionId","type":"uint256"},{"internalType":"string","name":"patientId","type":"string"},{"internalType":"string","name":"drugName","type":"string"},{"internalType":"uint8","name":"eligibilityScore","type":"uint8"},{"internalType":"uint8","name":"eligibilityPrediction","type":"uint8"},{"internalType":"uint8","name":"oudRiskScore","type":"uint8"},{"internalType":"uint8","name":"oudRiskPrediction","type":"uint8"},{"internalType":"bool","name":"flagged","type":"bool"},{"internalType":"string","name":"flagReason","type":"string"},{"internalType":"string","name":"recommendation","type":"string"}],"internalType":"struct PrescriptionAuditContract.AuditInput","name":"input","type":"tuple"}],"name":"recordAudit","outputs":[{"internalType":"uint256","name":"","type":"uint256"}],"stateMutability":"nonpayable","type":"function"},{"inputs":[],"name":"recordCounter","outputs":[{"internalType":"uint256","name":"","type":"uint256"}],"stateMutability":"view","type":"function"},{"inputs":[{"internalType":"uint256","name":"auditId","type":"uint256"},{"internalType":"string","name":"action","type":"string"},{"internalType":"string","name":"actionReason","type":"string"},{"internalType":"string","name":"reviewedBy","type":"string"},{"internalType":"string","name":"reviewedByName","type":"string"},{"internalType":"string","name":"reviewedByEmail","type":"string"}],"name":"recordPharmacistAction","outputs":[{"internalType":"uint256","name":"","type":"uint256"}],"stateMutability":"nonpayable","type":"function"}],"evm":{"bytecode":{"linkReferences":{},"object":"6080806040523461002d576000600481905580546001600160a01b0319163317905561278f90816100338239f35b600080fdfe608080604052600436101561001357600080fd5b60003560e01c9081630aeacb5e146124a7575080634ac99882146115c357806350ecee1b1461025557806358dda5de146114ec5780637599be5d146114ce578063783b8bd0146111945780638da5cb5b1461116b578063a82cf045146102fb578063bc656a6414610281578063c2099b62146102555763e74e786d1461009857600080fd5b346102505760203660031901126102505760043560005260016020526040600020805490600181015490600281015490600381016100d590612654565b6100e160048301612654565b60058301546100f260068501612654565b6100fe60078601612654565b60088601549061011060098801612654565b9261011d600a8901612654565b9461012a600b8a01612654565b96610137600c8b01612654565b98610144600d8c01612654565b9a600e01549b6040519e8f9e8f9182526020820152604001528c6102606060819201528d0161017291612593565b8c810360808e015261018391612593565b9060ff811660a08d01528060081c60ff1660c08d01528060101c60ff1660e08d01528060181c60ff166101008d015260201c60ff1615156101208c01528a81036101408c01526101d291612593565b8981036101608b01526101e491612593565b906101808901528781036101a08901526101fd91612593565b8681036101c088015261020f91612593565b8581036101e087015261022191612593565b84810361020086015261023391612593565b83810361022085015261024591612593565b906102408301520390f35b600080fd5b346102505760203660031901126102505760043560005260026020526020604060002054604051908152f35b34610250576040366003190112610250576004356001600160401b038111610250576102b190369060040161251a565b6102cd6020602435928160405193828580945193849201612570565b810160038152030190208054821015610250576020916102ec916125ec565b90549060031b1c604051908152f35b3461025057600319602036820112610250576001600160401b03600435116102505761016090600435360301126102505760405161016081018181106001600160401b03821117610ae9576040526004803590810135825260248101356020830152604401356001600160401b0381116102505761038090600436918135010161251a565b6040820152606460043501356001600160401b038111610250576103ab90600436918135010161251a565b60608201526103be6084600435016125b8565b60808201526103d160a4600435016125b8565b60a08201526103e460c4600435016125b8565b60c08201526103f760e4600435016125b8565b60e0820152600435610104013580151590036102505761010460043501356101008201526001600160401b03610124600435013511610250576104453660048035610124810135010161251a565b6101208201526001600160401b03610144600435013511610250576104753660048035610144810135010161251a565b6101408201526104866004546126fa565b809181600455805160208201516040830151606084015160ff60808601511660ff60a08701511660ff60c0880151169160ff60e089015116936101008901511515956101208a0151976101408b01519960206040519e8f906104e7826124c2565b8152015260408d015260608c015260808b015260a08a015260c089015260e088015261010087015261012086015261014085015261016084015242610180840152604051610534816124de565b600081526101a084015260405161054a816124de565b600081526101c0840152604051610560816124de565b600081526101e0840152604051610576816124de565b6000815261020084015260405161058c816124de565b600081526102208401526000610240840152816000526001602052604060002083518155602084015160018201556040840151600282015560608401518051906001600160401b038211610ae95781906105e9600385015461261a565b601f8111611118575b50602090601f83116001146110a65760009261109b575b50508160011b916000199060031b1c19161760038201555b60808401518051906001600160401b038211610ae9578190610646600485015461261a565b601f8111611048575b50602090601f8311600114610fd657600092610fcb575b50508160011b916000199060031b1c19161760048201555b6005810160ff60a08601511681549060c087015162ff000060e089015160101b169061ff0063ff0000006101008b015160181b169364ff000000006101208c0151151560201b169564ffffffffff1916179160081b161717171790556101408401518051906001600160401b038211610ae9578190610700600685015461261a565b601f8111610f78575b50602090601f8311600114610f0657600092610efb575b50508160011b916000199060031b1c19161760068201555b6101608401518051906001600160401b038211610ae957819061075e600785015461261a565b601f8111610ea8575b50602090601f8311600114610e3657600092610e2b575b50508160011b916000199060031b1c19161760078201555b61018084015160088201556101a08401518051906001600160401b038211610ae95781906107c7600985015461261a565b601f8111610dd8575b50602090601f8311600114610d6b57600092610d60575b50508160011b916000199060031b1c19161760098201555b6101c08401518051906001600160401b038211610ae9578190610825600a85015461261a565b601f8111610d0d575b50602090601f8311600114610ca057600092610c95575b50508160011b916000199060031b1c191617600a8201555b6101e08401518051906001600160401b038211610ae9578190610883600b85015461261a565b601f8111610c42575b50602090601f8311600114610bd557600092610bca575b50508160011b916000199060031b1c191617600b8201555b6102008401518051906001600160401b038211610ae95781906108e1600c85015461261a565b601f8111610b77575b50602090601f8311600114610b0a57600092610aff575b50508160011b916000199060031b1c191617600c8201555b6102208401519384516001600160401b038111610ae95761093d600d84015461261a565b95601f8711610aa2575b602096508690601f8311600114610a2e579180600e949261024094600092610a23575b50508160011b916000199060031b1c191617600d8501555b0151910155805160005260028352816040600020556109ad826109a860408401516125c6565b61271f565b817f74e6f14bf089cf15eab9bd2bc8691eecced5c8cf361593b087608d0315e2861d8251928581015160408201519160ff60c0610100830151151592015116610a07604051948594855260a08b86015260a0850190612593565b91604084015260608301524260808301520390a3604051908152f35b01519050898061096a565b90600d8501600052876000209160005b601f1985168110610a8b575092600e94926001926102409583601f19811610610a72575b505050811b01600d850155610982565b015160001960f88460031b161c19169055898080610a62565b919289600181928685015181550194019201610a3e565b600d84016000526020600020601f830160051c810160208410610ae2575b601f890160051c82018110610ad6575050610947565b60008155600101610ac0565b5080610ac0565b634e487b7160e01b600052604160045260246000fd5b015190508680610901565b600c85016000908152602081209350601f198516905b818110610b5f5750908460019594939210610b46575b505050811b01600c820155610919565b015160001960f88460031b161c19169055868080610b36565b92936020600181928786015181550195019301610b20565b909150600c84016000526020600020601f840160051c810160208510610bc3575b90849392915b601f830160051c82018110610bb45750506108ea565b60008155859450600101610b9e565b5080610b98565b0151905086806108a3565b600b85016000908152602081209350601f198516905b818110610c2a5750908460019594939210610c11575b505050811b01600b8201556108bb565b015160001960f88460031b161c19169055868080610c01565b92936020600181928786015181550195019301610beb565b909150600b84016000526020600020601f840160051c810160208510610c8e575b90849392915b601f830160051c82018110610c7f57505061088c565b60008155859450600101610c69565b5080610c63565b015190508680610845565b600a85016000908152602081209350601f198516905b818110610cf55750908460019594939210610cdc575b505050811b01600a82015561085d565b015160001960f88460031b161c19169055868080610ccc565b92936020600181928786015181550195019301610cb6565b909150600a84016000526020600020601f840160051c810160208510610d59575b90849392915b601f830160051c82018110610d4a57505061082e565b60008155859450600101610d34565b5080610d2e565b0151905086806107e7565b600985016000908152602081209350601f198516905b818110610dc05750908460019594939210610da7575b505050811b0160098201556107ff565b015160001960f88460031b161c19169055868080610d97565b92936020600181928786015181550195019301610d81565b909150600984016000526020600020601f840160051c810160208510610e24575b90849392915b601f830160051c82018110610e155750506107d0565b60008155859450600101610dff565b5080610df9565b01519050868061077e565b9250600784016000526020600020906000935b601f1984168510610e8d576001945083601f19811610610e74575b505050811b016007820155610796565b015160001960f88460031b161c19169055868080610e64565b81810151835560209485019460019093019290910190610e49565b909150600784016000526020600020601f840160051c810160208510610ef4575b90849392915b601f830160051c82018110610ee5575050610767565b60008155859450600101610ecf565b5080610ec9565b015190508680610720565b9250600684016000526020600020906000935b601f1984168510610f5d576001945083601f19811610610f44575b505050811b016006820155610738565b015160001960f88460031b161c19169055868080610f34565b81810151835560209485019460019093019290910190610f19565b909150600684016000526020600020601f840160051c810160208510610fc4575b90849392915b601f830160051c82018110610fb5575050610709565b60008155859450600101610f9f565b5080610f99565b015190508680610666565b9250600484016000526020600020906000935b601f198416851061102d576001945083601f19811610611014575b505050811b01600482015561067e565b015160001960f88460031b161c19169055868080611004565b81810151835560209485019460019093019290910190610fe9565b909150600484016000526020600020601f840160051c810160208510611094575b90849392915b601f830160051c8201811061108557505061064f565b6000815585945060010161106f565b5080611069565b015190508680610609565b9250600384016000526020600020906000935b601f19841685106110fd576001945083601f198116106110e4575b505050811b016003820155610621565b015160001960f88460031b161c191690558680806110d4565b818101518355602094850194600190930192909101906110b9565b909150600384016000526020600020601f840160051c810160208510611164575b90849392915b601f830160051c820181106111555750506105f2565b6000815585945060010161113f565b5080611139565b34610250576000366003190112610250576000546040516001600160a01b039091168152602090f35b346102505760203660031901126102505760006102406040516111b6816124c2565b828152826020820152826040820152606080820152606060808201528260a08201528260c08201528260e08201528261010082015282610120820152606061014082015260606101608201528261018082015260606101a082015260606101c082015260606101e08201526060610200820152606061022082015201526004356000526001602052608060606040600020600e60405191611256836124c2565b80548352600181015460208401526002810154604084015261127a60038201612654565b8484015261128a60048201612654565b8584015260ff600582015481811660a0860152818160081c1660c0860152818160101c1660e0860152818160181c1661010086015260201c1615156101208401526112d760068201612654565b6101408401526112e960078201612654565b610160840152600881015461018084015261130660098201612654565b6101a0840152611318600a8201612654565b6101c084015261132a600b8201612654565b6101e084015261133c600c8201612654565b61020084015261134e600d8201612654565b61022084015201546102408201526102406114c16114ab61149361147b61146361143f6114276113ca6113b48a6102606040519e8f9e8f9360208552805160208601526020810151604086015260408101518286015201519201526102808d0190612593565b60808b01518c8203601f190160a08e0152612593565b60ff60a08b01511660c08c015260ff60c08b01511660e08c015260ff60e08b0151166101008c015260ff6101008b0151166101208c01526101208a015115156101408c01526101408a0151601f198c8303016101608d0152612593565b6101608901518a8203601f19016101808c0152612593565b6101808801516101a08a01526101a0880151601f198a8303016101c08b0152612593565b6101c0870151888203601f19016101e08a0152612593565b6101e0860151878203601f1901610200890152612593565b610200850151868203601f1901610220880152612593565b610220840151858203601f190184870152612593565b9101516102608301520390f35b34610250576000366003190112610250576020600454604051908152f35b3461025057602080600319360112610250576004356001600160401b038111610250578161152161153492369060040161251a565b8160405193828580945193849201612570565b8101600381520301902060405190818382549182815201908192600052846000209060005b868282106115af57868661156f828803836124f9565b604051928392818401908285525180915260408401929160005b82811061159857505050500390f35b835185528695509381019392810192600101611589565b835485529093019260019283019201611559565b346102505760c0366003190112610250576024356001600160401b038111610250576115f390369060040161251a565b6044356001600160401b0381116102505761161290369060040161251a565b6064356001600160401b0381116102505761163190369060040161251a565b916084356001600160401b0381116102505761165190369060040161251a565b9160a4356001600160401b0381116102505761167190369060040161251a565b9260043560005260026020526040600020548015612469576000526001602052604060002091604051926116a4846124c2565b8054845260018101546020850152600281015460408501526116c860038201612654565b60608501526116d960048201612654565b6080850152600581015460ff811660a08601528060081c60ff1660c08601528060101c60ff1660e08601528060181c60ff1661010086015260201c60ff1615156101208501526006810161172c90612654565b61014085015261173e60078201612654565b610160850152600881015461018085015261175b60098201612654565b6101a085015261176d600a8201612654565b6101c085015261177f600b8201612654565b6101e0850152611791600c8201612654565b6102008501526117a3600d8201612654565b610220850152600e01546102408401526004546117bf906126fa565b948560045560408401519286856060810151608082015160a083015160ff1660c084015160ff1660e085015160ff169061010086015160ff169261012087015115159461014088015196610160890151986101800151996040519e8f91611825836124c2565b8252600435602083015260408201526060015260808d015260a08c015260c08b015260e08a0152610100890152610120880152610140870152610160860152610180850152876101a08501526101c08401526101e0830152836102008301526102208201524261024082015283600052600160205260406000209080518255602081015160018301556040810151600283015560608101518051906001600160401b038211610ae95781906118dd600386015461261a565b601f8111612416575b50602090601f83116001146123a457600092612399575b50508160011b916000199060031b1c19161760038301555b60808101518051906001600160401b038211610ae957819061193a600486015461261a565b601f8111612346575b50602090601f83116001146122d4576000926122c9575b50508160011b916000199060031b1c19161760048301555b6005820160ff60a08301511681549061ff0060c085015160081b1662ff000060e086015160101b169063ff00000061010087015160181b169264ff00000000610120880151151560201b169464ffffffffff1916171717171790556101408101518051906001600160401b038211610ae95781906119f3600686015461261a565b601f8111612276575b50602090601f8311600114612204576000926121f9575b50508160011b916000199060031b1c19161760068301555b6101608101518051906001600160401b038211610ae9578190611a51600786015461261a565b601f81116121a6575b50602090601f831160011461213457600092612129575b50508160011b916000199060031b1c19161760078301555b61018081015160088301556101a08101518051906001600160401b038211610ae9578190611aba600986015461261a565b601f81116120d6575b50602090601f831160011461206457600092612059575b50508160011b916000199060031b1c19161760098301555b6101c08101518051906001600160401b038211610ae9578190611b18600a86015461261a565b601f8111612006575b50602090601f8311600114611f9457600092611f89575b50508160011b916000199060031b1c191617600a8301555b6101e08101518051906001600160401b038211610ae9578190611b76600b86015461261a565b601f8111611f36575b50602090601f8311600114611ec457600092611eb9575b50508160011b916000199060031b1c191617600b8301555b6102008101518051906001600160401b038211610ae9578190611bd4600c86015461261a565b601f8111611e66575b50602090601f8311600114611df457600092611de9575b50508160011b916000199060031b1c191617600c8301555b6102208101518051906001600160401b038211610ae957611c30600d85015461261a565b601f8111611da2575b509160209793918795938990601f8311600114611cfa57611cd8957fc79f180dba4756bbb3acd7d4dd843a3d11315bb7b5053b532d8a04e3666100bc9795600e610240611cb697878d986109a898606098600092611cef575b50508160011b916000199060031b1c191617600d8501555b015191015501516125c6565b611ccb60405195606087526060870190612593565b9085820388870152612593565b9242604082015280600435940390a3604051908152f35b015190503880611c92565b90600d85016000528a6000209160005b601f1985168110611d885750957fc79f180dba4756bbb3acd7d4dd843a3d11315bb7b5053b532d8a04e3666100bc9795600e610240611cb6976001886109a8988f9a98611cd89e60609a601f19811610611d6f575b505050811b01600d850155611caa565b015160001960f88460031b161c19169055388080611d5f565b8183015184558b9950600190930192918c01918c01611d0a565b600d85016000526020600020601f840160051c810160208510611de2575b601f830160051c82018110611dd6575050611c39565b60008155600101611dc0565b5080611dc0565b015190508880611bf4565b9250600c85016000526020600020906000935b601f1984168510611e4b576001945083601f19811610611e32575b505050811b01600c830155611c0c565b015160001960f88460031b161c19169055888080611e22565b81810151835560209485019460019093019290910190611e07565b909150600c85016000526020600020601f840160051c810160208510611eb2575b90849392915b601f830160051c82018110611ea3575050611bdd565b60008155859450600101611e8d565b5080611e87565b015190508880611b96565b9250600b85016000526020600020906000935b601f1984168510611f1b576001945083601f19811610611f02575b505050811b01600b830155611bae565b015160001960f88460031b161c19169055888080611ef2565b81810151835560209485019460019093019290910190611ed7565b909150600b85016000526020600020601f840160051c810160208510611f82575b90849392915b601f830160051c82018110611f73575050611b7f565b60008155859450600101611f5d565b5080611f57565b015190508880611b38565b9250600a85016000526020600020906000935b601f1984168510611feb576001945083601f19811610611fd2575b505050811b01600a830155611b50565b015160001960f88460031b161c19169055888080611fc2565b81810151835560209485019460019093019290910190611fa7565b909150600a85016000526020600020601f840160051c810160208510612052575b90849392915b601f830160051c82018110612043575050611b21565b6000815585945060010161202d565b5080612027565b015190508880611ada565b9250600985016000526020600020906000935b601f19841685106120bb576001945083601f198116106120a2575b505050811b016009830155611af2565b015160001960f88460031b161c19169055888080612092565b81810151835560209485019460019093019290910190612077565b909150600985016000526020600020601f840160051c810160208510612122575b90849392915b601f830160051c82018110612113575050611ac3565b600081558594506001016120fd565b50806120f7565b015190508880611a71565b9250600785016000526020600020906000935b601f198416851061218b576001945083601f19811610612172575b505050811b016007830155611a89565b015160001960f88460031b161c19169055888080612162565b81810151835560209485019460019093019290910190612147565b909150600785016000526020600020601f840160051c8101602085106121f2575b90849392915b601f830160051c820181106121e3575050611a5a565b600081558594506001016121cd565b50806121c7565b015190508880611a13565b9250600685016000526020600020906000935b601f198416851061225b576001945083601f19811610612242575b505050811b016006830155611a2b565b015160001960f88460031b161c19169055888080612232565b81810151835560209485019460019093019290910190612217565b909150600685016000526020600020601f840160051c8101602085106122c2575b90849392915b601f830160051c820181106122b35750506119fc565b6000815585945060010161229d565b5080612297565b01519050888061195a565b9250600485016000526020600020906000935b601f198416851061232b576001945083601f19811610612312575b505050811b016004830155611972565b015160001960f88460031b161c19169055888080612302565b818101518355602094850194600190930192909101906122e7565b909150600485016000526020600020601f840160051c810160208510612392575b90849392915b601f830160051c82018110612383575050611943565b6000815585945060010161236d565b5080612367565b0151905088806118fd565b9250600385016000526020600020906000935b601f19841685106123fb576001945083601f198116106123e2575b505050811b016003830155611915565b015160001960f88460031b161c191690558880806123d2565b818101518355602094850194600190930192909101906123b7565b909150600385016000526020600020601f840160051c810160208510612462575b90849392915b601f830160051c820181106124535750506118e6565b6000815585945060010161243d565b5080612437565b60405162461bcd60e51b8152602060048201526016602482015275105d591a5d081c9958dbdc99081b9bdd08199bdd5b9960521b6044820152606490fd5b34610250576000366003190112610250576020906004548152f35b61026081019081106001600160401b03821117610ae957604052565b602081019081106001600160401b03821117610ae957604052565b90601f801991011681019081106001600160401b03821117610ae957604052565b81601f82011215610250578035906001600160401b038211610ae9576040519261254e601f8401601f1916602001856124f9565b8284526020838301011161025057816000926020809301838601378301015290565b60005b8381106125835750506000910152565b8181015183820152602001612573565b906020916125ac81518092818552858086019101612570565b601f01601f1916010190565b359060ff8216820361025057565b60206125df918160405193828580945193849201612570565b8101600381520301902090565b80548210156126045760005260206000200190600090565b634e487b7160e01b600052603260045260246000fd5b90600182811c9216801561264a575b602083101461263457565b634e487b7160e01b600052602260045260246000fd5b91607f1691612629565b90604051918260008254926126688461261a565b9081845260019485811690816000146126d75750600114612694575b5050612692925003836124f9565b565b9093915060005260209081600020936000915b8183106126bf57505061269293508201013880612684565b855488840185015294850194879450918301916126a7565b91505061269294506020925060ff191682840152151560051b8201013880612684565b60001981146127095760010190565b634e487b7160e01b600052601160045260246000fd5b805468010000000000000000811015610ae957612741916001820181556125ec565b819291549060031b91821b91600019901b191617905556fea2646970667358221220dbf1aa1f0b6e2346db8b4ac6d41bba4610ff57191f43abe9464e20a8f6da6b3b64736f6c63430008130033","opcodes":"PUSH1 0x80 DUP1 PUSH1 0x40 MSTORE CALLVALUE PUSH2 0x2D JUMPI PUSH1 0x0 PUSH1 0x4 DUP2 SWAP1 SSTORE DUP1 SLOAD PUSH1 0x1 PUSH1 0x1 PUSH1 0xA0 SHL SUB NOT AND CALLER OR SWAP1 SSTORE PUSH2 0x278F SWAP1 DUP2 PUSH2 0x33 DUP3 CODECOPY RETURN JUMPDEST PUSH1 0x0 DUP1 REVERT INVALID PUSH1 0x80 DUP1 PUSH1 0x40 MSTORE PUSH1 0x4 CALLDATASIZE LT ISZERO PUSH2 0x13 JUMPI PUSH1 0x0 DUP1 REVERT JUMPDEST PUSH1 0x0 CALLDATALOAD PUSH1 0xE0 SHR SWAP1 DUP2 PUSH4 0xAEACB5E EQ PUSH2 0x24A7 JUMPI POP DUP1 PUSH4 0x4AC99882 EQ PUSH2 0x15C3 JUMPI DUP1 PUSH4 0x50ECEE1B EQ PUSH2 0x255 JUMPI DUP1 PUSH4 0x58DDA5DE EQ PUSH2 0x14EC JUMPI DUP1 PUSH4 0x7599BE5D EQ PUSH2 0x14CE JUMPI DUP1 PUSH4 0x783B8BD0 EQ PUSH2 0x1194 JUMPI DUP1 PUSH4 0x8DA5CB5B EQ PUSH2 0x116B JUMPI DUP1 PUSH4 0xA82CF045 EQ PUSH2 0x2FB JUMPI DUP1 PUSH4 0xBC656A64 EQ PUSH2 0x281 JUMPI DUP1 PUSH4 0xC2099B62 EQ PUSH2 0x255 JUMPI PUSH4 0xE74E786D EQ PUSH2 0x98 JUMPI PUSH1 0x0 DUP1 REVERT JUMPDEST CALLVALUE PUSH2 0x250 JUMPI PUSH1 0x20 CALLDATASIZE PUSH1 0x3 NOT ADD SLT PUSH2 0x250 JUMPI PUSH1 0x4 CALLDATALOAD PUSH1 0x0 MSTORE PUSH1 0x1 PUSH1 0x20 MSTORE PUSH1 0x40 PUSH1 0x0 KECCAK256 DUP1 SLOAD SWAP1 PUSH1 0x1 DUP2 ADD SLOAD SWAP1 PUSH1 0x2 DUP2 ADD SLOAD SWAP1 PUSH1 0x3 DUP2 ADD PUSH2 0xD5 SWAP1 PUSH2 0x2654 JUMP JUMPDEST PUSH2 0xE1 PUSH1 0x4 DUP4 ADD PUSH2 0x2654 JUMP JUMPDEST PUSH1 0x5 DUP4 ADD SLOAD PUSH2 0xF2 PUSH1 0x6 DUP6 ADD PUSH2 0x2654 JUMP JUMPDEST PUSH2 0xFE PUSH1 0x7 DUP7 ADD PUSH2 0x2654 JUMP JUMPDEST PUSH1 0x8 DUP7 ADD SLOAD SWAP1 PUSH2 0x110 PUSH1 0x9 DUP9 ADD PUSH2 0x2654 JUMP JUMPDEST SWAP3 PUSH2 0x11D PUSH1 0xA DUP10 ADD PUSH2 0x2654 JUMP JUMPDEST SWAP5 PUSH2 0x12A PUSH1 0xB DUP11 ADD PUSH2 0x2654 JUMP JUMPDEST SWAP7 PUSH2 0x137 PUSH1 0xC DUP12 ADD PUSH2 0x2654 JUMP JUMPDEST SWAP9 PUSH2 0x144 PUSH1 0xD DUP13 ADD PUSH2 0x2654 JUMP JUMPDEST SWAP11 PUSH1 0xE ADD SLOAD SWAP12 PUSH1 0x40 MLOAD SWAP15 DUP16 SWAP15 DUP16 SWAP2 DUP3 MSTORE PUSH1 0x20 DUP3 ADD MSTORE PUSH1 0x40 ADD MSTORE DUP13 PUSH2 0x260 PUSH1 0x60 DUP2 SWAP3 ADD MSTORE DUP14 ADD PUSH2 0x172 SWAP2 PUSH2 0x2593 JUMP JUMPDEST DUP13 DUP2 SUB PUSH1 0x80 DUP15 ADD MSTORE PUSH2 0x183 SWAP2 PUSH2 0x2593 JUMP JUMPDEST SWAP1 PUSH1 0xFF DUP2 AND PUSH1 0xA0 DUP14 ADD MSTORE DUP1 PUSH1 0x8 SHR PUSH1 0xFF AND PUSH1 0xC0 DUP14 ADD MSTORE DUP1 PUSH1 0x10 SHR PUSH1 0xFF AND PUSH1 0xE0 DUP14 ADD MSTORE DUP1 PUSH1 0x18 SHR PUSH1 0xFF AND PUSH2 0x100 DUP14 ADD MSTORE PUSH1 0x20 SHR PUSH1 0xFF AND ISZERO ISZERO PUSH2 0x120 DUP13 ADD MSTORE DUP11 DUP2 SUB PUSH2 0x140 DUP13 ADD MSTORE PUSH2 0x1D2 SWAP2 PUSH2 0x2593 JUMP JUMPDEST DUP10 DUP2 SUB PUSH2 0x160 DUP12 ADD MSTORE PUSH2 0x1E4 SWAP2 PUSH2 0x2593 JUMP JUMPDEST SWAP1 PUSH2 0x180 DUP10 ADD MSTORE DUP8 DUP2 SUB PUSH2 0x1A0 DUP10 ADD MSTORE PUSH2 0x1FD SWAP2 PUSH2 0x2593 JUMP JUMPDEST DUP7 DUP2 SUB PUSH2 0x1C0 DUP9 ADD MSTORE PUSH2 0x20F SWAP2 PUSH2 0x2593 JUMP JUMPDEST DUP6 DUP2 SUB PUSH2 0x1E0 DUP8 ADD MSTORE PUSH2 0x221 SWAP2 PUSH2 0x2593 JUMP JUMPDEST DUP5 DUP2 SUB PUSH2 0x200 DUP7 ADD MSTORE PUSH2 0x233 SWAP2 PUSH2 0x2593 JUMP JUMPDEST DUP4 DUP2 SUB PUSH2 0x220 DUP6 ADD MSTORE PUSH2 0x245 SWAP2 PUSH2 0x2593 JUMP JUMPDEST SWAP1 PUSH2 0x240 DUP4 ADD MSTORE SUB SWAP1 RETURN JUMPDEST PUSH1 0x0 DUP1 REVERT JUMPDEST CALLVALUE PUSH2 0x250 JUMPI PUSH1 0x20 CALLDATASIZE PUSH1 0x3 NOT ADD SLT PUSH2 0x250 JUMPI PUSH1 0x4 CALLDATALOAD PUSH1 0x0 MSTORE PUSH1 0x2 PUSH1 0x20 MSTORE PUSH1 0x20 PUSH1 0x40 PUSH1 0x0 KECCAK256 SLOAD PUSH1 0x40 MLOAD SWAP1 DUP2 MSTORE RETURN JUMPDEST CALLVALUE PUSH2 0x250 JUMPI PUSH1 0x40 CALLDATASIZE PUSH1 0x3 NOT ADD SLT PUSH2 0x250 JUMPI PUSH1 0x4 CALLDATALOAD PUSH1 0x1 PUSH1 0x1 PUSH1 0x40 SHL SUB DUP2 GT PUSH2 0x250 JUMPI PUSH2 0x2B1 SWAP1 CALLDATASIZE SWAP1 PUSH1 0x4 ADD PUSH2 0x251A JUMP JUMPDEST PUSH2 0x2CD PUSH1 0x20 PUSH1 0x24 CALLDATALOAD SWAP3 DUP2 PUSH1 0x40 MLOAD SWAP4 DUP3 DUP6 DUP1 SWAP5 MLOAD SWAP4 DUP5 SWAP3 ADD PUSH2 0x2570 JUMP JUMPDEST DUP2 ADD PUSH1 0x3 DUP2 MSTORE SUB ADD SWAP1 KECCAK256 DUP1 SLOAD DUP3 LT ISZERO PUSH2 0x250 JUMPI PUSH1 0x20 SWAP2 PUSH2 0x2EC SWAP2 PUSH2 0x25EC JUMP JUMPDEST SWAP1 SLOAD SWAP1 PUSH1 0x3 SHL SHR PUSH1 0x40 MLOAD SWAP1 DUP2 MSTORE RETURN JUMPDEST CALLVALUE PUSH2 0x250 JUMPI PUSH1 0x3 NOT PUSH1 0x20 CALLDATASIZE DUP3 ADD SLT PUSH2 0x250 JUMPI PUSH1 0x1 PUSH1 0x1 PUSH1 0x40 SHL SUB PUSH1 0x4 CALLDATALOAD GT PUSH2 0x250 JUMPI PUSH2 0x160 SWAP1 PUSH1 0x4 CALLDATALOAD CALLDATASIZE SUB ADD SLT PUSH2 0x250 JUMPI PUSH1 0x40 MLOAD PUSH2 0x160 DUP2 ADD DUP2 DUP2 LT PUSH1 0x1 PUSH1 0x1 PUSH1 0x40 SHL SUB DUP3 GT OR PUSH2 0xAE9 JUMPI PUSH1 0x40 MSTORE PUSH1 0x4 DUP1 CALLDATALOAD SWAP1 DUP2 ADD CALLDATALOAD DUP3 MSTORE PUSH1 0x24 DUP2 ADD CALLDATALOAD PUSH1 0x20 DUP4 ADD MSTORE PUSH1 0x44 ADD CALLDATALOAD PUSH1 0x1 PUSH1 0x1 PUSH1 0x40 SHL SUB DUP2 GT PUSH2 0x250 JUMPI PUSH2 0x380 SWAP1 PUSH1 0x4 CALLDATASIZE SWAP2 DUP2 CALLDATALOAD ADD ADD PUSH2 0x251A JUMP JUMPDEST PUSH1 0x40 DUP3 ADD MSTORE PUSH1 0x64 PUSH1 0x4 CALLDATALOAD ADD CALLDATALOAD PUSH1 0x1 PUSH1 0x1 PUSH1 0x40 SHL SUB DUP2 GT PUSH2 0x250 JUMPI PUSH2 0x3AB SWAP1 PUSH1 0x4 CALLDATASIZE SWAP2 DUP2 CALLDATALOAD ADD ADD PUSH2 0x251A JUMP JUMPDEST PUSH1 0x60 DUP3 ADD MSTORE PUSH2 0x3BE PUSH1 0x84 PUSH1 0x4 CALLDATALOAD ADD PUSH2 0x25B8 JUMP JUMPDEST PUSH1 0x80 DUP3 ADD MSTORE PUSH2 0x3D1 PUSH1 0xA4 PUSH1 0x4 CALLDATALOAD ADD PUSH2 0x25B8 JUMP JUMPDEST PUSH1 0xA0 DUP3 ADD MSTORE PUSH2 0x3E4 PUSH1 0xC4 PUSH1 0x4 CALLDATALOAD ADD PUSH2 0x25B8 JUMP JUMPDEST PUSH1 0xC0 DUP3 ADD MSTORE PUSH2 0x3F7 PUSH1 0xE4 PUSH1 0x4 CALLDATALOAD ADD PUSH2 0x25B8 JUMP JUMPDEST PUSH1 0xE0 DUP3 ADD MSTORE PUSH1 0x4 CALLDATALOAD PUSH2 0x104 ADD CALLDATALOAD DUP1 ISZERO ISZERO SWAP1 SUB PUSH2 0x250 JUMPI PUSH2 0x104 PUSH1 0x4 CALLDATALOAD ADD CALLDATALOAD PUSH2 0x100 DUP3 ADD MSTORE PUSH1 0x1 PUSH1 0x1 PUSH1 0x40 SHL SUB PUSH2 0x124 PUSH1 0x4 CALLDATALOAD ADD CALLDATALOAD GT PUSH2 0x250 JUMPI PUSH2 0x445 CALLDATASIZE PUSH1 0x4 DUP1 CALLDATALOAD PUSH2 0x124 DUP2 ADD CALLDATALOAD ADD ADD PUSH2 0x251A JUMP JUMPDEST PUSH2 0x120 DUP3 ADD MSTORE PUSH1 0x1 PUSH1 0x1 PUSH1 0x40 SHL SUB PUSH2 0x144 PUSH1 0x4 CALLDATALOAD ADD CALLDATALOAD GT PUSH2 0x250 JUMPI PUSH2 0x475 CALLDATASIZE PUSH1 0x4 DUP1 CALLDATALOAD PUSH2 0x144 DUP2 ADD CALLDATALOAD ADD ADD PUSH2 0x251A JUMP JUMPDEST PUSH2 0x140 DUP3 ADD MSTORE PUSH2 0x486 PUSH1 0x4 SLOAD PUSH2 0x26FA JUMP JUMPDEST DUP1 SWAP2 DUP2 PUSH1 0x4 SSTORE DUP1 MLOAD PUSH1 0x20 DUP3 ADD MLOAD PUSH1 0x40 DUP4 ADD MLOAD PUSH1 0x60 DUP5 ADD MLOAD PUSH1 0xFF PUSH1 0x80 DUP7 ADD MLOAD AND PUSH1 0xFF PUSH1 0xA0 DUP8 ADD MLOAD AND PUSH1 0xFF PUSH1 0xC0 DUP9 ADD MLOAD AND SWAP2 PUSH1 0xFF PUSH1 0xE0 DUP10 ADD MLOAD AND SWAP4 PUSH2 0x100 DUP10 ADD MLOAD ISZERO ISZERO SWAP6 PUSH2 0x120 DUP11 ADD MLOAD SWAP8 PUSH2 0x140 DUP12 ADD MLOAD SWAP10 PUSH1 0x20 PUSH1 0x40 MLOAD SWAP15 DUP16 SWAP1 PUSH2 0x4E7 DUP3 PUSH2 0x24C2 JUMP JUMPDEST DUP2 MSTORE ADD MSTORE PUSH1 0x40 DUP14 ADD MSTORE PUSH1 0x60 DUP13 ADD MSTORE PUSH1 0x80 DUP12 ADD MSTORE PUSH1 0xA0 DUP11 ADD MSTORE PUSH1 0xC0 DUP10 ADD MSTORE PUSH1 0xE0 DUP9 ADD MSTORE PUSH2 0x100 DUP8 ADD MSTORE PUSH2 0x120 DUP7 ADD MSTORE PUSH2 0x140 DUP6 ADD MSTORE PUSH2 0x160 DUP5 ADD MSTORE TIMESTAMP PUSH2 0x180 DUP5 ADD MSTORE PUSH1 0x40 MLOAD PUSH2 0x534 DUP2 PUSH2 0x24DE JUMP JUMPDEST PUSH1 0x0 DUP2 MSTORE PUSH2 0x1A0 DUP5 ADD MSTORE PUSH1 0x40 MLOAD PUSH2 0x54A DUP2 PUSH2 0x24DE JUMP JUMPDEST PUSH1 0x0 DUP2 MSTORE PUSH2 0x1C0 DUP5 ADD MSTORE PUSH1 0x40 MLOAD PUSH2 0x560 DUP2 PUSH2 0x24DE JUMP JUMPDEST PUSH1 0x0 DUP2 MSTORE PUSH2 0x1E0 DUP5 ADD MSTORE PUSH1 0x40 MLOAD PUSH2 0x576 DUP2 PUSH2 0x24DE JUMP JUMPDEST PUSH1 0x0 DUP2 MSTORE PUSH2 0x200 DUP5 ADD MSTORE PUSH1 0x40 MLOAD PUSH2 0x58C DUP2 PUSH2 0x24DE JUMP JUMPDEST PUSH1 0x0 DUP2 MSTORE PUSH2 0x220 DUP5 ADD MSTORE PUSH1 0x0 PUSH2 0x240 DUP5 ADD MSTORE DUP2 PUSH1 0x0 MSTORE PUSH1 0x1 PUSH1 0x20 MSTORE PUSH1 0x40 PUSH1 0x0 KECCAK256 DUP4 MLOAD DUP2 SSTORE PUSH1 0x20 DUP5 ADD MLOAD PUSH1 0x1 DUP3 ADD SSTORE PUSH1 0x40 DUP5 ADD MLOAD PUSH1 0x2 DUP3 ADD SSTORE PUSH1 0x60 DUP5 ADD MLOAD DUP1 MLOAD SWAP1 PUSH1 0x1 PUSH1 0x1 PUSH1 0x40 SHL SUB DUP3 GT PUSH2 0xAE9 JUMPI DUP2 SWAP1 PUSH2 0x5E9 PUSH1 0x3 DUP6 ADD SLOAD PUSH2 0x261A JUMP JUMPDEST PUSH1 0x1F DUP2 GT PUSH2 0x1118 JUMPI JUMPDEST POP PUSH1 0x20 SWAP1 PUSH1 0x1F DUP4 GT PUSH1 0x1 EQ PUSH2 0x10A6 JUMPI PUSH1 0x0 SWAP3 PUSH2 0x109B JUMPI JUMPDEST POP POP DUP2 PUSH1 0x1 SHL SWAP2 PUSH1 0x0 NOT SWAP1 PUSH1 0x3 SHL SHR NOT AND OR PUSH1 0x3 DUP3 ADD SSTORE JUMPDEST PUSH1 0x80 DUP5 ADD MLOAD DUP1 MLOAD SWAP1 PUSH1 0x1 PUSH1 0x1 PUSH1 0x40 SHL SUB DUP3 GT PUSH2 0xAE9 JUMPI DUP2 SWAP1 PUSH2 0x646 PUSH1 0x4 DUP6 ADD SLOAD PUSH2 0x261A JUMP JUMPDEST PUSH1 0x1F DUP2 GT PUSH2 0x1048 JUMPI JUMPDEST POP PUSH1 0x20 SWAP1 PUSH1 0x1F DUP4 GT PUSH1 0x1 EQ PUSH2 0xFD6 JUMPI PUSH1 0x0 SWAP3 PUSH2 0xFCB JUMPI JUMPDEST POP POP DUP2 PUSH1 0x1 SHL SWAP2 PUSH1 0x0 NOT SWAP1 PUSH1 0x3 SHL SHR NOT AND OR PUSH1 0x4 DUP3 ADD SSTORE JUMPDEST PUSH1 0x5 DUP2 ADD PUSH1 0xFF PUSH1 0xA0 DUP7 ADD MLOAD AND DUP2 SLOAD SWAP1 PUSH1 0xC0 DUP8 ADD MLOAD PUSH3 0xFF0000 PUSH1 0xE0 DUP10 ADD MLOAD PUSH1 0x10 SHL AND SWAP1 PUSH2 0xFF00 PUSH4 0xFF000000 PUSH2 0x100 DUP12 ADD MLOAD PUSH1 0x18 SHL AND SWAP4 PUSH5 0xFF00000000 PUSH2 0x120 DUP13 ADD MLOAD ISZERO ISZERO PUSH1 0x20 SHL AND SWAP6 PUSH5 0xFFFFFFFFFF NOT AND OR SWAP2 PUSH1 0x8 SHL AND OR OR OR OR SWAP1 SSTORE PUSH2 0x140 DUP5 ADD MLOAD DUP1 MLOAD SWAP1 PUSH1 0x1 PUSH1 0x1 PUSH1 0x40 SHL SUB DUP3 GT PUSH2 0xAE9 JUMPI DUP2 SWAP1 PUSH2 0x700 PUSH1 0x6 DUP6 ADD SLOAD PUSH2 0x261A JUMP JUMPDEST PUSH1 0x1F DUP2 GT PUSH2 0xF78 JUMPI JUMPDEST POP PUSH1 0x20 SWAP1 PUSH1 0x1F DUP4 GT PUSH1 0x1 EQ PUSH2 0xF06 JUMPI PUSH1 0x0 SWAP3 PUSH2 0xEFB JUMPI JUMPDEST POP POP DUP2 PUSH1 0x1 SHL SWAP2 PUSH1 0x0 NOT SWAP1 PUSH1 0x3 SHL SHR NOT AND OR PUSH1 0x6 DUP3 ADD SSTORE JUMPDEST PUSH2 0x160 DUP5 ADD MLOAD DUP1 MLOAD SWAP1 PUSH1 0x1 PUSH1 0x1 PUSH1 0x40 SHL SUB DUP3 GT PUSH2 0xAE9 JUMPI DUP2 SWAP1 PUSH2 0x75E PUSH1 0x7 DUP6 ADD SLOAD PUSH2 0x261A JUMP JUMPDEST PUSH1 0x1F DUP2 GT PUSH2 0xEA8 JUMPI JUMPDEST POP PUSH1 0x20 SWAP1 PUSH1 0x1F DUP4 GT PUSH1 0x1 EQ PUSH2 0xE36 JUMPI PUSH1 0x0 SWAP3 PUSH2 0xE2B JUMPI JUMPDEST POP POP DUP2 PUSH1 0x1 SHL SWAP2 PUSH1 0x0 NOT SWAP1 PUSH1 0x3 SHL SHR NOT AND OR PUSH1 0x7 DUP3 ADD SSTORE JUMPDEST PUSH2 0x180 DUP5 ADD MLOAD PUSH1 0x8 DUP3 ADD SSTORE PUSH2 0x1A0 DUP5 ADD MLOAD DUP1 MLOAD SWAP1 PUSH1 0x1 PUSH1 0x1 PUSH1 0x40 SHL SUB DUP3 GT PUSH2 0xAE9 JUMPI DUP2 SWAP1 PUSH2 0x7C7 PUSH1 0x9 DUP6 ADD SLOAD PUSH2 0x261A JUMP JUMPDEST PUSH1 0x1F DUP2 GT PUSH2 0xDD8 JUMPI JUMPDEST POP PUSH1 0x20 SWAP1 PUSH1 0x1F DUP4 GT PUSH1 0x1 EQ PUSH2 0xD6B JUMPI PUSH1 0x0 SWAP3 PUSH2 0xD60 JUMPI JUMPDEST POP POP DUP2 PUSH1 0x1 SHL SWAP2 PUSH1 0x0 NOT SWAP1 PUSH1 0x3 SHL SHR NOT AND OR PUSH1 0x9 DUP3 ADD SSTORE JUMPDEST PUSH2 0x1C0 DUP5 ADD MLOAD DUP1 MLOAD SWAP1 PUSH1 0x1 PUSH1 0x1 PUSH1 0x40 SHL SUB DUP3 GT PUSH2 0xAE9 JUMPI DUP2 SWAP1 PUSH2 0x825 PUSH1 0xA DUP6 ADD SLOAD PUSH2 0x261A JUMP JUMPDEST PUSH1 0x1F DUP2 GT PUSH2 0xD0D JUMPI JUMPDEST POP PUSH1 0x20 SWAP1 PUSH1 0x1F DUP4 GT PUSH1 0x1 EQ PUSH2 0xCA0 JUMPI PUSH1 0x0 SWAP3 PUSH2 0xC95 JUMPI JUMPDEST POP POP DUP2 PUSH1 0x1 SHL SWAP2 PUSH1 0x0 NOT SWAP1 PUSH1 0x3 SHL SHR NOT AND OR PUSH1 0xA DUP3 ADD SSTORE JUMPDEST PUSH2 0x1E0 DUP5 ADD MLOAD DUP1 MLOAD SWAP1 PUSH1 0x1 PUSH1 0x1 PUSH1 0x40 SHL SUB DUP3 GT PUSH2 0xAE9 JUMPI DUP2 SWAP1 PUSH2 0x883 PUSH1 0xB DUP6 ADD SLOAD PUSH2 0x261A JUMP JUMPDEST PUSH1 0x1F DUP2 GT PUSH2 0xC42 JUMPI JUMPDEST POP PUSH1 0x20 SWAP1 PUSH1 0x1F DUP4 GT PUSH1 0x1 EQ PUSH2 0xBD5 JUMPI PUSH1 0x0 SWAP3 PUSH2 0xBCA JUMPI JUMPDEST POP POP DUP2 PUSH1 0x1 SHL SWAP2 PUSH1 0x0 NOT SWAP1 PUSH1 0x3 SHL SHR NOT AND OR PUSH1 0xB DUP3 ADD SSTORE JUMPDEST PUSH2 0x200 DUP5 ADD MLOAD DUP1 MLOAD SWAP1 PUSH1 0x1 PUSH1 0x1 PUSH1 0x40 SHL SUB DUP3 GT PUSH2 0xAE9 JUMPI DUP2 SWAP1 PUSH2 0x8E1 PUSH1 0xC DUP6 ADD SLOAD PUSH2 0x261A JUMP JUMPDEST PUSH1 0x1F DUP2 GT PUSH2 0xB77 JUMPI JUMPDEST POP PUSH1 0x20 SWAP1 PUSH1 0x1F DUP4 GT PUSH1 0x1 EQ PUSH2 0xB0A JUMPI PUSH1 0x0 SWAP3 PUSH2 0xAFF JUMPI JUMPDEST POP POP DUP2 PUSH1 0x1 SHL SWAP2 PUSH1 0x0 NOT SWAP1 PUSH1 0x3 SHL SHR NOT AND OR PUSH1 0xC DUP3 ADD SSTORE JUMPDEST PUSH2 0x220 DUP5 ADD MLOAD SWAP4 DUP5 MLOAD PUSH1 0x1 PUSH1 0x1 PUSH1 0x40 SHL SUB DUP2 GT PUSH2 0xAE9 JUMPI PUSH2 0x93D PUSH1 0xD DUP5 ADD SLOAD PUSH2 0x261A JUMP JUMPDEST SWAP6 PUSH1 0x1F DUP8 GT PUSH2 0xAA2 JUMPI JUMPDEST PUSH1 0x20 SWAP7 POP DUP7 SWAP1 PUSH1 0x1F DUP4 GT PUSH1 0x1 EQ PUSH2 0xA2E JUMPI SWAP2 DUP1 PUSH1 0xE SWAP5 SWAP3 PUSH2 0x240 SWAP5 PUSH1 0x0 SWAP3 PUSH2 0xA23 JUMPI JUMPDEST POP POP DUP2 PUSH1 0x1 SHL SWAP2 PUSH1 0x0 NOT SWAP1 PUSH1 0x3 SHL SHR NOT AND OR PUSH1 0xD DUP6 ADD SSTORE JUMPDEST ADD MLOAD SWAP2 ADD SSTORE DUP1 MLOAD PUSH1 0x0 MSTORE PUSH1 0x2 DUP4 MSTORE DUP2 PUSH1 0x40 PUSH1 0x0 KECCAK256 SSTORE PUSH2 0x9AD DUP3 PUSH2 0x9A8 PUSH1 0x40 DUP5 ADD MLOAD PUSH2 0x25C6 JUMP JUMPDEST PUSH2 0x271F JUMP JUMPDEST DUP2 PUSH32 0x74E6F14BF089CF15EAB9BD2BC8691EECCED5C8CF361593B087608D0315E2861D DUP3 MLOAD SWAP3 DUP6 DUP2 ADD MLOAD PUSH1 0x40 DUP3 ADD MLOAD SWAP2 PUSH1 0xFF PUSH1 0xC0 PUSH2 0x100 DUP4 ADD MLOAD ISZERO ISZERO SWAP3 ADD MLOAD AND PUSH2 0xA07 PUSH1 0x40 MLOAD SWAP5 DUP6 SWAP5 DUP6 MSTORE PUSH1 0xA0 DUP12 DUP7 ADD MSTORE PUSH1 0xA0 DUP6 ADD SWAP1 PUSH2 0x2593 JUMP JUMPDEST SWAP2 PUSH1 0x40 DUP5 ADD MSTORE PUSH1 0x60 DUP4 ADD MSTORE TIMESTAMP PUSH1 0x80 DUP4 ADD MSTORE SUB SWAP1 LOG3 PUSH1 0x40 MLOAD SWAP1 DUP2 MSTORE RETURN JUMPDEST ADD MLOAD SWAP1 POP DUP10 DUP1 PUSH2 0x96A JUMP JUMPDEST SWAP1 PUSH1 0xD DUP6 ADD PUSH1 0x0 MSTORE DUP8 PUSH1 0x0 KECCAK256 SWAP2 PUSH1 0x0 JUMPDEST PUSH1 0x1F NOT DUP6 AND DUP2 LT PUSH2 0xA8B JUMPI POP SWAP3 PUSH1 0xE SWAP5 SWAP3 PUSH1 0x1 SWAP3 PUSH2 0x240 SWAP6 DUP4 PUSH1 0x1F NOT DUP2 AND LT PUSH2 0xA72 JUMPI JUMPDEST POP POP POP DUP2 SHL ADD PUSH1 0xD DUP6 ADD SSTORE PUSH2 0x982 JUMP JUMPDEST ADD MLOAD PUSH1 0x0 NOT PUSH1 0xF8 DUP5 PUSH1 0x3 SHL AND SHR NOT AND SWAP1 SSTORE DUP10 DUP1 DUP1 PUSH2 0xA62 JUMP JUMPDEST SWAP2 SWAP3 DUP10 PUSH1 0x1 DUP2 SWAP3 DUP7 DUP6 ADD MLOAD DUP2 SSTORE ADD SWAP5 ADD SWAP3 ADD PUSH2 0xA3E JUMP JUMPDEST PUSH1 0xD DUP5 ADD PUSH1 0x0 MSTORE PUSH1 0x20 PUSH1 0x0 KECCAK256 PUSH1 0x1F DUP4 ADD PUSH1 0x5 SHR DUP2 ADD PUSH1 0x20 DUP5 LT PUSH2 0xAE2 JUMPI JUMPDEST PUSH1 0x1F DUP10 ADD PUSH1 0x5 SHR DUP3 ADD DUP2 LT PUSH2 0xAD6 JUMPI POP POP PUSH2 0x947 JUMP JUMPDEST PUSH1 0x0 DUP2 SSTORE PUSH1 0x1 ADD PUSH2 0xAC0 JUMP JUMPDEST POP DUP1 PUSH2 0xAC0 JUMP JUMPDEST PUSH4 0x4E487B71 PUSH1 0xE0 SHL PUSH1 0x0 MSTORE PUSH1 0x41 PUSH1 0x4 MSTORE PUSH1 0x24 PUSH1 0x0 REVERT JUMPDEST ADD MLOAD SWAP1 POP DUP7 DUP1 PUSH2 0x901 JUMP JUMPDEST PUSH1 0xC DUP6 ADD PUSH1 0x0 SWAP1 DUP2 MSTORE PUSH1 0x20 DUP2 KECCAK256 SWAP4 POP PUSH1 0x1F NOT DUP6 AND SWAP1 JUMPDEST DUP2 DUP2 LT PUSH2 0xB5F JUMPI POP SWAP1 DUP5 PUSH1 0x1 SWAP6 SWAP5 SWAP4 SWAP3 LT PUSH2 0xB46 JUMPI JUMPDEST POP POP POP DUP2 SHL ADD PUSH1 0xC DUP3 ADD SSTORE PUSH2 0x919 JUMP JUMPDEST ADD MLOAD PUSH1 0x0 NOT PUSH1 0xF8 DUP5 PUSH1 0x3 SHL AND SHR NOT AND SWAP1 SSTORE DUP7 DUP1 DUP1 PUSH2 0xB36 JUMP JUMPDEST SWAP3 SWAP4 PUSH1 0x20 PUSH1 0x1 DUP2 SWAP3 DUP8 DUP7 ADD MLOAD DUP2 SSTORE ADD SWAP6 ADD SWAP4 ADD PUSH2 0xB20 JUMP JUMPDEST SWAP1 SWAP2 POP PUSH1 0xC DUP5 ADD PUSH1 0x0 MSTORE PUSH1 0x20 PUSH1 0x0 KECCAK256 PUSH1 0x1F DUP5 ADD PUSH1 0x5 SHR DUP2 ADD PUSH1 0x20 DUP6 LT PUSH2 0xBC3 JUMPI JUMPDEST SWAP1 DUP5 SWAP4 SWAP3 SWAP2 JUMPDEST PUSH1 0x1F DUP4 ADD PUSH1 0x5 SHR DUP3 ADD DUP2 LT PUSH2 0xBB4 JUMPI POP POP PUSH2 0x8EA JUMP JUMPDEST PUSH1 0x0 DUP2 SSTORE DUP6 SWAP5 POP PUSH1 0x1 ADD PUSH2 0xB9E JUMP JUMPDEST POP DUP1 PUSH2 0xB98 JUMP JUMPDEST ADD MLOAD SWAP1 POP DUP7 DUP1 PUSH2 0x8A3 JUMP JUMPDEST PUSH1 0xB DUP6 ADD PUSH1 0x0 SWAP1 DUP2 MSTORE PUSH1 0x20 DUP2 KECCAK256 SWAP4 POP PUSH1 0x1F NOT DUP6 AND SWAP1 JUMPDEST DUP2 DUP2 LT PUSH2 0xC2A JUMPI POP SWAP1 DUP5 PUSH1 0x1 SWAP6 SWAP5 SWAP4 SWAP3 LT PUSH2 0xC11 JUMPI JUMPDEST POP POP POP DUP2 SHL ADD PUSH1 0xB DUP3 ADD SSTORE PUSH2 0x8BB JUMP JUMPDEST ADD MLOAD PUSH1 0x0 NOT PUSH1 0xF8 DUP5 PUSH1 0x3 SHL AND SHR NOT AND SWAP1 SSTORE DUP7 DUP1 DUP1 PUSH2 0xC01 JUMP JUMPDEST SWAP3 SWAP4 PUSH1 0x20 PUSH1 0x1 DUP2 SWAP3 DUP8 DUP7 ADD MLOAD DUP2 SSTORE ADD SWAP6 ADD SWAP4 ADD PUSH2 0xBEB JUMP JUMPDEST SWAP1 SWAP2 POP PUSH1 0xB DUP5 ADD PUSH1 0x0 MSTORE PUSH1 0x20 PUSH1 0x0 KECCAK256 PUSH1 0x1F DUP5 ADD PUSH1 0x5 SHR DUP2 ADD PUSH1 0x20 DUP6 LT PUSH2 0xC8E JUMPI JUMPDEST SWAP1 DUP5 SWAP4 SWAP3 SWAP2 JUMPDEST PUSH1 0x1F DUP4 ADD PUSH1 0x5 SHR DUP3 ADD DUP2 LT PUSH2 0xC7F JUMPI POP POP PUSH2 0x88C JUMP JUMPDEST PUSH1 0x0 DUP2 SSTORE DUP6 SWAP5 POP PUSH1 0x1 ADD PUSH2 0xC69 JUMP JUMPDEST POP DUP1 PUSH2 0xC63 JUMP JUMPDEST ADD MLOAD SWAP1 POP DUP7 DUP1 PUSH2 0x845 JUMP JUMPDEST PUSH1 0xA DUP6 ADD PUSH1 0x0 SWAP1 DUP2 MSTORE PUSH1 0x20 DUP2 KECCAK256 SWAP4 POP PUSH1 0x1F NOT DUP6 AND SWAP1 JUMPDEST DUP2 DUP2 LT PUSH2 0xCF5 JUMPI POP SWAP1 DUP5 PUSH1 0x1 SWAP6 SWAP5 SWAP4 SWAP3 LT PUSH2 0xCDC JUMPI JUMPDEST POP POP POP DUP2 SHL ADD PUSH1 0xA DUP3 ADD SSTORE PUSH2 0x85D JUMP JUMPDEST ADD MLOAD PUSH1 0x0 NOT PUSH1 0xF8 DUP5 PUSH1 0x3 SHL AND SHR NOT AND SWAP1 SSTORE DUP7 DUP1 DUP1 PUSH2 0xCCC JUMP JUMPDEST SWAP3 SWAP4 PUSH1 0x20 PUSH1 0x1 DUP2 SWAP3 DUP8 DUP7 ADD MLOAD DUP2 SSTORE ADD SWAP6 ADD SWAP4 ADD PUSH2 0xCB6 JUMP JUMPDEST SWAP1 SWAP2 POP PUSH1 0xA DUP5 ADD PUSH1 0x0 MSTORE PUSH1 0x20 PUSH1 0x0 KECCAK256 PUSH1 0x1F DUP5 ADD PUSH1 0x5 SHR DUP2 ADD PUSH1 0x20 DUP6 LT PUSH2 0xD59 JUMPI JUMPDEST SWAP1 DUP5 SWAP4 SWAP3 SWAP2 JUMPDEST PUSH1 0x1F DUP4 ADD PUSH1 0x5 SHR DUP3 ADD DUP2 LT PUSH2 0xD4A JUMPI POP POP PUSH2 0x82E JUMP JUMPDEST PUSH1 0x0 DUP2 SSTORE DUP6 SWAP5 POP PUSH1 0x1 ADD PUSH2 0xD34 JUMP JUMPDEST POP DUP1 PUSH2 0xD2E JUMP JUMPDEST ADD MLOAD SWAP1 POP DUP7 DUP1 PUSH2 0x7E7 JUMP JUMPDEST PUSH1 0x9 DUP6 ADD PUSH1 0x0 SWAP1 DUP2 MSTORE PUSH1 0x20 DUP2 KECCAK256 SWAP4 POP PUSH1 0x1F NOT DUP6 AND SWAP1 JUMPDEST DUP2 DUP2 LT PUSH2 0xDC0 JUMPI POP SWAP1 DUP5 PUSH1 0x1 SWAP6 SWAP5 SWAP4 SWAP3 LT PUSH2 0xDA7 JUMPI JUMPDEST POP POP POP DUP2 SHL ADD PUSH1 0x9 DUP3 ADD SSTORE PUSH2 0x7FF JUMP JUMPDEST ADD MLOAD PUSH1 0x0 NOT PUSH1 0xF8 DUP5 PUSH1 0x3 SHL AND SHR NOT AND SWAP1 SSTORE DUP7 DUP1 DUP1 PUSH2 0xD97 JUMP JUMPDEST SWAP3 SWAP4 PUSH1 0x20 PUSH1 0x1 DUP2 SWAP3 DUP8 DUP7 ADD MLOAD DUP2 SSTORE ADD SWAP6 ADD SWAP4 ADD PUSH2 0xD81 JUMP JUMPDEST SWAP1 SWAP2 POP PUSH1 0x9 DUP5 ADD PUSH1 0x0 MSTORE PUSH1 0x20 PUSH1 0x0 KECCAK256 PUSH1 0x1F DUP5 ADD PUSH1 0x5 SHR DUP2 ADD PUSH1 0x20 DUP6 LT PUSH2 0xE24 JUMPI JUMPDEST SWAP1 DUP5 SWAP4 SWAP3 SWAP2 JUMPDEST PUSH1 0x1F DUP4 ADD PUSH1 0x5 SHR DUP3 ADD DUP2 LT PUSH2 0xE15 JUMPI POP POP PUSH2 0x7D0 JUMP JUMPDEST PUSH1 0x0 DUP2 SSTORE DUP6 SWAP5 POP PUSH1 0x1 ADD PUSH2 0xDFF JUMP JUMPDEST POP DUP1 PUSH2 0xDF9 JUMP JUMPDEST ADD MLOAD SWAP1 POP DUP7 DUP1 PUSH2 0x77E JUMP JUMPDEST SWAP3 POP PUSH1 0x7 DUP5 ADD PUSH1 0x0 MSTORE PUSH1 0x20 PUSH1 0x0 KECCAK256 SWAP1 PUSH1 0x0 SWAP4 JUMPDEST PUSH1 0x1F NOT DUP5 AND DUP6 LT PUSH2 0xE8D JUMPI PUSH1 0x1 SWAP5 POP DUP4 PUSH1 0x1F NOT DUP2 AND LT PUSH2 0xE74 JUMPI JUMPDEST POP POP POP DUP2 SHL ADD PUSH1 0x7 DUP3 ADD SSTORE PUSH2 0x796 JUMP JUMPDEST ADD MLOAD PUSH1 0x0 NOT PUSH1 0xF8 DUP5 PUSH1 0x3 SHL AND SHR NOT AND SWAP1 SSTORE DUP7 DUP1 DUP1 PUSH2 0xE64 JUMP JUMPDEST DUP2 DUP2 ADD MLOAD DUP4 SSTORE PUSH1 0x20 SWAP5 DUP6 ADD SWAP5 PUSH1 0x1 SWAP1 SWAP4 ADD SWAP3 SWAP1 SWAP2 ADD SWAP1 PUSH2 0xE49 JUMP JUMPDEST SWAP1 SWAP2 POP PUSH1 0x7 DUP5 ADD PUSH1 0x0 MSTORE PUSH1 0x20 PUSH1 0x0 KECCAK256 PUSH1 0x1F DUP5 ADD PUSH1 0x5 SHR DUP2 ADD PUSH1 0x20 DUP6 LT PUSH2 0xEF4 JUMPI JUMPDEST SWAP1 DUP5 SWAP4 SWAP3 SWAP2 JUMPDEST PUSH1 0x1F DUP4 ADD PUSH1 0x5 SHR DUP3 ADD DUP2 LT PUSH2 0xEE5 JUMPI POP POP PUSH2 0x767 JUMP JUMPDEST PUSH1 0x0 DUP2 SSTORE DUP6 SWAP5 POP PUSH1 0x1 ADD PUSH2 0xECF JUMP JUMPDEST POP DUP1 PUSH2 0xEC9 JUMP JUMPDEST ADD MLOAD SWAP1 POP DUP7 DUP1 PUSH2 0x720 JUMP JUMPDEST SWAP3 POP PUSH1 0x6 DUP5 ADD PUSH1 0x0 MSTORE PUSH1 0x20 PUSH1 0x0 KECCAK256 SWAP1 PUSH1 0x0 SWAP4 JUMPDEST PUSH1 0x1F NOT DUP5 AND DUP6 LT PUSH2 0xF5D JUMPI PUSH1 0x1 SWAP5 POP DUP4 PUSH1 0x1F NOT DUP2 AND LT PUSH2 0xF44 JUMPI JUMPDEST POP POP POP DUP2 SHL ADD PUSH1 0x6 DUP3 ADD SSTORE PUSH2 0x738 JUMP JUMPDEST ADD MLOAD PUSH1 0x0 NOT PUSH1 0xF8 DUP5 PUSH1 0x3 SHL AND SHR NOT AND SWAP1 SSTORE DUP7 DUP1 DUP1 PUSH2 0xF34 JUMP JUMPDEST DUP2 DUP2 ADD MLOAD DUP4 SSTORE PUSH1 0x20 SWAP5 DUP6 ADD SWAP5 PUSH1 0x1 SWAP1 SWAP4 ADD SWAP3 SWAP1 SWAP2 ADD SWAP1 PUSH2 0xF19 JUMP JUMPDEST SWAP1 SWAP2 POP PUSH1 0x6 DUP5 ADD PUSH1 0x0 MSTORE PUSH1 0x20 PUSH1 0x0 KECCAK256 PUSH1 0x1F DUP5 ADD PUSH1 0x5 SHR DUP2 ADD PUSH1 0x20 DUP6 LT PUSH2 0xFC4 JUMPI JUMPDEST SWAP1 DUP5 SWAP4 SWAP3 SWAP2 JUMPDEST PUSH1 0x1F DUP4 ADD PUSH1 0x5 SHR DUP3 ADD DUP2 LT PUSH2 0xFB5 JUMPI POP POP PUSH2 0x709 JUMP JUMPDEST PUSH1 0x0 DUP2 SSTORE DUP6 SWAP5 POP PUSH1 0x1 ADD PUSH2 0xF9F JUMP JUMPDEST POP DUP1 PUSH2 0xF99 JUMP JUMPDEST ADD MLOAD SWAP1 POP DUP7 DUP1 PUSH2 0x666 JUMP JUMPDEST SWAP3 POP PUSH1 0x4 DUP5 ADD PUSH1 0x0 MSTORE PUSH1 0x20 PUSH1 0x0 KECCAK256 SWAP1 PUSH1 0x0 SWAP4 JUMPDEST PUSH1 0x1F NOT DUP5 AND DUP6 LT PUSH2 0x102D JUMPI PUSH1 0x1 SWAP5 POP DUP4 PUSH1 0x1F NOT DUP2 AND LT PUSH2 0x1014 JUMPI JUMPDEST POP POP POP DUP2 SHL ADD PUSH1 0x4 DUP3 ADD SSTORE PUSH2 0x67E JUMP JUMPDEST ADD MLOAD PUSH1 0x0 NOT PUSH1 0xF8 DUP5 PUSH1 0x3 SHL AND SHR NOT AND SWAP1 SSTORE DUP7 DUP1 DUP1 PUSH2 0x1004 JUMP JUMPDEST DUP2 DUP2 ADD MLOAD DUP4 SSTORE PUSH1 0x20 SWAP5 DUP6 ADD SWAP5 PUSH1 0x1 SWAP1 SWAP4 ADD SWAP3 SWAP1 SWAP2 ADD SWAP1 PUSH2 0xFE9 JUMP JUMPDEST SWAP1 SWAP2 POP PUSH1 0x4 DUP5 ADD PUSH1 0x0 MSTORE PUSH1 0x20 PUSH1 0x0 KECCAK256 PUSH1 0x1F DUP5 ADD PUSH1 0x5 SHR DUP2 ADD PUSH1 0x20 DUP6 LT PUSH2 0x1094 JUMPI JUMPDEST SWAP1 DUP5 SWAP4 SWAP3 SWAP2 JUMPDEST PUSH1 0x1F DUP4 ADD PUSH1 0x5 SHR DUP3 ADD DUP2 LT PUSH2 0x1085 JUMPI POP POP PUSH2 0x64F JUMP JUMPDEST PUSH1 0x0 DUP2 SSTORE DUP6 SWAP5 POP PUSH1 0x1 ADD PUSH2 0x106F JUMP JUMPDEST POP DUP1 PUSH2 0x1069 JUMP JUMPDEST ADD MLOAD SWAP1 POP DUP7 DUP1 PUSH2 0x609 JUMP JUMPDEST SWAP3 POP PUSH1 0x3 DUP5 ADD PUSH1 0x0 MSTORE PUSH1 0x20 PUSH1 0x0 KECCAK256 SWAP1 PUSH1 0x0 SWAP4 JUMPDEST PUSH1 0x1F NOT DUP5 AND DUP6 LT PUSH2 0x10FD JUMPI PUSH1 0x1 SWAP5 POP DUP4 PUSH1 0x1F NOT DUP2 AND LT PUSH2 0x10E4 JUMPI JUMPDEST POP POP POP DUP2 SHL ADD PUSH1 0x3 DUP3 ADD SSTORE PUSH2 0x621 JUMP JUMPDEST ADD MLOAD PUSH1 0x0 NOT PUSH1 0xF8 DUP5 PUSH1 0x3 SHL AND SHR NOT AND SWAP1 SSTORE DUP7 DUP1 DUP1 PUSH2 0x10D4 JUMP JUMPDEST DUP2 DUP2 ADD MLOAD DUP4 SSTORE PUSH1 0x20 SWAP5 DUP6 ADD SWAP5 PUSH1 0x1 SWAP1 SWAP4 ADD SWAP3 SWAP1 SWAP2 ADD SWAP1 PUSH2 0x10B9 JUMP JUMPDEST SWAP1 SWAP2 POP PUSH1 0x3 DUP5 ADD PUSH1 0x0 MSTORE PUSH1 0x20 PUSH1 0x0 KECCAK256 PUSH1 0x1F DUP5 ADD PUSH1 0x5 SHR DUP2 ADD PUSH1 0x20 DUP6 LT PUSH2 0x1164 JUMPI JUMPDEST SWAP1 DUP5 SWAP4 SWAP3 SWAP2 JUMPDEST PUSH1 0x1F DUP4 ADD PUSH1 0x5 SHR DUP3 ADD DUP2 LT PUSH2 0x1155 JUMPI POP POP PUSH2 0x5F2 JUMP JUMPDEST PUSH1 0x0 DUP2 SSTORE DUP6 SWAP5 POP PUSH1 0x1 ADD PUSH2 0x113F JUMP JUMPDEST POP DUP1 PUSH2 0x1139 JUMP JUMPDEST CALLVALUE PUSH2 0x250 JUMPI PUSH1 0x0 CALLDATASIZE PUSH1 0x3 NOT ADD SLT PUSH2 0x250 JUMPI PUSH1 0x0 SLOAD PUSH1 0x40 MLOAD PUSH1 0x1 PUSH1 0x1 PUSH1 0xA0 SHL SUB SWAP1 SWAP2 AND DUP2 MSTORE PUSH1 0x20 SWAP1 RETURN JUMPDEST CALLVALUE PUSH2 0x250 JUMPI PUSH1 0x20 CALLDATASIZE PUSH1 0x3 NOT ADD SLT PUSH2 0x250 JUMPI PUSH1 0x0 PUSH2 0x240 PUSH1 0x40 MLOAD PUSH2 0x11B6 DUP2 PUSH2 0x24C2 JUMP JUMPDEST DUP3 DUP2 MSTORE DUP3 PUSH1 0x20 DUP3 ADD MSTORE DUP3 PUSH1 0x40 DUP3 ADD MSTORE PUSH1 0x60 DUP1 DUP3 ADD MSTORE PUSH1 0x60 PUSH1 0x80 DUP3 ADD MSTORE DUP3 PUSH1 0xA0 DUP3 ADD MSTORE DUP3 PUSH1 0xC0 DUP3 ADD MSTORE DUP3 PUSH1 0xE0 DUP3 ADD MSTORE DUP3 PUSH2 0x100 DUP3 ADD MSTORE DUP3 PUSH2 0x120 DUP3 ADD MSTORE PUSH1 0x60 PUSH2 0x140 DUP3 ADD MSTORE PUSH1 0x60 PUSH2 0x160 DUP3 ADD MSTORE DUP3 PUSH2 0x180 DUP3 ADD MSTORE PUSH1 0x60 PUSH2 0x1A0 DUP3 ADD MSTORE PUSH1 0x60 PUSH2 0x1C0 DUP3 ADD MSTORE PUSH1 0x60 PUSH2 0x1E0 DUP3 ADD MSTORE PUSH1 0x60 PUSH2 0x200 DUP3 ADD MSTORE PUSH1 0x60 PUSH2 0x220 DUP3 ADD MSTORE ADD MSTORE PUSH1 0x4 CALLDATALOAD PUSH1 0x0 MSTORE PUSH1 0x1 PUSH1 0x20 MSTORE PUSH1 0x80 PUSH1 0x60 PUSH1 0x40 PUSH1 0x0 KECCAK256 PUSH1 0xE PUSH1 0x40 MLOAD SWAP2 PUSH2 0x1256 DUP4 PUSH2 0x24C2 JUMP JUMPDEST DUP1 SLOAD DUP4 MSTORE PUSH1 0x1 DUP2 ADD SLOAD PUSH1 0x20 DUP5 ADD MSTORE PUSH1 0x2 DUP2 ADD SLOAD PUSH1 0x40 DUP5 ADD MSTORE PUSH2 0x127A PUSH1 0x3 DUP3 ADD PUSH2 0x2654 JUMP JUMPDEST DUP5 DUP5 ADD MSTORE PUSH2 0x128A PUSH1 0x4 DUP3 ADD PUSH2 0x2654 JUMP JUMPDEST DUP6 DUP5 ADD MSTORE PUSH1 0xFF PUSH1 0x5 DUP3 ADD SLOAD DUP2 DUP2 AND PUSH1 0xA0 DUP7 ADD MSTORE DUP2 DUP2 PUSH1 0x8 SHR AND PUSH1 0xC0 DUP7 ADD MSTORE DUP2 DUP2 PUSH1 0x10 SHR AND PUSH1 0xE0 DUP7 ADD MSTORE DUP2 DUP2 PUSH1 0x18 SHR AND PUSH2 0x100 DUP7 ADD MSTORE PUSH1 0x20 SHR AND ISZERO ISZERO PUSH2 0x120 DUP5 ADD MSTORE PUSH2 0x12D7 PUSH1 0x6 DUP3 ADD PUSH2 0x2654 JUMP JUMPDEST PUSH2 0x140 DUP5 ADD MSTORE PUSH2 0x12E9 PUSH1 0x7 DUP3 ADD PUSH2 0x2654 JUMP JUMPDEST PUSH2 0x160 DUP5 ADD MSTORE PUSH1 0x8 DUP2 ADD SLOAD PUSH2 0x180 DUP5 ADD MSTORE PUSH2 0x1306 PUSH1 0x9 DUP3 ADD PUSH2 0x2654 JUMP JUMPDEST PUSH2 0x1A0 DUP5 ADD MSTORE PUSH2 0x1318 PUSH1 0xA DUP3 ADD PUSH2 0x2654 JUMP JUMPDEST PUSH2 0x1C0 DUP5 ADD MSTORE PUSH2 0x132A PUSH1 0xB DUP3 ADD PUSH2 0x2654 JUMP JUMPDEST PUSH2 0x1E0 DUP5 ADD MSTORE PUSH2 0x133C PUSH1 0xC DUP3 ADD PUSH2 0x2654 JUMP JUMPDEST PUSH2 0x200 DUP5 ADD MSTORE PUSH2 0x134E PUSH1 0xD DUP3 ADD PUSH2 0x2654 JUMP JUMPDEST PUSH2 0x220 DUP5 ADD MSTORE ADD SLOAD PUSH2 0x240 DUP3 ADD MSTORE PUSH2 0x240 PUSH2 0x14C1 PUSH2 0x14AB PUSH2 0x1493 PUSH2 0x147B PUSH2 0x1463 PUSH2 0x143F PUSH2 0x1427 PUSH2 0x13CA PUSH2 0x13B4 DUP11 PUSH2 0x260 PUSH1 0x40 MLOAD SWAP15 DUP16 SWAP15 DUP16 SWAP4 PUSH1 0x20 DUP6 MSTORE DUP1 MLOAD PUSH1 0x20 DUP7 ADD MSTORE PUSH1 0x20 DUP2 ADD MLOAD PUSH1 0x40 DUP7 ADD MSTORE PUSH1 0x40 DUP2 ADD MLOAD DUP3 DUP7 ADD MSTORE ADD MLOAD SWAP3 ADD MSTORE PUSH2 0x280 DUP14 ADD SWAP1 PUSH2 0x2593 JUMP JUMPDEST PUSH1 0x80 DUP12 ADD MLOAD DUP13 DUP3 SUB PUSH1 0x1F NOT ADD PUSH1 0xA0 DUP15 ADD MSTORE PUSH2 0x2593 JUMP JUMPDEST PUSH1 0xFF PUSH1 0xA0 DUP12 ADD MLOAD AND PUSH1 0xC0 DUP13 ADD MSTORE PUSH1 0xFF PUSH1 0xC0 DUP12 ADD MLOAD AND PUSH1 0xE0 DUP13 ADD MSTORE PUSH1 0xFF PUSH1 0xE0 DUP12 ADD MLOAD AND PUSH2 0x100 DUP13 ADD MSTORE PUSH1 0xFF PUSH2 0x100 DUP12 ADD MLOAD AND PUSH2 0x120 DUP13 ADD MSTORE PUSH2 0x120 DUP11 ADD MLOAD ISZERO ISZERO PUSH2 0x140 DUP13 ADD MSTORE PUSH2 0x140 DUP11 ADD MLOAD PUSH1 0x1F NOT DUP13 DUP4 SUB ADD PUSH2 0x160 DUP14 ADD MSTORE PUSH2 0x2593 JUMP JUMPDEST PUSH2 0x160 DUP10 ADD MLOAD DUP11 DUP3 SUB PUSH1 0x1F NOT ADD PUSH2 0x180 DUP13 ADD MSTORE PUSH2 0x2593 JUMP JUMPDEST PUSH2 0x180 DUP9 ADD MLOAD PUSH2 0x1A0 DUP11 ADD MSTORE PUSH2 0x1A0 DUP9 ADD MLOAD PUSH1 0x1F NOT DUP11 DUP4 SUB ADD PUSH2 0x1C0 DUP12 ADD MSTORE PUSH2 0x2593 JUMP JUMPDEST PUSH2 0x1C0 DUP8 ADD MLOAD DUP9 DUP3 SUB PUSH1 0x1F NOT ADD PUSH2 0x1E0 DUP11 ADD MSTORE PUSH2 0x2593 JUMP JUMPDEST PUSH2 0x1E0 DUP7 ADD MLOAD DUP8 DUP3 SUB PUSH1 0x1F NOT ADD PUSH2 0x200 DUP10 ADD MSTORE PUSH2 0x2593 JUMP JUMPDEST PUSH2 0x200 DUP6 ADD MLOAD DUP7 DUP3 SUB PUSH1 0x1F NOT ADD PUSH2 0x220 DUP9 ADD MSTORE PUSH2 0x2593 JUMP JUMPDEST PUSH2 0x220 DUP5 ADD MLOAD DUP6 DUP3 SUB PUSH1 0x1F NOT ADD DUP5 DUP8 ADD MSTORE PUSH2 0x2593 JUMP JUMPDEST SWAP2 ADD MLOAD PUSH2 0x260 DUP4 ADD MSTORE SUB SWAP1 RETURN JUMPDEST CALLVALUE PUSH2 0x250 JUMPI PUSH1 0x0 CALLDATASIZE PUSH1 0x3 NOT ADD SLT PUSH2 0x250 JUMPI PUSH1 0x20 PUSH1 0x4 SLOAD PUSH1 0x40 MLOAD SWAP1 DUP2 MSTORE RETURN JUMPDEST CALLVALUE PUSH2 0x250 JUMPI PUSH1 0x20 DUP1 PUSH1 0x3 NOT CALLDATASIZE ADD SLT PUSH2 0x250 JUMPI PUSH1 0x4 CALLDATALOAD PUSH1 0x1 PUSH1 0x1 PUSH1 0x40 SHL SUB DUP2 GT PUSH2 0x250 JUMPI DUP2 PUSH2 0x1521 PUSH2 0x1534 SWAP3 CALLDATASIZE SWAP1 PUSH1 0x4 ADD PUSH2 0x251A JUMP JUMPDEST DUP2 PUSH1 0x40 MLOAD SWAP4 DUP3 DUP6 DUP1 SWAP5 MLOAD SWAP4 DUP5 SWAP3 ADD PUSH2 0x2570 JUMP JUMPDEST DUP2 ADD PUSH1 0x3 DUP2 MSTORE SUB ADD SWAP1 KECCAK256 PUSH1 0x40 MLOAD SWAP1 DUP2 DUP4 DUP3 SLOAD SWAP2 DUP3 DUP2 MSTORE ADD SWAP1 DUP2 SWAP3 PUSH1 0x0 MSTORE DUP5 PUSH1 0x0 KECCAK256 SWAP1 PUSH1 0x0 JUMPDEST DUP7 DUP3 DUP3 LT PUSH2 0x15AF JUMPI DUP7 DUP7 PUSH2 0x156F DUP3 DUP9 SUB DUP4 PUSH2 0x24F9 JUMP JUMPDEST PUSH1 0x40 MLOAD SWAP3 DUP4 SWAP3 DUP2 DUP5 ADD SWAP1 DUP3 DUP6 MSTORE MLOAD DUP1 SWAP2 MSTORE PUSH1 0x40 DUP5 ADD SWAP3 SWAP2 PUSH1 0x0 JUMPDEST DUP3 DUP2 LT PUSH2 0x1598 JUMPI POP POP POP POP SUB SWAP1 RETURN JUMPDEST DUP4 MLOAD DUP6 MSTORE DUP7 SWAP6 POP SWAP4 DUP2 ADD SWAP4 SWAP3 DUP2 ADD SWAP3 PUSH1 0x1 ADD PUSH2 0x1589 JUMP JUMPDEST DUP4 SLOAD DUP6 MSTORE SWAP1 SWAP4 ADD SWAP3 PUSH1 0x1 SWAP3 DUP4 ADD SWAP3 ADD PUSH2 0x1559 JUMP JUMPDEST CALLVALUE PUSH2 0x250 JUMPI PUSH1 0xC0 CALLDATASIZE PUSH1 0x3 NOT ADD SLT PUSH2 0x250 JUMPI PUSH1 0x24 CALLDATALOAD PUSH1 0x1 PUSH1 0x1 PUSH1 0x40 SHL SUB DUP2 GT PUSH2 0x250 JUMPI PUSH2 0x15F3 SWAP1 CALLDATASIZE SWAP1 PUSH1 0x4 ADD PUSH2 0x251A JUMP JUMPDEST PUSH1 0x44 CALLDATALOAD PUSH1 0x1 PUSH1 0x1 PUSH1 0x40 SHL SUB DUP2 GT PUSH2 0x250 JUMPI PUSH2 0x1612 SWAP1 CALLDATASIZE SWAP1 PUSH1 0x4 ADD PUSH2 0x251A JUMP JUMPDEST PUSH1 0x64 CALLDATALOAD PUSH1 0x1 PUSH1 0x1 PUSH1 0x40 SHL SUB DUP2 GT PUSH2 0x250 JUMPI PUSH2 0x1631 SWAP1 CALLDATASIZE SWAP1 PUSH1 0x4 ADD PUSH2 0x251A JUMP JUMPDEST SWAP2 PUSH1 0x84 CALLDATALOAD PUSH1 0x1 PUSH1 0x1 PUSH1 0x40 SHL SUB DUP2 GT PUSH2 0x250 JUMPI PUSH2 0x1651 SWAP1 CALLDATASIZE SWAP1 PUSH1 0x4 ADD PUSH2 0x251A JUMP JUMPDEST SWAP2 PUSH1 0xA4 CALLDATALOAD PUSH1 0x1 PUSH1 0x1 PUSH1 0x40 SHL SUB DUP2 GT PUSH2 0x250 JUMPI PUSH2 0x1671 SWAP1 CALLDATASIZE SWAP1 PUSH1 0x4 ADD PUSH2 0x251A JUMP JUMPDEST SWAP3 PUSH1 0x4 CALLDATALOAD PUSH1 0x0 MSTORE PUSH1 0x2 PUSH1 0x20 MSTORE PUSH1 0x40 PUSH1 0x0 KECCAK256 SLOAD DUP1 ISZERO PUSH2 0x2469 JUMPI PUSH1 0x0 MSTORE PUSH1 0x1 PUSH1 0x20 MSTORE PUSH1 0x40 PUSH1 0x0 KECCAK256 SWAP2 PUSH1 0x40 MLOAD SWAP3 PUSH2 0x16A4 DUP5 PUSH2 0x24C2 JUMP JUMPDEST DUP1 SLOAD DUP5 MSTORE PUSH1 0x1 DUP2 ADD SLOAD PUSH1 0x20 DUP6 ADD MSTORE PUSH1 0x2 DUP2 ADD SLOAD PUSH1 0x40 DUP6 ADD MSTORE PUSH2 0x16C8 PUSH1 0x3 DUP3 ADD PUSH2 0x2654 JUMP JUMPDEST PUSH1 0x60 DUP6 ADD MSTORE PUSH2 0x16D9 PUSH1 0x4 DUP3 ADD PUSH2 0x2654 JUMP JUMPDEST PUSH1 0x80 DUP6 ADD MSTORE PUSH1 0x5 DUP2 ADD SLOAD PUSH1 0xFF DUP2 AND PUSH1 0xA0 DUP7 ADD MSTORE DUP1 PUSH1 0x8 SHR PUSH1 0xFF AND PUSH1 0xC0 DUP7 ADD MSTORE DUP1 PUSH1 0x10 SHR PUSH1 0xFF AND PUSH1 0xE0 DUP7 ADD MSTORE DUP1 PUSH1 0x18 SHR PUSH1 0xFF AND PUSH2 0x100 DUP7 ADD MSTORE PUSH1 0x20 SHR PUSH1 0xFF AND ISZERO ISZERO PUSH2 0x120 DUP6 ADD MSTORE PUSH1 0x6 DUP2 ADD PUSH2 0x172C SWAP1 PUSH2 0x2654 JUMP JUMPDEST PUSH2 0x140 DUP6 ADD MSTORE PUSH2 0x173E PUSH1 0x7 DUP3 ADD PUSH2 0x2654 JUMP JUMPDEST PUSH2 0x160 DUP6 ADD MSTORE PUSH1 0x8 DUP2 ADD SLOAD PUSH2 0x180 DUP6 ADD MSTORE PUSH2 0x175B PUSH1 0x9 DUP3 ADD PUSH2 0x2654 JUMP JUMPDEST PUSH2 0x1A0 DUP6 ADD MSTORE PUSH2 0x176D PUSH1 0xA DUP3 ADD PUSH2 0x2654 JUMP JUMPDEST PUSH2 0x1C0 DUP6 ADD MSTORE PUSH2 0x177F PUSH1 0xB DUP3 ADD PUSH2 0x2654 JUMP JUMPDEST PUSH2 0x1E0 DUP6 ADD MSTORE PUSH2 0x1791 PUSH1 0xC DUP3 ADD PUSH2 0x2654 JUMP JUMPDEST PUSH2 0x200 DUP6 ADD MSTORE PUSH2 0x17A3 PUSH1 0xD DUP3 ADD PUSH2 0x2654 JUMP JUMPDEST PUSH2 0x220 DUP6 ADD MSTORE PUSH1 0xE ADD SLOAD PUSH2 0x240 DUP5 ADD MSTORE PUSH1 0x4 SLOAD PUSH2 0x17BF SWAP1 PUSH2 0x26FA JUMP JUMPDEST SWAP5 DUP6 PUSH1 0x4 SSTORE PUSH1 0x40 DUP5 ADD MLOAD SWAP3 DUP7 DUP6 PUSH1 0x60 DUP2 ADD MLOAD PUSH1 0x80 DUP3 ADD MLOAD PUSH1 0xA0 DUP4 ADD MLOAD PUSH1 0xFF AND PUSH1 0xC0 DUP5 ADD MLOAD PUSH1 0xFF AND PUSH1 0xE0 DUP6 ADD MLOAD PUSH1 0xFF AND SWAP1 PUSH2 0x100 DUP7 ADD MLOAD PUSH1 0xFF AND SWAP3 PUSH2 0x120 DUP8 ADD MLOAD ISZERO ISZERO SWAP5 PUSH2 0x140 DUP9 ADD MLOAD SWAP7 PUSH2 0x160 DUP10 ADD MLOAD SWAP9 PUSH2 0x180 ADD MLOAD SWAP10 PUSH1 0x40 MLOAD SWAP15 DUP16 SWAP2 PUSH2 0x1825 DUP4 PUSH2 0x24C2 JUMP JUMPDEST DUP3 MSTORE PUSH1 0x4 CALLDATALOAD PUSH1 0x20 DUP4 ADD MSTORE PUSH1 0x40 DUP3 ADD MSTORE PUSH1 0x60 ADD MSTORE PUSH1 0x80 DUP14 ADD MSTORE PUSH1 0xA0 DUP13 ADD MSTORE PUSH1 0xC0 DUP12 ADD MSTORE PUSH1 0xE0 DUP11 ADD MSTORE PUSH2 0x100 DUP10 ADD MSTORE PUSH2 0x120 DUP9 ADD MSTORE PUSH2 0x140 DUP8 ADD MSTORE PUSH2 0x160 DUP7 ADD MSTORE PUSH2 0x180 DUP6 ADD MSTORE DUP8 PUSH2 0x1A0 DUP6 ADD MSTORE PUSH2 0x1C0 DUP5 ADD MSTORE PUSH2 0x1E0 DUP4 ADD MSTORE DUP4 PUSH2 0x200 DUP4 ADD MSTORE PUSH2 0x220 DUP3 ADD MSTORE TIMESTAMP PUSH2 0x240 DUP3 ADD MSTORE DUP4 PUSH1 0x0 MSTORE PUSH1 0x1 PUSH1 0x20 MSTORE PUSH1 0x40 PUSH1 0x0 KECCAK256 SWAP1 DUP1 MLOAD DUP3 SSTORE PUSH1 0x20 DUP2 ADD MLOAD PUSH1 0x1 DUP4 ADD SSTORE PUSH1 0x40 DUP2 ADD MLOAD PUSH1 0x2 DUP4 ADD SSTORE PUSH1 0x60 DUP2 ADD MLOAD DUP1 MLOAD SWAP1 PUSH1 0x1 PUSH1 0x1 PUSH1 0x40 SHL SUB DUP3 GT PUSH2 0xAE9 JUMPI DUP2 SWAP1 PUSH2 0x18DD PUSH1 0x3 DUP7 ADD SLOAD PUSH2 0x261A JUMP JUMPDEST PUSH1 0x1F DUP2 GT PUSH2 0x2416 JUMPI JUMPDEST POP PUSH1 0x20 SWAP1 PUSH1 0x1F DUP4 GT PUSH1 0x1 EQ PUSH2 0x23A4 JUMPI PUSH1 0x0 SWAP3 PUSH2 0x2399 JUMPI JUMPDEST POP POP DUP2 PUSH1 0x1 SHL SWAP2 PUSH1 0x0 NOT SWAP1 PUSH1 0x3 SHL SHR NOT AND OR PUSH1 0x3 DUP4 ADD SSTORE JUMPDEST PUSH1 0x80 DUP2 ADD MLOAD DUP1 MLOAD SWAP1 PUSH1 0x1 PUSH1 0x1 PUSH1 0x40 SHL SUB DUP3 GT PUSH2 0xAE9 JUMPI DUP2 SWAP1 PUSH2 0x193A PUSH1 0x4 DUP7 ADD SLOAD PUSH2 0x261A JUMP JUMPDEST PUSH1 0x1F DUP2 GT PUSH2 0x2346 JUMPI JUMPDEST POP PUSH1 0x20 SWAP1 PUSH1 0x1F DUP4 GT PUSH1 0x1 EQ PUSH2 0x22D4 JUMPI PUSH1 0x0 SWAP3 PUSH2 0x22C9 JUMPI JUMPDEST POP POP DUP2 PUSH1 0x1 SHL SWAP2 PUSH1 0x0 NOT SWAP1 PUSH1 0x3 SHL SHR NOT AND OR PUSH1 0x4 DUP4 ADD SSTORE JUMPDEST PUSH1 0x5 DUP3 ADD PUSH1 0xFF PUSH1 0xA0 DUP4 ADD MLOAD AND DUP2 SLOAD SWAP1 PUSH2 0xFF00 PUSH1 0xC0 DUP6 ADD MLOAD PUSH1 0x8 SHL AND PUSH3 0xFF0000 PUSH1 0xE0 DUP7 ADD MLOAD PUSH1 0x10 SHL AND SWAP1 PUSH4 0xFF000000 PUSH2 0x100 DUP8 ADD MLOAD PUSH1 0x18 SHL AND SWAP3 PUSH5 0xFF00000000 PUSH2 0x120 DUP9 ADD MLOAD ISZERO ISZERO PUSH1 0x20 SHL AND SWAP5 PUSH5 0xFFFFFFFFFF NOT AND OR OR OR OR OR SWAP1 SSTORE PUSH2 0x140 DUP2 ADD MLOAD DUP1 MLOAD SWAP1 PUSH1 0x1 PUSH1 0x1 PUSH1 0x40 SHL SUB DUP3 GT PUSH2 0xAE9 JUMPI DUP2 SWAP1 PUSH2 0x19F3 PUSH1 0x6 DUP7 ADD SLOAD PUSH2 0x261A JUMP JUMPDEST PUSH1 0x1F DUP2 GT PUSH2 0x2276 JUMPI JUMPDEST POP PUSH1 0x20 SWAP1 PUSH1 0x1F DUP4 GT PUSH1 0x1 EQ PUSH2 0x2204 JUMPI PUSH1 0x0 SWAP3 PUSH2 0x21F9 JUMPI JUMPDEST POP POP DUP2 PUSH1 0x1 SHL SWAP2 PUSH1 0x0 NOT SWAP1 PUSH1 0x3 SHL SHR NOT AND OR PUSH1 0x6 DUP4 ADD SSTORE JUMPDEST PUSH2 0x160 DUP2 ADD MLOAD DUP1 MLOAD SWAP1 PUSH1 0x1 PUSH1 0x1 PUSH1 0x40 SHL SUB DUP3 GT PUSH2 0xAE9 JUMPI DUP2 SWAP1 PUSH2 0x1A51 PUSH1 0x7 DUP7 ADD SLOAD PUSH2 0x261A JUMP JUMPDEST PUSH1 0x1F DUP2 GT PUSH2 0x21A6 JUMPI JUMPDEST POP PUSH1 0x20 SWAP1 PUSH1 0x1F DUP4 GT PUSH1 0x1 EQ PUSH2 0x2134 JUMPI PUSH1 0x0 SWAP3 PUSH2 0x2129 JUMPI JUMPDEST POP POP DUP2 PUSH1 0x1 SHL SWAP2 PUSH1 0x0 NOT SWAP1 PUSH1 0x3 SHL SHR NOT AND OR PUSH1 0x7 DUP4 ADD SSTORE JUMPDEST PUSH2 0x180 DUP2 ADD MLOAD PUSH1 0x8 DUP4 ADD SSTORE PUSH2 0x1A0 DUP2 ADD MLOAD DUP1 MLOAD SWAP1 PUSH1 0x1 PUSH1 0x1 PUSH1 0x40 SHL SUB DUP3 GT PUSH2 0xAE9 JUMPI DUP2 SWAP1 PUSH2 0x1ABA PUSH1 0x9 DUP7 ADD SLOAD PUSH2 0x261A JUMP JUMPDEST PUSH1 0x1F DUP2 GT PUSH2 0x20D6 JUMPI JUMPDEST POP PUSH1 0x20 SWAP1 PUSH1 0x1F DUP4 GT PUSH1 0x1 EQ PUSH2 0x2064 JUMPI PUSH1 0x0 SWAP3 PUSH2 0x2059 JUMPI JUMPDEST POP POP DUP2 PUSH1 0x1 SHL SWAP2 PUSH1 0x0 NOT SWAP1 PUSH1 0x3 SHL SHR NOT AND OR PUSH1 0x9 DUP4 ADD SSTORE JUMPDEST PUSH2 0x1C0 DUP2 ADD MLOAD DUP1 MLOAD SWAP1 PUSH1 0x1 PUSH1 0x1 PUSH1 0x40 SHL SUB DUP3 GT PUSH2 0xAE9 JUMPI DUP2 SWAP1 PUSH2 0x1B18 PUSH1 0xA DUP7 ADD SLOAD PUSH2 0x261A JUMP JUMPDEST PUSH1 0x1F DUP2 GT PUSH2 0x2006 JUMPI JUMPDEST POP PUSH1 0x20 SWAP1 PUSH1 0x1F DUP4 GT PUSH1 0x1 EQ PUSH2 0x1F94 JUMPI PUSH1 0x0 SWAP3 PUSH2 0x1F89 JUMPI JUMPDEST POP POP DUP2 PUSH1 0x1 SHL SWAP2 PUSH1 0x0 NOT SWAP1 PUSH1 0x3 SHL SHR NOT AND OR PUSH1 0xA DUP4 ADD SSTORE JUMPDEST PUSH2 0x1E0 DUP2 ADD MLOAD DUP1 MLOAD SWAP1 PUSH1 0x1 PUSH1 0x1 PUSH1 0x40 SHL SUB DUP3 GT PUSH2 0xAE9 JUMPI DUP2 SWAP1 PUSH2 0x1B76 PUSH1 0xB DUP7 ADD SLOAD PUSH2 0x261A JUMP JUMPDEST PUSH1 0x1F DUP2 GT PUSH2 0x1F36 JUMPI JUMPDEST POP PUSH1 0x20 SWAP1 PUSH1 0x1F DUP4 GT PUSH1 0x1 EQ PUSH2 0x1EC4 JUMPI PUSH1 0x0 SWAP3 PUSH2 0x1EB9 JUMPI JUMPDEST POP POP DUP2 PUSH1 0x1 SHL SWAP2 PUSH1 0x0 NOT SWAP1 PUSH1 0x3 SHL SHR NOT AND OR PUSH1 0xB DUP4 ADD SSTORE JUMPDEST PUSH2 0x200 DUP2 ADD MLOAD DUP1 MLOAD SWAP1 PUSH1 0x1 PUSH1 0x1 PUSH1 0x40 SHL SUB DUP3 GT PUSH2 0xAE9 JUMPI DUP2 SWAP1 PUSH2 0x1BD4 PUSH1 0xC DUP7 ADD SLOAD PUSH2 0x261A JUMP JUMPDEST PUSH1 0x1F DUP2 GT PUSH2 0x1E66 JUMPI JUMPDEST POP PUSH1 0x20 SWAP1 PUSH1 0x1F DUP4 GT PUSH1 0x1 EQ PUSH2 0x1DF4 JUMPI PUSH1 0x0 SWAP3 PUSH2 0x1DE9 JUMPI JUMPDEST POP POP DUP2 PUSH1 0x1 SHL SWAP2 PUSH1 0x0 NOT SWAP1 PUSH1 0x3 SHL SHR NOT AND OR PUSH1 0xC DUP4 ADD SSTORE JUMPDEST PUSH2 0x220 DUP2 ADD MLOAD DUP1 MLOAD SWAP1 PUSH1 0x1 PUSH1 0x1 PUSH1 0x40 SHL SUB DUP3 GT PUSH2 0xAE9 JUMPI PUSH2 0x1C30 PUSH1 0xD DUP6 ADD SLOAD PUSH2 0x261A JUMP JUMPDEST PUSH1 0x1F DUP2 GT PUSH2 0x1DA2 JUMPI JUMPDEST POP SWAP2 PUSH1 0x20 SWAP8 SWAP4 SWAP2 DUP8 SWAP6 SWAP4 DUP10 SWAP1 PUSH1 0x1F DUP4 GT PUSH1 0x1 EQ PUSH2 0x1CFA JUMPI PUSH2 0x1CD8 SWAP6 PUSH32 0xC79F180DBA4756BBB3ACD7D4DD843A3D11315BB7B5053B532D8A04E3666100BC SWAP8 SWAP6 PUSH1 0xE PUSH2 0x240 PUSH2 0x1CB6 SWAP8 DUP8 DUP14 SWAP9 PUSH2 0x9A8 SWAP9 PUSH1 0x60 SWAP9 PUSH1 0x0 SWAP3 PUSH2 0x1CEF JUMPI JUMPDEST POP POP DUP2 PUSH1 0x1 SHL SWAP2 PUSH1 0x0 NOT SWAP1 PUSH1 0x3 SHL SHR NOT AND OR PUSH1 0xD DUP6 ADD SSTORE JUMPDEST ADD MLOAD SWAP2 ADD SSTORE ADD MLOAD PUSH2 0x25C6 JUMP JUMPDEST PUSH2 0x1CCB PUSH1 0x40 MLOAD SWAP6 PUSH1 0x60 DUP8 MSTORE PUSH1 0x60 DUP8 ADD SWAP1 PUSH2 0x2593 JUMP JUMPDEST SWAP1 DUP6 DUP3 SUB DUP9 DUP8 ADD MSTORE PUSH2 0x2593 JUMP JUMPDEST SWAP3 TIMESTAMP PUSH1 0x40 DUP3 ADD MSTORE DUP1 PUSH1 0x4 CALLDATALOAD SWAP5 SUB SWAP1 LOG3 PUSH1 0x40 MLOAD SWAP1 DUP2 MSTORE RETURN JUMPDEST ADD MLOAD SWAP1 POP CODESIZE DUP1 PUSH2 0x1C92 JUMP JUMPDEST SWAP1 PUSH1 0xD DUP6 ADD PUSH1 0x0 MSTORE DUP11 PUSH1 0x0 KECCAK256 SWAP2 PUSH1 0x0 JUMPDEST PUSH1 0x1F NOT DUP6 AND DUP2 LT PUSH2 0x1D88 JUMPI POP SWAP6 PUSH32 0xC79F180DBA4756BBB3ACD7D4DD843A3D11315BB7B5053B532D8A04E3666100BC SWAP8 SWAP6 PUSH1 0xE PUSH2 0x240 PUSH2 0x1CB6 SWAP8 PUSH1 0x1 DUP9 PUSH2 0x9A8 SWAP9 DUP16 SWAP11 SWAP9 PUSH2 0x1CD8 SWAP15 PUSH1 0x60 SWAP11 PUSH1 0x1F NOT DUP2 AND LT PUSH2 0x1D6F JUMPI JUMPDEST POP POP POP DUP2 SHL ADD PUSH1 0xD DUP6 ADD SSTORE PUSH2 0x1CAA JUMP JUMPDEST ADD MLOAD PUSH1 0x0 NOT PUSH1 0xF8 DUP5 PUSH1 0x3 SHL AND SHR NOT AND SWAP1 SSTORE CODESIZE DUP1 DUP1 PUSH2 0x1D5F JUMP JUMPDEST DUP2 DUP4 ADD MLOAD DUP5 SSTORE DUP12 SWAP10 POP PUSH1 0x1 SWAP1 SWAP4 ADD SWAP3 SWAP2 DUP13 ADD SWAP2 DUP13 ADD PUSH2 0x1D0A JUMP JUMPDEST PUSH1 0xD DUP6 ADD PUSH1 0x0 MSTORE PUSH1 0x20 PUSH1 0x0 KECCAK256 PUSH1 0x1F DUP5 ADD PUSH1 0x5 SHR DUP2 ADD PUSH1 0x20 DUP6 LT PUSH2 0x1DE2 JUMPI JUMPDEST PUSH1 0x1F DUP4 ADD PUSH1 0x5 SHR DUP3 ADD DUP2 LT PUSH2 0x1DD6 JUMPI POP POP PUSH2 0x1C39 JUMP JUMPDEST PUSH1 0x0 DUP2 SSTORE PUSH1 0x1 ADD PUSH2 0x1DC0 JUMP JUMPDEST POP DUP1 PUSH2 0x1DC0 JUMP JUMPDEST ADD MLOAD SWAP1 POP DUP9 DUP1 PUSH2 0x1BF4 JUMP JUMPDEST SWAP3 POP PUSH1 0xC DUP6 ADD PUSH1 0x0 MSTORE PUSH1 0x20 PUSH1 0x0 KECCAK256 SWAP1 PUSH1 0x0 SWAP4 JUMPDEST PUSH1 0x1F NOT DUP5 AND DUP6 LT PUSH2 0x1E4B JUMPI PUSH1 0x1 SWAP5 POP DUP4 PUSH1 0x1F NOT DUP2 AND LT PUSH2 0x1E32 JUMPI JUMPDEST POP POP POP DUP2 SHL ADD PUSH1 0xC DUP4 ADD SSTORE PUSH2 0x1C0C JUMP JUMPDEST ADD MLOAD PUSH1 0x0 NOT PUSH1 0xF8 DUP5 PUSH1 0x3 SHL AND SHR NOT AND SWAP1 SSTORE DUP9 DUP1 DUP1 PUSH2 0x1E22 JUMP JUMPDEST DUP2 DUP2 ADD MLOAD DUP4 SSTORE PUSH1 0x20 SWAP5 DUP6 ADD SWAP5 PUSH1 0x1 SWAP1 SWAP4 ADD SWAP3 SWAP1 SWAP2 ADD SWAP1 PUSH2 0x1E07 JUMP JUMPDEST SWAP1 SWAP2 POP PUSH1 0xC DUP6 ADD PUSH1 0x0 MSTORE PUSH1 0x20 PUSH1 0x0 KECCAK256 PUSH1 0x1F DUP5 ADD PUSH1 0x5 SHR DUP2 ADD PUSH1 0x20 DUP6 LT PUSH2 0x1EB2 JUMPI JUMPDEST SWAP1 DUP5 SWAP4 SWAP3 SWAP2 JUMPDEST PUSH1 0x1F DUP4 ADD PUSH1 0x5 SHR DUP3 ADD DUP2 LT PUSH2 0x1EA3 JUMPI POP POP PUSH2 0x1BDD JUMP JUMPDEST PUSH1 0x0 DUP2 SSTORE DUP6 SWAP5 POP PUSH1 0x1 ADD PUSH2 0x1E8D JUMP JUMPDEST POP DUP1 PUSH2 0x1E87 JUMP JUMPDEST ADD MLOAD SWAP1 POP DUP9 DUP1 PUSH2 0x1B96 JUMP JUMPDEST SWAP3 POP PUSH1 0xB DUP6 ADD PUSH1 0x0 MSTORE PUSH1 0x20 PUSH1 0x0 KECCAK256 SWAP1 PUSH1 0x0 SWAP4 JUMPDEST PUSH1 0x1F NOT DUP5 AND DUP6 LT PUSH2 0x1F1B JUMPI PUSH1 0x1 SWAP5 POP DUP4 PUSH1 0x1F NOT DUP2 AND LT PUSH2 0x1F02 JUMPI JUMPDEST POP POP POP DUP2 SHL ADD PUSH1 0xB DUP4 ADD SSTORE PUSH2 0x1BAE JUMP JUMPDEST ADD MLOAD PUSH1 0x0 NOT PUSH1 0xF8 DUP5 PUSH1 0x3 SHL AND SHR NOT AND SWAP1 SSTORE DUP9 DUP1 DUP1 PUSH2 0x1EF2 JUMP JUMPDEST DUP2 DUP2 ADD MLOAD DUP4 SSTORE PUSH1 0x20 SWAP5 DUP6 ADD SWAP5 PUSH1 0x1 SWAP1 SWAP4 ADD SWAP3 SWAP1 SWAP2 ADD SWAP1 PUSH2 0x1ED7 JUMP JUMPDEST SWAP1 SWAP2 POP PUSH1 0xB DUP6 ADD PUSH1 0x0 MSTORE PUSH1 0x20 PUSH1 0x0 KECCAK256 PUSH1 0x1F DUP5 ADD PUSH1 0x5 SHR DUP2 ADD PUSH1 0x20 DUP6 LT PUSH2 0x1F82 JUMPI JUMPDEST SWAP1 DUP5 SWAP4 SWAP3 SWAP2 JUMPDEST PUSH1 0x1F DUP4 ADD PUSH1 0x5 SHR DUP3 ADD DUP2 LT PUSH2 0x1F73 JUMPI POP POP PUSH2 0x1B7F JUMP JUMPDEST PUSH1 0x0 DUP2 SSTORE DUP6 SWAP5 POP PUSH1 0x1 ADD PUSH2 0x1F5D JUMP JUMPDEST POP DUP1 PUSH2 0x1F57 JUMP JUMPDEST ADD MLOAD SWAP1 POP DUP9 DUP1 PUSH2 0x1B38 JUMP JUMPDEST SWAP3 POP PUSH1 0xA DUP6 ADD PUSH1 0x0 MSTORE PUSH1 0x20 PUSH1 0x0 KECCAK256 SWAP1 PUSH1 0x0 SWAP4 JUMPDEST PUSH1 0x1F NOT DUP5 AND DUP6 LT PUSH2 0x1FEB JUMPI PUSH1 0x1 SWAP5 POP DUP4 PUSH1 0x1F NOT DUP2 AND LT PUSH2 0x1FD2 JUMPI JUMPDEST POP POP POP DUP2 SHL ADD PUSH1 0xA DUP4 ADD SSTORE PUSH2 0x1B50 JUMP JUMPDEST ADD MLOAD PUSH1 0x0 NOT PUSH1 0xF8 DUP5 PUSH1 0x3 SHL AND SHR NOT AND SWAP1 SSTORE DUP9 DUP1 DUP1 PUSH2 0x1FC2 JUMP JUMPDEST DUP2 DUP2 ADD MLOAD DUP4 SSTORE PUSH1 0x20 SWAP5 DUP6 ADD SWAP5 PUSH1 0x1 SWAP1 SWAP4 ADD SWAP3 SWAP1 SWAP2 ADD SWAP1 PUSH2 0x1FA7 JUMP JUMPDEST SWAP1 SWAP2 POP PUSH1 0xA DUP6 ADD PUSH1 0x0 MSTORE PUSH1 0x20 PUSH1 0x0 KECCAK256 PUSH1 0x1F DUP5 ADD PUSH1 0x5 SHR DUP2 ADD PUSH1 0x20 DUP6 LT PUSH2 0x2052 JUMPI JUMPDEST SWAP1 DUP5 SWAP4 SWAP3 SWAP2 JUMPDEST PUSH1 0x1F DUP4 ADD PUSH1 0x5 SHR DUP3 ADD DUP2 LT PUSH2 0x2043 JUMPI POP POP PUSH2 0x1B21 JUMP JUMPDEST PUSH1 0x0 DUP2 SSTORE DUP6 SWAP5 POP PUSH1 0x1 ADD PUSH2 0x202D JUMP JUMPDEST POP DUP1 PUSH2 0x2027 JUMP JUMPDEST ADD MLOAD SWAP1 POP DUP9 DUP1 PUSH2 0x1ADA JUMP JUMPDEST SWAP3 POP PUSH1 0x9 DUP6 ADD PUSH1 0x0 MSTORE PUSH1 0x20 PUSH1 0x0 KECCAK256 SWAP1 PUSH1 0x0 SWAP4 JUMPDEST PUSH1 0x1F NOT DUP5 AND DUP6 LT PUSH2 0x20BB JUMPI PUSH1 0x1 SWAP5 POP DUP4 PUSH1 0x1F NOT DUP2 AND LT PUSH2 0x20A2 JUMPI JUMPDEST POP POP POP DUP2 SHL ADD PUSH1 0x9 DUP4 ADD SSTORE PUSH2 0x1AF2 JUMP JUMPDEST ADD MLOAD PUSH1 0x0 NOT PUSH1 0xF8 DUP5 PUSH1 0x3 SHL AND SHR NOT AND SWAP1 SSTORE DUP9 DUP1 DUP1 PUSH2 0x2092 JUMP JUMPDEST DUP2 DUP2 ADD MLOAD DUP4 SSTORE PUSH1 0x20 SWAP5 DUP6 ADD SWAP5 PUSH1 0x1 SWAP1 SWAP4 ADD SWAP3 SWAP1 SWAP2 ADD SWAP1 PUSH2 0x2077 JUMP JUMPDEST SWAP1 SWAP2 POP PUSH1 0x9 DUP6 ADD PUSH1 0x0 MSTORE PUSH1 0x20 PUSH1 0x0 KECCAK256 PUSH1 0x1F DUP5 ADD PUSH1 0x5 SHR DUP2 ADD PUSH1 0x20 DUP6 LT PUSH2 0x2122 JUMPI JUMPDEST SWAP1 DUP5 SWAP4 SWAP3 SWAP2 JUMPDEST PUSH1 0x1F DUP4 ADD PUSH1 0x5 SHR DUP3 ADD DUP2 LT PUSH2 0x2113 JUMPI POP POP PUSH2 0x1AC3 JUMP JUMPDEST PUSH1 0x0 DUP2 SSTORE DUP6 SWAP5 POP PUSH1 0x1 ADD PUSH2 0x20FD JUMP JUMPDEST POP DUP1 PUSH2 0x20F7 JUMP JUMPDEST ADD MLOAD SWAP1 POP DUP9 DUP1 PUSH2 0x1A71 JUMP JUMPDEST SWAP3 POP PUSH1 0x7 DUP6 ADD PUSH1 0x0 MSTORE PUSH1 0x20 PUSH1 0x0 KECCAK256 SWAP1 PUSH1 0x0 SWAP4 JUMPDEST PUSH1 0x1F NOT DUP5 AND DUP6 LT PUSH2 0x218B JUMPI PUSH1 0x1 SWAP5 POP DUP4 PUSH1 0x1F NOT DUP2 AND LT PUSH2 0x2172 JUMPI JUMPDEST POP POP POP DUP2 SHL ADD PUSH1 0x7 DUP4 ADD SSTORE PUSH2 0x1A89 JUMP JUMPDEST ADD MLOAD PUSH1 0x0 NOT PUSH1 0xF8 DUP5 PUSH1 0x3 SHL AND SHR NOT AND SWAP1 SSTORE DUP9 DUP1 DUP1 PUSH2 0x2162 JUMP JUMPDEST DUP2 DUP2 ADD MLOAD DUP4 SSTORE PUSH1 0x20 SWAP5 DUP6 ADD SWAP5 PUSH1 0x1 SWAP1 SWAP4 ADD SWAP3 SWAP1 SWAP2 ADD SWAP1 PUSH2 0x2147 JUMP JUMPDEST SWAP1 SWAP2 POP PUSH1 0x7 DUP6 ADD PUSH1 0x0 MSTORE PUSH1 0x20 PUSH1 0x0 KECCAK256 PUSH1 0x1F DUP5 ADD PUSH1 0x5 SHR DUP2 ADD PUSH1 0x20 DUP6 LT PUSH2 0x21F2 JUMPI JUMPDEST SWAP1 DUP5 SWAP4 SWAP3 SWAP2 JUMPDEST PUSH1 0x1F DUP4 ADD PUSH1 0x5 SHR DUP3 ADD DUP2 LT PUSH2 0x21E3 JUMPI POP POP PUSH2 0x1A5A JUMP JUMPDEST PUSH1 0x0 DUP2 SSTORE DUP6 SWAP5 POP PUSH1 0x1 ADD PUSH2 0x21CD JUMP JUMPDEST POP DUP1 PUSH2 0x21C7 JUMP JUMPDEST ADD MLOAD SWAP1 POP DUP9 DUP1 PUSH2 0x1A13 JUMP JUMPDEST SWAP3 POP PUSH1 0x6 DUP6 ADD PUSH1 0x0 MSTORE PUSH1 0x20 PUSH1 0x0 KECCAK256 SWAP1 PUSH1 0x0 SWAP4 JUMPDEST PUSH1 0x1F NOT DUP5 AND DUP6 LT PUSH2 0x225B JUMPI PUSH1 0x1 SWAP5 POP DUP4 PUSH1 0x1F NOT DUP2 AND LT PUSH2 0x2242 JUMPI JUMPDEST POP POP POP DUP2 SHL ADD PUSH1 0x6 DUP4 ADD SSTORE PUSH2 0x1A2B JUMP JUMPDEST ADD MLOAD PUSH1 0x0 NOT PUSH1 0xF8 DUP5 PUSH1 0x3 SHL AND SHR NOT AND SWAP1 SSTORE DUP9 DUP1 DUP1 PUSH2 0x2232 JUMP JUMPDEST DUP2 DUP2 ADD MLOAD DUP4 SSTORE PUSH1 0x20 SWAP5 DUP6 ADD SWAP5 PUSH1 0x1 SWAP1 SWAP4 ADD SWAP3 SWAP1 SWAP2 ADD SWAP1 PUSH2 0x2217 JUMP JUMPDEST SWAP1 SWAP2 POP PUSH1 0x6 DUP6 ADD PUSH1 0x0 MSTORE PUSH1 0x20 PUSH1 0x0 KECCAK256 PUSH1 0x1F DUP5 ADD PUSH1 0x5 SHR DUP2 ADD PUSH1 0x20 DUP6 LT PUSH2 0x22C2 JUMPI JUMPDEST SWAP1 DUP5 SWAP4 SWAP3 SWAP2 JUMPDEST PUSH1 0x1F DUP4 ADD PUSH1 0x5 SHR DUP3 ADD DUP2 LT PUSH2 0x22B3 JUMPI POP POP PUSH2 0x19FC JUMP JUMPDEST PUSH1 0x0 DUP2 SSTORE DUP6 SWAP5 POP PUSH1 0x1 ADD PUSH2 0x229D JUMP JUMPDEST POP DUP1 PUSH2 0x2297 JUMP JUMPDEST ADD MLOAD SWAP1 POP DUP9 DUP1 PUSH2 0x195A JUMP JUMPDEST SWAP3 POP PUSH1 0x4 DUP6 ADD PUSH1 0x0 MSTORE PUSH1 0x20 PUSH1 0x0 KECCAK256 SWAP1 PUSH1 0x0 SWAP4 JUMPDEST PUSH1 0x1F NOT DUP5 AND DUP6 LT PUSH2 0x232B JUMPI PUSH1 0x1 SWAP5 POP DUP4 PUSH1 0x1F NOT DUP2 AND LT PUSH2 0x2312 JUMPI JUMPDEST POP POP POP DUP2 SHL ADD PUSH1 0x4 DUP4 ADD SSTORE PUSH2 0x1972 JUMP JUMPDEST ADD MLOAD PUSH1 0x0 NOT PUSH1 0xF8 DUP5 PUSH1 0x3 SHL AND SHR NOT AND SWAP1 SSTORE DUP9 DUP1 DUP1 PUSH2 0x2302 JUMP JUMPDEST DUP2 DUP2 ADD MLOAD DUP4 SSTORE PUSH1 0x20 SWAP5 DUP6 ADD SWAP5 PUSH1 0x1 SWAP1 SWAP4 ADD SWAP3 SWAP1 SWAP2 ADD SWAP1 PUSH2 0x22E7 JUMP JUMPDEST SWAP1 SWAP2 POP PUSH1 0x4 DUP6 ADD PUSH1 0x0 MSTORE PUSH1 0x20 PUSH1 0x0 KECCAK256 PUSH1 0x1F DUP5 ADD PUSH1 0x5 SHR DUP2 ADD PUSH1 0x20 DUP6 LT PUSH2 0x2392 JUMPI JUMPDEST SWAP1 DUP5 SWAP4 SWAP3 SWAP2 JUMPDEST PUSH1 0x1F DUP4 ADD PUSH1 0x5 SHR DUP3 ADD DUP2 LT PUSH2 0x2383 JUMPI POP POP PUSH2 0x1943 JUMP JUMPDEST PUSH1 0x0 DUP2 SSTORE DUP6 SWAP5 POP PUSH1 0x1 ADD PUSH2 0x236D JUMP JUMPDEST POP DUP1 PUSH2 0x2367 JUMP JUMPDEST ADD MLOAD SWAP1 POP DUP9 DUP1 PUSH2 0x18FD JUMP JUMPDEST SWAP3 POP PUSH1 0x3 DUP6 ADD PUSH1 0x0 MSTORE PUSH1 0x20 PUSH1 0x0 KECCAK256 SWAP1 PUSH1 0x0 SWAP4 JUMPDEST PUSH1 0x1F NOT DUP5 AND DUP6 LT PUSH2 0x23FB JUMPI PUSH1 0x1 SWAP5 POP DUP4 PUSH1 0x1F NOT DUP2 AND LT PUSH2 0x23E2 JUMPI JUMPDEST POP POP POP DUP2 SHL ADD PUSH1 0x3 DUP4 ADD SSTORE PUSH2 0x1915 JUMP JUMPDEST ADD MLOAD PUSH1 0x0 NOT PUSH1 0xF8 DUP5 PUSH1 0x3 SHL AND SHR NOT AND SWAP1 SSTORE DUP9 DUP1 DUP1 PUSH2 0x23D2 JUMP JUMPDEST DUP2 DUP2 ADD MLOAD DUP4 SSTORE PUSH1 0x20 SWAP5 DUP6 ADD SWAP5 PUSH1 0x1 SWAP1 SWAP4 ADD SWAP3 SWAP1 SWAP2 ADD SWAP1 PUSH2 0x23B7 JUMP JUMPDEST SWAP1 SWAP2 POP PUSH1 0x3 DUP6 ADD PUSH1 0x0 MSTORE PUSH1 0x20 PUSH1 0x0 KECCAK256 PUSH1 0x1F DUP5 ADD PUSH1 0x5 SHR DUP2 ADD PUSH1 0x20 DUP6 LT PUSH2 0x2462 JUMPI JUMPDEST SWAP1 DUP5 SWAP4 SWAP3 SWAP2 JUMPDEST PUSH1 0x1F DUP4 ADD PUSH1 0x5 SHR DUP3 ADD DUP2 LT PUSH2 0x2453 JUMPI POP POP PUSH2 0x18E6 JUMP JUMPDEST PUSH1 0x0 DUP2 SSTORE DUP6 SWAP5 POP PUSH1 0x1 ADD PUSH2 0x243D JUMP JUMPDEST POP DUP1 PUSH2 0x2437 JUMP JUMPDEST PUSH1 0x40 MLOAD PUSH3 0x461BCD PUSH1 0xE5 SHL DUP2 MSTORE PUSH1 0x20 PUSH1 0x4 DUP3 ADD MSTORE PUSH1 0x16 PUSH1 0x24 DUP3 ADD MSTORE PUSH22 0x105D591A5D081C9958DBDC99081B9BDD08199BDD5B99 PUSH1 0x52 SHL PUSH1 0x44 DUP3 ADD MSTORE PUSH1 0x64 SWAP1 REVERT JUMPDEST CALLVALUE PUSH2 0x250 JUMPI PUSH1 0x0 CALLDATASIZE PUSH1 0x3 NOT ADD SLT PUSH2 0x250 JUMPI PUSH1 0x20 SWAP1 PUSH1 0x4 SLOAD DUP2 MSTORE RETURN JUMPDEST PUSH2 0x260 DUP2 ADD SWAP1 DUP2 LT PUSH1 0x1 PUSH1 0x1 PUSH1 0x40 SHL SUB DUP3 GT OR PUSH2 0xAE9 JUMPI PUSH1 0x40 MSTORE JUMP JUMPDEST PUSH1 0x20 DUP2 ADD SWAP1 DUP2 LT PUSH1 0x1 PUSH1 0x1 PUSH1 0x40 SHL SUB DUP3 GT OR PUSH2 0xAE9 JUMPI PUSH1 0x40 MSTORE JUMP JUMPDEST SWAP1 PUSH1 0x1F DUP1 NOT SWAP2 ADD AND DUP2 ADD SWAP1 DUP2 LT PUSH1 0x1 PUSH1 0x1 PUSH1 0x40 SHL SUB DUP3 GT OR PUSH2 0xAE9 JUMPI PUSH1 0x40 MSTORE JUMP JUMPDEST DUP2 PUSH1 0x1F DUP3 ADD SLT ISZERO PUSH2 0x250 JUMPI DUP1 CALLDATALOAD SWAP1 PUSH1 0x1 PUSH1 0x1 PUSH1 0x40 SHL SUB DUP3 GT PUSH2 0xAE9 JUMPI PUSH1 0x40 MLOAD SWAP3 PUSH2 0x254E PUSH1 0x1F DUP5 ADD PUSH1 0x1F NOT AND PUSH1 0x20 ADD DUP6 PUSH2 0x24F9 JUMP JUMPDEST DUP3 DUP5 MSTORE PUSH1 0x20 DUP4 DUP4 ADD ADD GT PUSH2 0x250 JUMPI DUP2 PUSH1 0x0 SWAP3 PUSH1 0x20 DUP1 SWAP4 ADD DUP4 DUP7 ADD CALLDATACOPY DUP4 ADD ADD MSTORE SWAP1 JUMP JUMPDEST PUSH1 0x0 JUMPDEST DUP4 DUP2 LT PUSH2 0x2583 JUMPI POP POP PUSH1 0x0 SWAP2 ADD MSTORE JUMP JUMPDEST DUP2 DUP2 ADD MLOAD DUP4 DUP3 ADD MSTORE PUSH1 0x20 ADD PUSH2 0x2573 JUMP JUMPDEST SWAP1 PUSH1 0x20 SWAP2 PUSH2 0x25AC DUP2 MLOAD DUP1 SWAP3 DUP2 DUP6 MSTORE DUP6 DUP1 DUP7 ADD SWAP2 ADD PUSH2 0x2570 JUMP JUMPDEST PUSH1 0x1F ADD PUSH1 0x1F NOT AND ADD ADD SWAP1 JUMP JUMPDEST CALLDATALOAD SWAP1 PUSH1 0xFF DUP3 AND DUP3 SUB PUSH2 0x250 JUMPI JUMP JUMPDEST PUSH1 0x20 PUSH2 0x25DF SWAP2 DUP2 PUSH1 0x40 MLOAD SWAP4 DUP3 DUP6 DUP1 SWAP5 MLOAD SWAP4 DUP5 SWAP3 ADD PUSH2 0x2570 JUMP JUMPDEST DUP2 ADD PUSH1 0x3 DUP2 MSTORE SUB ADD SWAP1 KECCAK256 SWAP1 JUMP JUMPDEST DUP1 SLOAD DUP3 LT ISZERO PUSH2 0x2604 JUMPI PUSH1 0x0 MSTORE PUSH1 0x20 PUSH1 0x0 KECCAK256 ADD SWAP1 PUSH1 0x0 SWAP1 JUMP JUMPDEST PUSH4 0x4E487B71 PUSH1 0xE0 SHL PUSH1 0x0 MSTORE PUSH1 0x32 PUSH1 0x4 MSTORE PUSH1 0x24 PUSH1 0x0 REVERT JUMPDEST SWAP1 PUSH1 0x1 DUP3 DUP2 SHR SWAP3 AND DUP1 ISZERO PUSH2 0x264A JUMPI JUMPDEST PUSH1 0x20 DUP4 LT EQ PUSH2 0x2634 JUMPI JUMP JUMPDEST PUSH4 0x4E487B71 PUSH1 0xE0 SHL PUSH1 0x0 MSTORE PUSH1 0x22 PUSH1 0x4 MSTORE PUSH1 0x24 PUSH1 0x0 REVERT JUMPDEST SWAP2 PUSH1 0x7F AND SWAP2 PUSH2 0x2629 JUMP JUMPDEST SWAP1 PUSH1 0x40 MLOAD SWAP2 DUP3 PUSH1 0x0 DUP3 SLOAD SWAP3 PUSH2 0x2668 DUP5 PUSH2 0x261A JUMP JUMPDEST SWAP1 DUP2 DUP5 MSTORE PUSH1 0x1 SWAP5 DUP6 DUP2 AND SWAP1 DUP2 PUSH1 0x0 EQ PUSH2 0x26D7 JUMPI POP PUSH1 0x1 EQ PUSH2 0x2694 JUMPI JUMPDEST POP POP PUSH2 0x2692 SWAP3 POP SUB DUP4 PUSH2 0x24F9 JUMP JUMPDEST JUMP JUMPDEST SWAP1 SWAP4 SWAP2 POP PUSH1 0x0 MSTORE PUSH1 0x20 SWAP1 DUP2 PUSH1 0x0 KECCAK256 SWAP4 PUSH1 0x0 SWAP2 JUMPDEST DUP2 DUP4 LT PUSH2 0x26BF JUMPI POP POP PUSH2 0x2692 SWAP4 POP DUP3 ADD ADD CODESIZE DUP1 PUSH2 0x2684 JUMP JUMPDEST DUP6 SLOAD DUP9 DUP5 ADD DUP6 ADD MSTORE SWAP5 DUP6 ADD SWAP5 DUP8 SWAP5 POP SWAP2 DUP4 ADD SWAP2 PUSH2 0x26A7 JUMP JUMPDEST SWAP2 POP POP PUSH2 0x2692 SWAP5 POP PUSH1 0x20 SWAP3 POP PUSH1 0xFF NOT AND DUP3 DUP5 ADD MSTORE ISZERO ISZERO PUSH1 0x5 SHL DUP3 ADD ADD CODESIZE DUP1 PUSH2 0x2684 JUMP JUMPDEST PUSH1 0x0 NOT DUP2 EQ PUSH2 0x2709 JUMPI PUSH1 0x1 ADD SWAP1 JUMP JUMPDEST PUSH4 0x4E487B71 PUSH1 0xE0 SHL PUSH1 0x0 MSTORE PUSH1 0x11 PUSH1 0x4 MSTORE PUSH1 0x24 PUSH1 0x0 REVERT JUMPDEST DUP1 SLOAD PUSH9 0x10000000000000000 DUP2 LT ISZERO PUSH2 0xAE9 JUMPI PUSH2 0x2741 SWAP2 PUSH1 0x1 DUP3 ADD DUP2 SSTORE PUSH2 0x25EC JUMP JUMPDEST DUP2 SWAP3 SWAP2 SLOAD SWAP1 PUSH1 0x3 SHL SWAP2 DUP3 SHL SWAP2 PUSH1 0x0 NOT SWAP1 SHL NOT AND OR SWAP1 SSTORE JUMP INVALID LOG2 PUSH5 0x6970667358 0x22 SLT KECCAK256 0xDB CALL 0xAA 0x1F SIGNEXTEND PUSH15 0x2346DB8B4AC6D41BBA4610FF57191F NUMBER 0xAB 0xE9 CHAINID 0x4E KECCAK256 0xA8 0xF6 0xDA PUSH12 0x3B64736F6C63430008130033 "},"methodIdentifiers":{"auditIdToBlockchainId(uint256)":"c2099b62","auditRecords(uint256)":"e74e786d","getAuditRecord(uint256)":"783b8bd0","getBlockchainIdByAuditId(uint256)":"50ecee1b","getPatientAudits(string)":"58dda5de","getTotalRecords()":"0aeacb5e","owner()":"8da5cb5b","patientAudits(string,uint256)":"bc656a64","recordAudit((uint256,uint256,string,string,uint8,uint8,uint8,uint8,bool,string,string))":"a82cf045","recordCounter()":"7599be5d","recordPharmacistAction(uint256,string,string,string,string,string)":"4ac99882"}}}}}