{"contracts/PharmacyWorkflowAudit.sol":{"PharmacyWorkflowAudit":{"abi":[{"inputs":[],"stateMutability":"nonpayable","type":"constructor"},{"anonymous":false,"inputs":[{"indexed":true,"internalType":"string","name":"prescriptionUuid","type":"string"},{"indexed":false,"internalType":"bool","name":"flagged","type":"bool"},{"indexed":false,"internalType":"uint8","name":"eligibilityScore","type":"uint8"},{"indexed":false,"internalType":"uint8","name":"oudRiskScore","type":"uint8"},{"indexed":false,"internalType":"string","name":"flagReason","type":"string"},{"indexed":false,"internalType":"string","name":"recommendation","type":"string"},{"indexed":false,"internalType":"uint256","name":"timestamp","type":"uint256"}],"name":"AIReviewCompleted","type":"event"},{"anonymous":false,"inputs":[{"indexed":true,"internalType":"string","name":"prescriptionUuid","type":"string"},{"indexed":false,"internalType":"string","name":"pharmacistId","type":"string"},{"indexed":false,"internalType":"string","name":"action","type":"string"},{"indexed":false,"internalType":"string","name":"actionReason","type":"string"},{"indexed":false,"internalType":"uint256","name":"timestamp","type":"uint256"}],"name":"PharmacistDecision","type":"event"},{"anonymous":false,"inputs":[{"indexed":true,"internalType":"string","name":"prescriptionUuid","type":"string"},{"indexed":false,"internalType":"string","name":"doctorId","type":"string"},{"indexed":false,"internalType":"uint256","name":"timestamp","type":"uint256"}],"name":"PrescriptionCreated","type":"event"},{"inputs":[],"name":"getStatistics","outputs":[{"internalType":"uint256","name":"prescriptions","type":"uint256"},{"internalType":"uint256","name":"aiReviews","type":"uint256"},{"internalType":"uint256","name":"pharmacistDecisions","type":"uint256"}],"stateMutability":"view","type":"function"},{"inputs":[{"internalType":"string","name":"prescriptionUuid","type":"string"},{"internalType":"bool","name":"flagged","type":"bool"},{"internalType":"uint8","name":"eligibilityScore","type":"uint8"},{"internalType":"uint8","name":"oudRiskScore","type":"uint8"},{"internalType":"string","name":"flagReason","type":"string"},{"internalType":"string","name":"recommendation","type":"string"}],"name":"logAIReview","outputs":[],"stateMutability":"nonpayable","type":"function"},{"inputs":[{"internalType":"string","name":"prescriptionUuid","type":"string"},{"internalType":"string","name":"pharmacistId","type":"string"},{"internalType":"string","name":"action","type":"string"},{"internalType":"string","name":"actionReason","type":"string"}],"name":"logPharmacistDecision","outputs":[],"stateMutability":"nonpayable","type":"function"},{"inputs":[{"internalType":"string","name":"prescriptionUuid","type":"string"},{"internalType":"string","name":"doctorId","type":"string"}],"name":"logPrescriptionCreated","outputs":[],"stateMutability":"nonpayable","type":"function"},{"inputs":[],"name":"owner","outputs":[{"internalType":"address","name":"","type":"address"}],"stateMutability":"view","type":"function"},{"inputs":[{"internalType":"string","name":"","type":"string"}],"name":"prescriptionExists","outputs":[{"internalType":"bool","name":"","type":"bool"}],"stateMutability":"view","type":"function"},{"inputs":[],"name":"totalAIReviews","outputs":[{"internalType":"uint256","name":"","type":"uint256"}],"stateMutability":"view","type":"function"},{"inputs":[],"name":"totalPharmacistDecisions","outputs":[{"internalType":"uint256","name":"","type":"uint256"}],"stateMutability":"view","type":"function"},{"inputs":[],"name":"totalPrescriptions","outputs":[{"internalType":"uint256","name":"","type":"uint256"}],"stateMutability":"view","type":"function"}],"evm":{"bytecode":{"linkReferences":{},"object":"6080806040523461003557600080546001600160a01b0319163317815560018190556002819055600355610824908161003b8239f35b600080fdfe6080604081815260048036101561001557600080fd5b600092833560e01c908163362a2e6c1461067157508063372d6b27146106415780633aa240cb146104b257806342df98bb146102f957806365e63555146102935780636b919b42146102745780636edb019f146102555780638da5cb5b146102295763d4c531841461008657600080fd5b346102255760803660031901126102255767ffffffffffffffff918135838111610221576100b7903690840161068d565b9160243584811161021d576100cf903690830161068d565b92604435858111610219576100e7903690840161068d565b94606435908111610219576100ff903690840161068d565b9161010c8251151561072e565b8451156101d65785511561019a5750610173927f0f296ecc44158aa6b5262a01732c4243145a4588797f9c4de1e44c71ab99b6be949261018161015f61018e94610157600354610784565b6003556107a9565b9783519687966080885260808801906107c9565b9086820360208801526107c9565b91848303908501526107c9565b4260608301520390a280f35b606490602085519162461bcd60e51b83528201526016602482015275416374696f6e2063616e6e6f7420626520656d70747960501b6044820152fd5b606490602085519162461bcd60e51b8352820152601d60248201527f506861726d61636973742049442063616e6e6f7420626520656d7074790000006044820152fd5b8680fd5b8580fd5b8480fd5b8280fd5b505034610251578160031936011261025157905490516001600160a01b039091168152602090f35b5080fd5b5050346102515781600319360112610251576020906002549051908152f35b5050346102515781600319360112610251576020906003549051908152f35b5091346102f65760203660031901126102f65782359067ffffffffffffffff82116102f657506102e2602080946102cf60ff943690830161068d565b908286519483868095519384920161070b565b820190815203019020541690519015158152f35b80fd5b509190346102515760c03660031901126102515767ffffffffffffffff83358181116104ae5761032c903690860161068d565b9060243590811515809203610221576044359260ff841680940361021d576064359060ff8216809203610219576084358381116104aa576103709036908a0161068d565b9260a4359081116104aa576103889036908a0161068d565b976103958251151561072e565b6064861161046757606483116104245750610418927fc68605156ce499dc0976ce4a970166dc4a4c337138fe72026afeb2a0ece8ab84969798926103e961040a936103e1600254610784565b6002556107a9565b9880519788978852602088015286015260c0606086015260c08501906107c9565b9083820360808501526107c9565b4260a08301520390a280f35b606490602088519162461bcd60e51b8352820152601c60248201527f4f5544207269736b2073636f7265206d75737420626520302d313030000000006044820152fd5b606490602088519162461bcd60e51b8352820152601f60248201527f456c69676962696c6974792073636f7265206d75737420626520302d313030006044820152fd5b8780fd5b8380fd5b503461022557816003193601126102255767ffffffffffffffff8135818111610221576104e2903690840161068d565b90602435908111610221576104fa903690840161068d565b916105078251151561072e565b8251156105fe5783519060ff8351926020818187019561052881838961070b565b81018581520301902054166105bb5791610574602061059b937f19be9993a45ed7d41c517a6e45749b58d0ffe49472d0385064bcdcc2c5b29e179695885180948193875192839161070b565b820190815203019020600160ff19825416179055610593600154610784565b6001556107a9565b926105af81519282849384528301906107c9565b4260208301520390a280f35b606490602086519162461bcd60e51b8352820152601b60248201527f507265736372697074696f6e20616c7265616479206c6f6767656400000000006044820152fd5b606490602085519162461bcd60e51b8352820152601960248201527f446f63746f722049442063616e6e6f7420626520656d707479000000000000006044820152fd5b50503461025157816003193601126102515760609060015490600254906003549181519384526020840152820152f35b8490346102515781600319360112610251576020906001548152f35b81601f820112156106f05780359067ffffffffffffffff928383116106f55760405193601f8401601f19908116603f01168501908111858210176106f557604052828452602083830101116106f057816000926020809301838601378301015290565b600080fd5b634e487b7160e01b600052604160045260246000fd5b60005b83811061071e5750506000910152565b818101518382015260200161070e565b1561073557565b60405162461bcd60e51b815260206004820152602160248201527f507265736372697074696f6e20555549442063616e6e6f7420626520656d70746044820152607960f81b6064820152608490fd5b60001981146107935760010190565b634e487b7160e01b600052601160045260246000fd5b6107c19060206040519282848094519384920161070b565b810103902090565b906020916107e28151809281855285808601910161070b565b601f01601f191601019056fea264697066735822122096748beefdb3a1c1e1dd9245ee8f0a914adcc4328bdd9e3f32816766bdf92c4f64736f6c63430008130033","opcodes":"PUSH1 0x80 DUP1 PUSH1 0x40 MSTORE CALLVALUE PUSH2 0x35 JUMPI PUSH1 0x0 DUP1 SLOAD PUSH1 0x1 PUSH1 0x1 PUSH1 0xA0 SHL SUB NOT AND CALLER OR DUP2 SSTORE PUSH1 0x1 DUP2 SWAP1 SSTORE PUSH1 0x2 DUP2 SWAP1 SSTORE PUSH1 0x3 SSTORE PUSH2 0x824 SWAP1 DUP2 PUSH2 0x3B DUP3 CODECOPY RETURN JUMPDEST PUSH1 0x0 DUP1 REVERT INVALID PUSH1 0x80 PUSH1 0x40 DUP2 DUP2 MSTORE PUSH1 0x4 DUP1 CALLDATASIZE LT ISZERO PUSH2 0x15 JUMPI PUSH1 0x0 DUP1 REVERT JUMPDEST PUSH1 0x0 SWAP3 DUP4 CALLDATALOAD PUSH1 0xE0 SHR SWAP1 DUP2 PUSH4 0x362A2E6C EQ PUSH2 0x671 JUMPI POP DUP1 PUSH4 0x372D6B27 EQ PUSH2 0x641 JUMPI DUP1 PUSH4 0x3AA240CB EQ PUSH2 0x4B2 JUMPI DUP1 PUSH4 0x42DF98BB EQ PUSH2 0x2F9 JUMPI DUP1 PUSH4 0x65E63555 EQ PUSH2 0x293 JUMPI DUP1 PUSH4 0x6B919B42 EQ PUSH2 0x274 JUMPI DUP1 PUSH4 0x6EDB019F EQ PUSH2 0x255 JUMPI DUP1 PUSH4 0x8DA5CB5B EQ PUSH2 0x229 JUMPI PUSH4 0xD4C53184 EQ PUSH2 0x86 JUMPI PUSH1 0x0 DUP1 REVERT JUMPDEST CALLVALUE PUSH2 0x225 JUMPI PUSH1 0x80 CALLDATASIZE PUSH1 0x3 NOT ADD SLT PUSH2 0x225 JUMPI PUSH8 0xFFFFFFFFFFFFFFFF SWAP2 DUP2 CALLDATALOAD DUP4 DUP2 GT PUSH2 0x221 JUMPI PUSH2 0xB7 SWAP1 CALLDATASIZE SWAP1 DUP5 ADD PUSH2 0x68D JUMP JUMPDEST SWAP2 PUSH1 0x24 CALLDATALOAD DUP5 DUP2 GT PUSH2 0x21D JUMPI PUSH2 0xCF SWAP1 CALLDATASIZE SWAP1 DUP4 ADD PUSH2 0x68D JUMP JUMPDEST SWAP3 PUSH1 0x44 CALLDATALOAD DUP6 DUP2 GT PUSH2 0x219 JUMPI PUSH2 0xE7 SWAP1 CALLDATASIZE SWAP1 DUP5 ADD PUSH2 0x68D JUMP JUMPDEST SWAP5 PUSH1 0x64 CALLDATALOAD SWAP1 DUP2 GT PUSH2 0x219 JUMPI PUSH2 0xFF SWAP1 CALLDATASIZE SWAP1 DUP5 ADD PUSH2 0x68D JUMP JUMPDEST SWAP2 PUSH2 0x10C DUP3 MLOAD ISZERO ISZERO PUSH2 0x72E JUMP JUMPDEST DUP5 MLOAD ISZERO PUSH2 0x1D6 JUMPI DUP6 MLOAD ISZERO PUSH2 0x19A JUMPI POP PUSH2 0x173 SWAP3 PUSH32 0xF296ECC44158AA6B5262A01732C4243145A4588797F9C4DE1E44C71AB99B6BE SWAP5 SWAP3 PUSH2 0x181 PUSH2 0x15F PUSH2 0x18E SWAP5 PUSH2 0x157 PUSH1 0x3 SLOAD PUSH2 0x784 JUMP JUMPDEST PUSH1 0x3 SSTORE PUSH2 0x7A9 JUMP JUMPDEST SWAP8 DUP4 MLOAD SWAP7 DUP8 SWAP7 PUSH1 0x80 DUP9 MSTORE PUSH1 0x80 DUP9 ADD SWAP1 PUSH2 0x7C9 JUMP JUMPDEST SWAP1 DUP7 DUP3 SUB PUSH1 0x20 DUP9 ADD MSTORE PUSH2 0x7C9 JUMP JUMPDEST SWAP2 DUP5 DUP4 SUB SWAP1 DUP6 ADD MSTORE PUSH2 0x7C9 JUMP JUMPDEST TIMESTAMP PUSH1 0x60 DUP4 ADD MSTORE SUB SWAP1 LOG2 DUP1 RETURN JUMPDEST PUSH1 0x64 SWAP1 PUSH1 0x20 DUP6 MLOAD SWAP2 PUSH3 0x461BCD PUSH1 0xE5 SHL DUP4 MSTORE DUP3 ADD MSTORE PUSH1 0x16 PUSH1 0x24 DUP3 ADD MSTORE PUSH22 0x416374696F6E2063616E6E6F7420626520656D707479 PUSH1 0x50 SHL PUSH1 0x44 DUP3 ADD MSTORE REVERT JUMPDEST PUSH1 0x64 SWAP1 PUSH1 0x20 DUP6 MLOAD SWAP2 PUSH3 0x461BCD PUSH1 0xE5 SHL DUP4 MSTORE DUP3 ADD MSTORE PUSH1 0x1D PUSH1 0x24 DUP3 ADD MSTORE PUSH32 0x506861726D61636973742049442063616E6E6F7420626520656D707479000000 PUSH1 0x44 DUP3 ADD MSTORE REVERT JUMPDEST DUP7 DUP1 REVERT JUMPDEST DUP6 DUP1 REVERT JUMPDEST DUP5 DUP1 REVERT JUMPDEST DUP3 DUP1 REVERT JUMPDEST POP POP CALLVALUE PUSH2 0x251 JUMPI DUP2 PUSH1 0x3 NOT CALLDATASIZE ADD SLT PUSH2 0x251 JUMPI SWAP1 SLOAD SWAP1 MLOAD PUSH1 0x1 PUSH1 0x1 PUSH1 0xA0 SHL SUB SWAP1 SWAP2 AND DUP2 MSTORE PUSH1 0x20 SWAP1 RETURN JUMPDEST POP DUP1 REVERT JUMPDEST POP POP CALLVALUE PUSH2 0x251 JUMPI DUP2 PUSH1 0x3 NOT CALLDATASIZE ADD SLT PUSH2 0x251 JUMPI PUSH1 0x20 SWAP1 PUSH1 0x2 SLOAD SWAP1 MLOAD SWAP1 DUP2 MSTORE RETURN JUMPDEST POP POP CALLVALUE PUSH2 0x251 JUMPI DUP2 PUSH1 0x3 NOT CALLDATASIZE ADD SLT PUSH2 0x251 JUMPI PUSH1 0x20 SWAP1 PUSH1 0x3 SLOAD SWAP1 MLOAD SWAP1 DUP2 MSTORE RETURN JUMPDEST POP SWAP2 CALLVALUE PUSH2 0x2F6 JUMPI PUSH1 0x20 CALLDATASIZE PUSH1 0x3 NOT ADD SLT PUSH2 0x2F6 JUMPI DUP3 CALLDATALOAD SWAP1 PUSH8 0xFFFFFFFFFFFFFFFF DUP3 GT PUSH2 0x2F6 JUMPI POP PUSH2 0x2E2 PUSH1 0x20 DUP1 SWAP5 PUSH2 0x2CF PUSH1 0xFF SWAP5 CALLDATASIZE SWAP1 DUP4 ADD PUSH2 0x68D JUMP JUMPDEST SWAP1 DUP3 DUP7 MLOAD SWAP5 DUP4 DUP7 DUP1 SWAP6 MLOAD SWAP4 DUP5 SWAP3 ADD PUSH2 0x70B JUMP JUMPDEST DUP3 ADD SWAP1 DUP2 MSTORE SUB ADD SWAP1 KECCAK256 SLOAD AND SWAP1 MLOAD SWAP1 ISZERO ISZERO DUP2 MSTORE RETURN JUMPDEST DUP1 REVERT JUMPDEST POP SWAP2 SWAP1 CALLVALUE PUSH2 0x251 JUMPI PUSH1 0xC0 CALLDATASIZE PUSH1 0x3 NOT ADD SLT PUSH2 0x251 JUMPI PUSH8 0xFFFFFFFFFFFFFFFF DUP4 CALLDATALOAD DUP2 DUP2 GT PUSH2 0x4AE JUMPI PUSH2 0x32C SWAP1 CALLDATASIZE SWAP1 DUP7 ADD PUSH2 0x68D JUMP JUMPDEST SWAP1 PUSH1 0x24 CALLDATALOAD SWAP1 DUP2 ISZERO ISZERO DUP1 SWAP3 SUB PUSH2 0x221 JUMPI PUSH1 0x44 CALLDATALOAD SWAP3 PUSH1 0xFF DUP5 AND DUP1 SWAP5 SUB PUSH2 0x21D JUMPI PUSH1 0x64 CALLDATALOAD SWAP1 PUSH1 0xFF DUP3 AND DUP1 SWAP3 SUB PUSH2 0x219 JUMPI PUSH1 0x84 CALLDATALOAD DUP4 DUP2 GT PUSH2 0x4AA JUMPI PUSH2 0x370 SWAP1 CALLDATASIZE SWAP1 DUP11 ADD PUSH2 0x68D JUMP JUMPDEST SWAP3 PUSH1 0xA4 CALLDATALOAD SWAP1 DUP2 GT PUSH2 0x4AA JUMPI PUSH2 0x388 SWAP1 CALLDATASIZE SWAP1 DUP11 ADD PUSH2 0x68D JUMP JUMPDEST SWAP8 PUSH2 0x395 DUP3 MLOAD ISZERO ISZERO PUSH2 0x72E JUMP JUMPDEST PUSH1 0x64 DUP7 GT PUSH2 0x467 JUMPI PUSH1 0x64 DUP4 GT PUSH2 0x424 JUMPI POP PUSH2 0x418 SWAP3 PUSH32 0xC68605156CE499DC0976CE4A970166DC4A4C337138FE72026AFEB2A0ECE8AB84 SWAP7 SWAP8 SWAP9 SWAP3 PUSH2 0x3E9 PUSH2 0x40A SWAP4 PUSH2 0x3E1 PUSH1 0x2 SLOAD PUSH2 0x784 JUMP JUMPDEST PUSH1 0x2 SSTORE PUSH2 0x7A9 JUMP JUMPDEST SWAP9 DUP1 MLOAD SWAP8 DUP9 SWAP8 DUP9 MSTORE PUSH1 0x20 DUP9 ADD MSTORE DUP7 ADD MSTORE PUSH1 0xC0 PUSH1 0x60 DUP7 ADD MSTORE PUSH1 0xC0 DUP6 ADD SWAP1 PUSH2 0x7C9 JUMP JUMPDEST SWAP1 DUP4 DUP3 SUB PUSH1 0x80 DUP6 ADD MSTORE PUSH2 0x7C9 JUMP JUMPDEST TIMESTAMP PUSH1 0xA0 DUP4 ADD MSTORE SUB SWAP1 LOG2 DUP1 RETURN JUMPDEST PUSH1 0x64 SWAP1 PUSH1 0x20 DUP9 MLOAD SWAP2 PUSH3 0x461BCD PUSH1 0xE5 SHL DUP4 MSTORE DUP3 ADD MSTORE PUSH1 0x1C PUSH1 0x24 DUP3 ADD MSTORE PUSH32 0x4F5544207269736B2073636F7265206D75737420626520302D31303000000000 PUSH1 0x44 DUP3 ADD MSTORE REVERT JUMPDEST PUSH1 0x64 SWAP1 PUSH1 0x20 DUP9 MLOAD SWAP2 PUSH3 0x461BCD PUSH1 0xE5 SHL DUP4 MSTORE DUP3 ADD MSTORE PUSH1 0x1F PUSH1 0x24 DUP3 ADD MSTORE PUSH32 0x456C69676962696C6974792073636F7265206D75737420626520302D31303000 PUSH1 0x44 DUP3 ADD MSTORE REVERT JUMPDEST DUP8 DUP1 REVERT JUMPDEST DUP4 DUP1 REVERT JUMPDEST POP CALLVALUE PUSH2 0x225 JUMPI DUP2 PUSH1 0x3 NOT CALLDATASIZE ADD SLT PUSH2 0x225 JUMPI PUSH8 0xFFFFFFFFFFFFFFFF DUP2 CALLDATALOAD DUP2 DUP2 GT PUSH2 0x221 JUMPI PUSH2 0x4E2 SWAP1 CALLDATASIZE SWAP1 DUP5 ADD PUSH2 0x68D JUMP JUMPDEST SWAP1 PUSH1 0x24 CALLDATALOAD SWAP1 DUP2 GT PUSH2 0x221 JUMPI PUSH2 0x4FA SWAP1 CALLDATASIZE SWAP1 DUP5 ADD PUSH2 0x68D JUMP JUMPDEST SWAP2 PUSH2 0x507 DUP3 MLOAD ISZERO ISZERO PUSH2 0x72E JUMP JUMPDEST DUP3 MLOAD ISZERO PUSH2 0x5FE JUMPI DUP4 MLOAD SWAP1 PUSH1 0xFF DUP4 MLOAD SWAP3 PUSH1 0x20 DUP2 DUP2 DUP8 ADD SWAP6 PUSH2 0x528 DUP2 DUP4 DUP10 PUSH2 0x70B JUMP JUMPDEST DUP2 ADD DUP6 DUP2 MSTORE SUB ADD SWAP1 KECCAK256 SLOAD AND PUSH2 0x5BB JUMPI SWAP2 PUSH2 0x574 PUSH1 0x20 PUSH2 0x59B SWAP4 PUSH32 0x19BE9993A45ED7D41C517A6E45749B58D0FFE49472D0385064BCDCC2C5B29E17 SWAP7 SWAP6 DUP9 MLOAD DUP1 SWAP5 DUP2 SWAP4 DUP8 MLOAD SWAP3 DUP4 SWAP2 PUSH2 0x70B JUMP JUMPDEST DUP3 ADD SWAP1 DUP2 MSTORE SUB ADD SWAP1 KECCAK256 PUSH1 0x1 PUSH1 0xFF NOT DUP3 SLOAD AND OR SWAP1 SSTORE PUSH2 0x593 PUSH1 0x1 SLOAD PUSH2 0x784 JUMP JUMPDEST PUSH1 0x1 SSTORE PUSH2 0x7A9 JUMP JUMPDEST SWAP3 PUSH2 0x5AF DUP2 MLOAD SWAP3 DUP3 DUP5 SWAP4 DUP5 MSTORE DUP4 ADD SWAP1 PUSH2 0x7C9 JUMP JUMPDEST TIMESTAMP PUSH1 0x20 DUP4 ADD MSTORE SUB SWAP1 LOG2 DUP1 RETURN JUMPDEST PUSH1 0x64 SWAP1 PUSH1 0x20 DUP7 MLOAD SWAP2 PUSH3 0x461BCD PUSH1 0xE5 SHL DUP4 MSTORE DUP3 ADD MSTORE PUSH1 0x1B PUSH1 0x24 DUP3 ADD MSTORE PUSH32 0x507265736372697074696F6E20616C7265616479206C6F676765640000000000 PUSH1 0x44 DUP3 ADD MSTORE REVERT JUMPDEST PUSH1 0x64 SWAP1 PUSH1 0x20 DUP6 MLOAD SWAP2 PUSH3 0x461BCD PUSH1 0xE5 SHL DUP4 MSTORE DUP3 ADD MSTORE PUSH1 0x19 PUSH1 0x24 DUP3 ADD MSTORE PUSH32 0x446F63746F722049442063616E6E6F7420626520656D70747900000000000000 PUSH1 0x44 DUP3 ADD MSTORE REVERT JUMPDEST POP POP CALLVALUE PUSH2 0x251 JUMPI DUP2 PUSH1 0x3 NOT CALLDATASIZE ADD SLT PUSH2 0x251 JUMPI PUSH1 0x60 SWAP1 PUSH1 0x1 SLOAD SWAP1 PUSH1 0x2 SLOAD SWAP1 PUSH1 0x3 SLOAD SWAP2 DUP2 MLOAD SWAP4 DUP5 MSTORE PUSH1 0x20 DUP5 ADD MSTORE DUP3 ADD MSTORE RETURN JUMPDEST DUP5 SWAP1 CALLVALUE PUSH2 0x251 JUMPI DUP2 PUSH1 0x3 NOT CALLDATASIZE ADD SLT PUSH2 0x251 JUMPI PUSH1 0x20 SWAP1 PUSH1 0x1 SLOAD DUP2 MSTORE RETURN JUMPDEST DUP2 PUSH1 0x1F DUP3 ADD SLT ISZERO PUSH2 0x6F0 JUMPI DUP1 CALLDATALOAD SWAP1 PUSH8 0xFFFFFFFFFFFFFFFF SWAP3 DUP4 DUP4 GT PUSH2 0x6F5 JUMPI PUSH1 0x40 MLOAD SWAP4 PUSH1 0x1F DUP5 ADD PUSH1 0x1F NOT SWAP1 DUP2 AND PUSH1 0x3F ADD AND DUP6 ADD SWAP1 DUP2 GT DUP6 DUP3 LT OR PUSH2 0x6F5 JUMPI PUSH1 0x40 MSTORE DUP3 DUP5 MSTORE PUSH1 0x20 DUP4 DUP4 ADD ADD GT PUSH2 0x6F0 JUMPI DUP2 PUSH1 0x0 SWAP3 PUSH1 0x20 DUP1 SWAP4 ADD DUP4 DUP7 ADD CALLDATACOPY DUP4 ADD ADD MSTORE SWAP1 JUMP JUMPDEST PUSH1 0x0 DUP1 REVERT JUMPDEST PUSH4 0x4E487B71 PUSH1 0xE0 SHL PUSH1 0x0 MSTORE PUSH1 0x41 PUSH1 0x4 MSTORE PUSH1 0x24 PUSH1 0x0 REVERT JUMPDEST PUSH1 0x0 JUMPDEST DUP4 DUP2 LT PUSH2 0x71E JUMPI POP POP PUSH1 0x0 SWAP2 ADD MSTORE JUMP JUMPDEST DUP2 DUP2 ADD MLOAD DUP4 DUP3 ADD MSTORE PUSH1 0x20 ADD PUSH2 0x70E JUMP JUMPDEST ISZERO PUSH2 0x735 JUMPI JUMP JUMPDEST PUSH1 0x40 MLOAD PUSH3 0x461BCD PUSH1 0xE5 SHL DUP2 MSTORE PUSH1 0x20 PUSH1 0x4 DUP3 ADD MSTORE PUSH1 0x21 PUSH1 0x24 DUP3 ADD MSTORE PUSH32 0x507265736372697074696F6E20555549442063616E6E6F7420626520656D7074 PUSH1 0x44 DUP3 ADD MSTORE PUSH1 0x79 PUSH1 0xF8 SHL PUSH1 0x64 DUP3 ADD MSTORE PUSH1 0x84 SWAP1 REVERT JUMPDEST PUSH1 0x0 NOT DUP2 EQ PUSH2 0x793 JUMPI PUSH1 0x1 ADD SWAP1 JUMP JUMPDEST PUSH4 0x4E487B71 PUSH1 0xE0 SHL PUSH1 0x0 MSTORE PUSH1 0x11 PUSH1 0x4 MSTORE PUSH1 0x24 PUSH1 0x0 REVERT JUMPDEST PUSH2 0x7C1 SWAP1 PUSH1 0x20 PUSH1 0x40 MLOAD SWAP3 DUP3 DUP5 DUP1 SWAP5 MLOAD SWAP4 DUP5 SWAP3 ADD PUSH2 0x70B JUMP JUMPDEST DUP2 ADD SUB SWAP1 KECCAK256 SWAP1 JUMP JUMPDEST SWAP1 PUSH1 0x20 SWAP2 PUSH2 0x7E2 DUP2 MLOAD DUP1 SWAP3 DUP2 DUP6 MSTORE DUP6 DUP1 DUP7 ADD SWAP2 ADD PUSH2 0x70B JUMP JUMPDEST PUSH1 0x1F ADD PUSH1 0x1F NOT AND ADD ADD SWAP1 JUMP INVALID LOG2 PUSH5 0x6970667358 0x22 SLT KECCAK256 SWAP7 PUSH21 0x8BEEFDB3A1C1E1DD9245EE8F0A914ADCC4328BDD9E EXTCODEHASH ORIGIN DUP2 PUSH8 0x66BDF92C4F64736F PUSH13 0x63430008130033000000000000 "},"methodIdentifiers":{"getStatistics()":"372d6b27","logAIReview(string,bool,uint8,uint8,string,string)":"42df98bb","logPharmacistDecision(string,string,string,string)":"d4c53184","logPrescriptionCreated(string,string)":"3aa240cb","owner()":"8da5cb5b","prescriptionExists(string)":"65e63555","totalAIReviews()":"6edb019f","totalPharmacistDecisions()":"6b919b42","totalPrescriptions()":"362a2e6c"}}}}}