{"contracts/PharmacyWorkflowAudit.sol":{"PharmacyWorkflowAudit":{"abi":[{"inputs":[],"stateMutability":"nonpayable","type":"constructor"},{"anonymous":false,"inputs":[{"indexed":true,"internalType":"string","name":"prescriptionUuid","type":"string"},{"indexed":false,"internalType":"bool","name":"flagged","type":"bool"},{"indexed":false,"internalType":"uint8","name":"eligibilityScore","type":"uint8"},{"indexed":false,"internalType":"uint8","name":"oudRiskScore","type":"uint8"},{"indexed":false,"internalType":"string","name":"flagReason","type":"string"},{"indexed":false,"internalType":"string","name":"recommendation","type":"string"},{"indexed":false,"internalType":"uint256","name":"timestamp","type":"uint256"}],"name":"AIReviewCompleted","type":"event"},{"anonymous":false,"inputs":[{"indexed":true,"internalType":"string","name":"prescriptionUuid","type":"string"},{"indexed":false,"internalType":"string","name":"doctorId","type":"string"},{"indexed":false,"internalType":"string","name":"cancellationReason","type":"string"},{"indexed":false,"internalType":"uint256","name":"timestamp","type":"uint256"}],"name":"DoctorCancelsPrescription","type":"event"},{"anonymous":false,"inputs":[{"indexed":true,"internalType":"string","name":"prescriptionUuid","type":"string"},{"indexed":false,"internalType":"string","name":"doctorId","type":"string"},{"indexed":false,"internalType":"string","name":"doctorName","type":"string"},{"indexed":false,"internalType":"string","name":"responseComments","type":"string"},{"indexed":false,"internalType":"uint256","name":"timestamp","type":"uint256"}],"name":"DoctorRespondsToReview","type":"event"},{"anonymous":false,"inputs":[{"indexed":true,"internalType":"string","name":"prescriptionUuid","type":"string"},{"indexed":false,"internalType":"string","name":"pharmacistId","type":"string"},{"indexed":false,"internalType":"string","name":"action","type":"string"},{"indexed":false,"internalType":"string","name":"actionReason","type":"string"},{"indexed":false,"internalType":"uint256","name":"timestamp","type":"uint256"}],"name":"PharmacistDecision","type":"event"},{"anonymous":false,"inputs":[{"indexed":true,"internalType":"string","name":"prescriptionUuid","type":"string"},{"indexed":false,"internalType":"string","name":"pharmacistId","type":"string"},{"indexed":false,"internalType":"string","name":"pharmacistName","type":"string"},{"indexed":false,"internalType":"string","name":"reviewComments","type":"string"},{"indexed":false,"internalType":"uint256","name":"timestamp","type":"uint256"}],"name":"PharmacistRequestsReview","type":"event"},{"anonymous":false,"inputs":[{"indexed":true,"internalType":"string","name":"prescriptionUuid","type":"string"},{"indexed":false,"internalType":"string","name":"doctorId","type":"string"},{"indexed":false,"internalType":"uint256","name":"timestamp","type":"uint256"}],"name":"PrescriptionCreated","type":"event"},{"inputs":[],"name":"getStatistics","outputs":[{"internalType":"uint256","name":"prescriptions","type":"uint256"},{"internalType":"uint256","name":"aiReviews","type":"uint256"},{"internalType":"uint256","name":"pharmacistDecisions","type":"uint256"},{"internalType":"uint256","name":"reviewRequests","type":"uint256"},{"internalType":"uint256","name":"doctorResponses","type":"uint256"},{"internalType":"uint256","name":"cancellations","type":"uint256"}],"stateMutability":"view","type":"function"},{"inputs":[{"internalType":"string","name":"prescriptionUuid","type":"string"},{"internalType":"bool","name":"flagged","type":"bool"},{"internalType":"uint8","name":"eligibilityScore","type":"uint8"},{"internalType":"uint8","name":"oudRiskScore","type":"uint8"},{"internalType":"string","name":"flagReason","type":"string"},{"internalType":"string","name":"recommendation","type":"string"}],"name":"logAIReview","outputs":[],"stateMutability":"nonpayable","type":"function"},{"inputs":[{"internalType":"string","name":"prescriptionUuid","type":"string"},{"internalType":"string","name":"doctorId","type":"string"},{"internalType":"string","name":"cancellationReason","type":"string"}],"name":"logDoctorCancelsPrescription","outputs":[],"stateMutability":"nonpayable","type":"function"},{"inputs":[{"internalType":"string","name":"prescriptionUuid","type":"string"},{"internalType":"string","name":"doctorId","type":"string"},{"internalType":"string","name":"doctorName","type":"string"},{"internalType":"string","name":"responseComments","type":"string"}],"name":"logDoctorRespondsToReview","outputs":[],"stateMutability":"nonpayable","type":"function"},{"inputs":[{"internalType":"string","name":"prescriptionUuid","type":"string"},{"internalType":"string","name":"pharmacistId","type":"string"},{"internalType":"string","name":"action","type":"string"},{"internalType":"string","name":"actionReason","type":"string"}],"name":"logPharmacistDecision","outputs":[],"stateMutability":"nonpayable","type":"function"},{"inputs":[{"internalType":"string","name":"prescriptionUuid","type":"string"},{"internalType":"string","name":"pharmacistId","type":"string"},{"internalType":"string","name":"pharmacistName","type":"string"},{"internalType":"string","name":"reviewComments","type":"string"}],"name":"logPharmacistRequestsReview","outputs":[],"stateMutability":"nonpayable","type":"function"},{"inputs":[{"internalType":"string","name":"prescriptionUuid","type":"string"},{"internalType":"string","name":"doctorId","type":"string"}],"name":"logPrescriptionCreated","outputs":[],"stateMutability":"nonpayable","type":"function"},{"inputs":[],"name":"owner","outputs":[{"internalType":"address","name":"","type":"address"}],"stateMutability":"view","type":"function"},{"inputs":[{"internalType":"string","name":"","type":"string"}],"name":"prescriptionExists","outputs":[{"internalType":"bool","name":"","type":"bool"}],"stateMutability":"view","type":"function"},{"inputs":[],"name":"totalAIReviews","outputs":[{"internalType":"uint256","name":"","type":"uint256"}],"stateMutability":"view","type":"function"},{"inputs":[],"name":"totalCancellations","outputs":[{"internalType":"uint256","name":"","type":"uint256"}],"stateMutability":"view","type":"function"},{"inputs":[],"name":"totalDoctorResponses","outputs":[{"internalType":"uint256","name":"","type":"uint256"}],"stateMutability":"view","type":"function"},{"inputs":[],"name":"totalPharmacistDecisions","outputs":[{"internalType":"uint256","name":"","type":"uint256"}],"stateMutability":"view","type":"function"},{"inputs":[],"name":"totalPrescriptions","outputs":[{"internalType":"uint256","name":"","type":"uint256"}],"stateMutability":"view","type":"function"},{"inputs":[],"name":"totalReviewRequests","outputs":[{"internalType":"uint256","name":"","type":"uint256"}],"stateMutability":"view","type":"function"}],"evm":{"bytecode":{"linkReferences":{},"object":"6080806040523461003e5760003360018060a01b03198254161781558060015580600255806003558060045580600555600655610acf90816100448239f35b600080fdfe608060408181526004918236101561001657600080fd5b600092833560e01c9182632c4e9b04146107ce5750816331a93d63146106e7578163362a2e6c146106c8578163372d6b271461067e5781633aa240cb1461052a57816342df98bb1461036657816365e63555146103015781636b919b42146102e25781636edb019f146102c35781637a97de121461025d5781637d83fc6f1461023b5781638cfe87b7146101d45781638da5cb5b146101ac578163d4c53184146100eb575063e14b4311146100ca57600080fd5b346100e757816003193601126100e7576020906005549051908152f35b5080fd5b8383346100e7576100fb3661088b565b9290919561010b82511515610902565b61011787511515610a0e565b82511561017057507f0f296ecc44158aa6b5262a01732c4243145a4588797f9c4de1e44c71ab99b6be93949561015d61016a926101556003546109a4565b6003556109c9565b9551938493429285610a5a565b0390a280f35b606490602086519162461bcd60e51b83528201526016602482015275416374696f6e2063616e6e6f7420626520656d70747960501b6044820152fd5b5050346100e757816003193601126100e757905490516001600160a01b039091168152602090f35b5050346100e7577fbd93a39e8a6c8a3e698a01bf31bf027282e43f3b098638cad485fccfe026f8a561016a61015d61020b3661088b565b949261021c81959295511515610902565b61022883511515610958565b6102336005546109a4565b6005556109c9565b90503461025957826003193601126102595760209250549051908152f35b8280fd5b9050346102595761015d7fc5c3b5b26d0b5ff61a441baa7a2dfd831502cb38feef821cbdfb98451e806a769161016a6102953661088b565b95919290946102a682511515610902565b6102b284511515610a0e565b6102bc81546109a4565b90556109c9565b5050346100e757816003193601126100e7576020906002549051908152f35b5050346100e757816003193601126100e7576020906003549051908152f35b8284346103635760203660031901126103635782359067ffffffffffffffff8211610363575061034e602061033c819560ff943691016107ea565b81855193828580945193849201610868565b81016007815203019020541690519015158152f35b80fd5b8383346100e75760c03660031901126100e75767ffffffffffffffff83358181116105265761039890369086016107ea565b9060243590811515809203610522576044359260ff841680940361051e576064359060ff821680920361051a57608435838111610516576103dc9036908a016107ea565b9260a435908111610516576103f49036908a016107ea565b9761040182511515610902565b606486116104d357606483116104905750610484927fc68605156ce499dc0976ce4a970166dc4a4c337138fe72026afeb2a0ece8ab84969798926104556104769361044d6002546109a4565b6002556109c9565b9880519788978852602088015286015260c0606086015260c08501906109e9565b9083820360808501526109e9565b4260a08301520390a280f35b606490602088519162461bcd60e51b8352820152601c60248201527f4f5544207269736b2073636f7265206d75737420626520302d313030000000006044820152fd5b606490602088519162461bcd60e51b8352820152601f60248201527f456c69676962696c6974792073636f7265206d75737420626520302d313030006044820152fd5b8780fd5b8680fd5b8580fd5b8480fd5b8380fd5b90503461025957816003193601126102595767ffffffffffffffff81358181116105225761055b90369084016107ea565b906024359081116105225761057390369084016107ea565b9161058082511515610902565b61058c83511515610958565b83519060ff835192602081818701956105a6818389610868565b81016007815203019020541661063b57507f19be9993a45ed7d41c517a6e45749b58d0ffe49472d0385064bcdcc2c5b29e1792916105f3602061061b938751809381928651928391610868565b81016007815203019020600160ff198254161790556106136001546109a4565b6001556109c9565b9261062f81519282849384528301906109e9565b4260208301520390a280f35b606490602086519162461bcd60e51b8352820152601b60248201527f507265736372697074696f6e20616c7265616479206c6f6767656400000000006044820152fd5b90503461025957826003193601126102595760c0925060015491600254916003549054906005549260065494815196875260208701528501526060840152608083015260a0820152f35b5050346100e757816003193601126100e7576020906001549051908152f35b9050346102595760603660031901126102595767ffffffffffffffff9080358281116105225761071a90369083016107ea565b9260243583811161051e5761073290369084016107ea565b9060443593841161051e576107c26107a06107746107b4957fecae5290f872da7e2f2a9d95ab0db3130bbfb94b59e8f70600148d17bf1f2541973691016107ea565b9661078181511515610902565b61078d85511515610958565b6107986006546109a4565b6006556109c9565b9582519485946060865260608601906109e9565b9084820360208601526109e9565b9042908301520390a280f35b8490346100e757816003193601126100e7576020906006548152f35b81601f8201121561084d5780359067ffffffffffffffff928383116108525760405193601f8401601f19908116603f0116850190811185821017610852576040528284526020838301011161084d57816000926020809301838601378301015290565b600080fd5b634e487b7160e01b600052604160045260246000fd5b60005b83811061087b5750506000910152565b818101518382015260200161086b565b608060031982011261084d5767ffffffffffffffff9060043582811161084d57816108b8916004016107ea565b9260243583811161084d57826108d0916004016107ea565b9260443581811161084d57836108e8916004016107ea565b9260643591821161084d576108ff916004016107ea565b90565b1561090957565b60405162461bcd60e51b815260206004820152602160248201527f507265736372697074696f6e20555549442063616e6e6f7420626520656d70746044820152607960f81b6064820152608490fd5b1561095f57565b60405162461bcd60e51b815260206004820152601960248201527f446f63746f722049442063616e6e6f7420626520656d707479000000000000006044820152606490fd5b60001981146109b35760010190565b634e487b7160e01b600052601160045260246000fd5b6109e190602060405192828480945193849201610868565b810103902090565b90602091610a0281518092818552858086019101610868565b601f01601f1916010190565b15610a1557565b60405162461bcd60e51b815260206004820152601d60248201527f506861726d61636973742049442063616e6e6f7420626520656d7074790000006044820152606490fd5b949392610a86606093610a78610a949460808a5260808a01906109e9565b9088820360208a01526109e9565b9086820360408801526109e9565b93015256fea2646970667358221220cadd5e5a70a7964cd23f287ce22d85c769626991da95235d0d536210747a5bef64736f6c63430008130033","opcodes":"PUSH1 0x80 DUP1 PUSH1 0x40 MSTORE CALLVALUE PUSH2 0x3E JUMPI PUSH1 0x0 CALLER PUSH1 0x1 DUP1 PUSH1 0xA0 SHL SUB NOT DUP3 SLOAD AND OR DUP2 SSTORE DUP1 PUSH1 0x1 SSTORE DUP1 PUSH1 0x2 SSTORE DUP1 PUSH1 0x3 SSTORE DUP1 PUSH1 0x4 SSTORE DUP1 PUSH1 0x5 SSTORE PUSH1 0x6 SSTORE PUSH2 0xACF SWAP1 DUP2 PUSH2 0x44 DUP3 CODECOPY RETURN JUMPDEST PUSH1 0x0 DUP1 REVERT INVALID PUSH1 0x80 PUSH1 0x40 DUP2 DUP2 MSTORE PUSH1 0x4 SWAP2 DUP3 CALLDATASIZE LT ISZERO PUSH2 0x16 JUMPI PUSH1 0x0 DUP1 REVERT JUMPDEST PUSH1 0x0 SWAP3 DUP4 CALLDATALOAD PUSH1 0xE0 SHR SWAP2 DUP3 PUSH4 0x2C4E9B04 EQ PUSH2 0x7CE JUMPI POP DUP2 PUSH4 0x31A93D63 EQ PUSH2 0x6E7 JUMPI DUP2 PUSH4 0x362A2E6C EQ PUSH2 0x6C8 JUMPI DUP2 PUSH4 0x372D6B27 EQ PUSH2 0x67E JUMPI DUP2 PUSH4 0x3AA240CB EQ PUSH2 0x52A JUMPI DUP2 PUSH4 0x42DF98BB EQ PUSH2 0x366 JUMPI DUP2 PUSH4 0x65E63555 EQ PUSH2 0x301 JUMPI DUP2 PUSH4 0x6B919B42 EQ PUSH2 0x2E2 JUMPI DUP2 PUSH4 0x6EDB019F EQ PUSH2 0x2C3 JUMPI DUP2 PUSH4 0x7A97DE12 EQ PUSH2 0x25D JUMPI DUP2 PUSH4 0x7D83FC6F EQ PUSH2 0x23B JUMPI DUP2 PUSH4 0x8CFE87B7 EQ PUSH2 0x1D4 JUMPI DUP2 PUSH4 0x8DA5CB5B EQ PUSH2 0x1AC JUMPI DUP2 PUSH4 0xD4C53184 EQ PUSH2 0xEB JUMPI POP PUSH4 0xE14B4311 EQ PUSH2 0xCA JUMPI PUSH1 0x0 DUP1 REVERT JUMPDEST CALLVALUE PUSH2 0xE7 JUMPI DUP2 PUSH1 0x3 NOT CALLDATASIZE ADD SLT PUSH2 0xE7 JUMPI PUSH1 0x20 SWAP1 PUSH1 0x5 SLOAD SWAP1 MLOAD SWAP1 DUP2 MSTORE RETURN JUMPDEST POP DUP1 REVERT JUMPDEST DUP4 DUP4 CALLVALUE PUSH2 0xE7 JUMPI PUSH2 0xFB CALLDATASIZE PUSH2 0x88B JUMP JUMPDEST SWAP3 SWAP1 SWAP2 SWAP6 PUSH2 0x10B DUP3 MLOAD ISZERO ISZERO PUSH2 0x902 JUMP JUMPDEST PUSH2 0x117 DUP8 MLOAD ISZERO ISZERO PUSH2 0xA0E JUMP JUMPDEST DUP3 MLOAD ISZERO PUSH2 0x170 JUMPI POP PUSH32 0xF296ECC44158AA6B5262A01732C4243145A4588797F9C4DE1E44C71AB99B6BE SWAP4 SWAP5 SWAP6 PUSH2 0x15D PUSH2 0x16A SWAP3 PUSH2 0x155 PUSH1 0x3 SLOAD PUSH2 0x9A4 JUMP JUMPDEST PUSH1 0x3 SSTORE PUSH2 0x9C9 JUMP JUMPDEST SWAP6 MLOAD SWAP4 DUP5 SWAP4 TIMESTAMP SWAP3 DUP6 PUSH2 0xA5A JUMP JUMPDEST SUB SWAP1 LOG2 DUP1 RETURN JUMPDEST PUSH1 0x64 SWAP1 PUSH1 0x20 DUP7 MLOAD SWAP2 PUSH3 0x461BCD PUSH1 0xE5 SHL DUP4 MSTORE DUP3 ADD MSTORE PUSH1 0x16 PUSH1 0x24 DUP3 ADD MSTORE PUSH22 0x416374696F6E2063616E6E6F7420626520656D707479 PUSH1 0x50 SHL PUSH1 0x44 DUP3 ADD MSTORE REVERT JUMPDEST POP POP CALLVALUE PUSH2 0xE7 JUMPI DUP2 PUSH1 0x3 NOT CALLDATASIZE ADD SLT PUSH2 0xE7 JUMPI SWAP1 SLOAD SWAP1 MLOAD PUSH1 0x1 PUSH1 0x1 PUSH1 0xA0 SHL SUB SWAP1 SWAP2 AND DUP2 MSTORE PUSH1 0x20 SWAP1 RETURN JUMPDEST POP POP CALLVALUE PUSH2 0xE7 JUMPI PUSH32 0xBD93A39E8A6C8A3E698A01BF31BF027282E43F3B098638CAD485FCCFE026F8A5 PUSH2 0x16A PUSH2 0x15D PUSH2 0x20B CALLDATASIZE PUSH2 0x88B JUMP JUMPDEST SWAP5 SWAP3 PUSH2 0x21C DUP2 SWAP6 SWAP3 SWAP6 MLOAD ISZERO ISZERO PUSH2 0x902 JUMP JUMPDEST PUSH2 0x228 DUP4 MLOAD ISZERO ISZERO PUSH2 0x958 JUMP JUMPDEST PUSH2 0x233 PUSH1 0x5 SLOAD PUSH2 0x9A4 JUMP JUMPDEST PUSH1 0x5 SSTORE PUSH2 0x9C9 JUMP JUMPDEST SWAP1 POP CALLVALUE PUSH2 0x259 JUMPI DUP3 PUSH1 0x3 NOT CALLDATASIZE ADD SLT PUSH2 0x259 JUMPI PUSH1 0x20 SWAP3 POP SLOAD SWAP1 MLOAD SWAP1 DUP2 MSTORE RETURN JUMPDEST DUP3 DUP1 REVERT JUMPDEST SWAP1 POP CALLVALUE PUSH2 0x259 JUMPI PUSH2 0x15D PUSH32 0xC5C3B5B26D0B5FF61A441BAA7A2DFD831502CB38FEEF821CBDFB98451E806A76 SWAP2 PUSH2 0x16A PUSH2 0x295 CALLDATASIZE PUSH2 0x88B JUMP JUMPDEST SWAP6 SWAP2 SWAP3 SWAP1 SWAP5 PUSH2 0x2A6 DUP3 MLOAD ISZERO ISZERO PUSH2 0x902 JUMP JUMPDEST PUSH2 0x2B2 DUP5 MLOAD ISZERO ISZERO PUSH2 0xA0E JUMP JUMPDEST PUSH2 0x2BC DUP2 SLOAD PUSH2 0x9A4 JUMP JUMPDEST SWAP1 SSTORE PUSH2 0x9C9 JUMP JUMPDEST POP POP CALLVALUE PUSH2 0xE7 JUMPI DUP2 PUSH1 0x3 NOT CALLDATASIZE ADD SLT PUSH2 0xE7 JUMPI PUSH1 0x20 SWAP1 PUSH1 0x2 SLOAD SWAP1 MLOAD SWAP1 DUP2 MSTORE RETURN JUMPDEST POP POP CALLVALUE PUSH2 0xE7 JUMPI DUP2 PUSH1 0x3 NOT CALLDATASIZE ADD SLT PUSH2 0xE7 JUMPI PUSH1 0x20 SWAP1 PUSH1 0x3 SLOAD SWAP1 MLOAD SWAP1 DUP2 MSTORE RETURN JUMPDEST DUP3 DUP5 CALLVALUE PUSH2 0x363 JUMPI PUSH1 0x20 CALLDATASIZE PUSH1 0x3 NOT ADD SLT PUSH2 0x363 JUMPI DUP3 CALLDATALOAD SWAP1 PUSH8 0xFFFFFFFFFFFFFFFF DUP3 GT PUSH2 0x363 JUMPI POP PUSH2 0x34E PUSH1 0x20 PUSH2 0x33C DUP2 SWAP6 PUSH1 0xFF SWAP5 CALLDATASIZE SWAP2 ADD PUSH2 0x7EA JUMP JUMPDEST DUP2 DUP6 MLOAD SWAP4 DUP3 DUP6 DUP1 SWAP5 MLOAD SWAP4 DUP5 SWAP3 ADD PUSH2 0x868 JUMP JUMPDEST DUP2 ADD PUSH1 0x7 DUP2 MSTORE SUB ADD SWAP1 KECCAK256 SLOAD AND SWAP1 MLOAD SWAP1 ISZERO ISZERO DUP2 MSTORE RETURN JUMPDEST DUP1 REVERT JUMPDEST DUP4 DUP4 CALLVALUE PUSH2 0xE7 JUMPI PUSH1 0xC0 CALLDATASIZE PUSH1 0x3 NOT ADD SLT PUSH2 0xE7 JUMPI PUSH8 0xFFFFFFFFFFFFFFFF DUP4 CALLDATALOAD DUP2 DUP2 GT PUSH2 0x526 JUMPI PUSH2 0x398 SWAP1 CALLDATASIZE SWAP1 DUP7 ADD PUSH2 0x7EA JUMP JUMPDEST SWAP1 PUSH1 0x24 CALLDATALOAD SWAP1 DUP2 ISZERO ISZERO DUP1 SWAP3 SUB PUSH2 0x522 JUMPI PUSH1 0x44 CALLDATALOAD SWAP3 PUSH1 0xFF DUP5 AND DUP1 SWAP5 SUB PUSH2 0x51E JUMPI PUSH1 0x64 CALLDATALOAD SWAP1 PUSH1 0xFF DUP3 AND DUP1 SWAP3 SUB PUSH2 0x51A JUMPI PUSH1 0x84 CALLDATALOAD DUP4 DUP2 GT PUSH2 0x516 JUMPI PUSH2 0x3DC SWAP1 CALLDATASIZE SWAP1 DUP11 ADD PUSH2 0x7EA JUMP JUMPDEST SWAP3 PUSH1 0xA4 CALLDATALOAD SWAP1 DUP2 GT PUSH2 0x516 JUMPI PUSH2 0x3F4 SWAP1 CALLDATASIZE SWAP1 DUP11 ADD PUSH2 0x7EA JUMP JUMPDEST SWAP8 PUSH2 0x401 DUP3 MLOAD ISZERO ISZERO PUSH2 0x902 JUMP JUMPDEST PUSH1 0x64 DUP7 GT PUSH2 0x4D3 JUMPI PUSH1 0x64 DUP4 GT PUSH2 0x490 JUMPI POP PUSH2 0x484 SWAP3 PUSH32 0xC68605156CE499DC0976CE4A970166DC4A4C337138FE72026AFEB2A0ECE8AB84 SWAP7 SWAP8 SWAP9 SWAP3 PUSH2 0x455 PUSH2 0x476 SWAP4 PUSH2 0x44D PUSH1 0x2 SLOAD PUSH2 0x9A4 JUMP JUMPDEST PUSH1 0x2 SSTORE PUSH2 0x9C9 JUMP JUMPDEST SWAP9 DUP1 MLOAD SWAP8 DUP9 SWAP8 DUP9 MSTORE PUSH1 0x20 DUP9 ADD MSTORE DUP7 ADD MSTORE PUSH1 0xC0 PUSH1 0x60 DUP7 ADD MSTORE PUSH1 0xC0 DUP6 ADD SWAP1 PUSH2 0x9E9 JUMP JUMPDEST SWAP1 DUP4 DUP3 SUB PUSH1 0x80 DUP6 ADD MSTORE PUSH2 0x9E9 JUMP JUMPDEST TIMESTAMP PUSH1 0xA0 DUP4 ADD MSTORE SUB SWAP1 LOG2 DUP1 RETURN JUMPDEST PUSH1 0x64 SWAP1 PUSH1 0x20 DUP9 MLOAD SWAP2 PUSH3 0x461BCD PUSH1 0xE5 SHL DUP4 MSTORE DUP3 ADD MSTORE PUSH1 0x1C PUSH1 0x24 DUP3 ADD MSTORE PUSH32 0x4F5544207269736B2073636F7265206D75737420626520302D31303000000000 PUSH1 0x44 DUP3 ADD MSTORE REVERT JUMPDEST PUSH1 0x64 SWAP1 PUSH1 0x20 DUP9 MLOAD SWAP2 PUSH3 0x461BCD PUSH1 0xE5 SHL DUP4 MSTORE DUP3 ADD MSTORE PUSH1 0x1F PUSH1 0x24 DUP3 ADD MSTORE PUSH32 0x456C69676962696C6974792073636F7265206D75737420626520302D31303000 PUSH1 0x44 DUP3 ADD MSTORE REVERT JUMPDEST DUP8 DUP1 REVERT JUMPDEST DUP7 DUP1 REVERT JUMPDEST DUP6 DUP1 REVERT JUMPDEST DUP5 DUP1 REVERT JUMPDEST DUP4 DUP1 REVERT JUMPDEST SWAP1 POP CALLVALUE PUSH2 0x259 JUMPI DUP2 PUSH1 0x3 NOT CALLDATASIZE ADD SLT PUSH2 0x259 JUMPI PUSH8 0xFFFFFFFFFFFFFFFF DUP2 CALLDATALOAD DUP2 DUP2 GT PUSH2 0x522 JUMPI PUSH2 0x55B SWAP1 CALLDATASIZE SWAP1 DUP5 ADD PUSH2 0x7EA JUMP JUMPDEST SWAP1 PUSH1 0x24 CALLDATALOAD SWAP1 DUP2 GT PUSH2 0x522 JUMPI PUSH2 0x573 SWAP1 CALLDATASIZE SWAP1 DUP5 ADD PUSH2 0x7EA JUMP JUMPDEST SWAP2 PUSH2 0x580 DUP3 MLOAD ISZERO ISZERO PUSH2 0x902 JUMP JUMPDEST PUSH2 0x58C DUP4 MLOAD ISZERO ISZERO PUSH2 0x958 JUMP JUMPDEST DUP4 MLOAD SWAP1 PUSH1 0xFF DUP4 MLOAD SWAP3 PUSH1 0x20 DUP2 DUP2 DUP8 ADD SWAP6 PUSH2 0x5A6 DUP2 DUP4 DUP10 PUSH2 0x868 JUMP JUMPDEST DUP2 ADD PUSH1 0x7 DUP2 MSTORE SUB ADD SWAP1 KECCAK256 SLOAD AND PUSH2 0x63B JUMPI POP PUSH32 0x19BE9993A45ED7D41C517A6E45749B58D0FFE49472D0385064BCDCC2C5B29E17 SWAP3 SWAP2 PUSH2 0x5F3 PUSH1 0x20 PUSH2 0x61B SWAP4 DUP8 MLOAD DUP1 SWAP4 DUP2 SWAP3 DUP7 MLOAD SWAP3 DUP4 SWAP2 PUSH2 0x868 JUMP JUMPDEST DUP2 ADD PUSH1 0x7 DUP2 MSTORE SUB ADD SWAP1 KECCAK256 PUSH1 0x1 PUSH1 0xFF NOT DUP3 SLOAD AND OR SWAP1 SSTORE PUSH2 0x613 PUSH1 0x1 SLOAD PUSH2 0x9A4 JUMP JUMPDEST PUSH1 0x1 SSTORE PUSH2 0x9C9 JUMP JUMPDEST SWAP3 PUSH2 0x62F DUP2 MLOAD SWAP3 DUP3 DUP5 SWAP4 DUP5 MSTORE DUP4 ADD SWAP1 PUSH2 0x9E9 JUMP JUMPDEST TIMESTAMP PUSH1 0x20 DUP4 ADD MSTORE SUB SWAP1 LOG2 DUP1 RETURN JUMPDEST PUSH1 0x64 SWAP1 PUSH1 0x20 DUP7 MLOAD SWAP2 PUSH3 0x461BCD PUSH1 0xE5 SHL DUP4 MSTORE DUP3 ADD MSTORE PUSH1 0x1B PUSH1 0x24 DUP3 ADD MSTORE PUSH32 0x507265736372697074696F6E20616C7265616479206C6F676765640000000000 PUSH1 0x44 DUP3 ADD MSTORE REVERT JUMPDEST SWAP1 POP CALLVALUE PUSH2 0x259 JUMPI DUP3 PUSH1 0x3 NOT CALLDATASIZE ADD SLT PUSH2 0x259 JUMPI PUSH1 0xC0 SWAP3 POP PUSH1 0x1 SLOAD SWAP2 PUSH1 0x2 SLOAD SWAP2 PUSH1 0x3 SLOAD SWAP1 SLOAD SWAP1 PUSH1 0x5 SLOAD SWAP3 PUSH1 0x6 SLOAD SWAP5 DUP2 MLOAD SWAP7 DUP8 MSTORE PUSH1 0x20 DUP8 ADD MSTORE DUP6 ADD MSTORE PUSH1 0x60 DUP5 ADD MSTORE PUSH1 0x80 DUP4 ADD MSTORE PUSH1 0xA0 DUP3 ADD MSTORE RETURN JUMPDEST POP POP CALLVALUE PUSH2 0xE7 JUMPI DUP2 PUSH1 0x3 NOT CALLDATASIZE ADD SLT PUSH2 0xE7 JUMPI PUSH1 0x20 SWAP1 PUSH1 0x1 SLOAD SWAP1 MLOAD SWAP1 DUP2 MSTORE RETURN JUMPDEST SWAP1 POP CALLVALUE PUSH2 0x259 JUMPI PUSH1 0x60 CALLDATASIZE PUSH1 0x3 NOT ADD SLT PUSH2 0x259 JUMPI PUSH8 0xFFFFFFFFFFFFFFFF SWAP1 DUP1 CALLDATALOAD DUP3 DUP2 GT PUSH2 0x522 JUMPI PUSH2 0x71A SWAP1 CALLDATASIZE SWAP1 DUP4 ADD PUSH2 0x7EA JUMP JUMPDEST SWAP3 PUSH1 0x24 CALLDATALOAD DUP4 DUP2 GT PUSH2 0x51E JUMPI PUSH2 0x732 SWAP1 CALLDATASIZE SWAP1 DUP5 ADD PUSH2 0x7EA JUMP JUMPDEST SWAP1 PUSH1 0x44 CALLDATALOAD SWAP4 DUP5 GT PUSH2 0x51E JUMPI PUSH2 0x7C2 PUSH2 0x7A0 PUSH2 0x774 PUSH2 0x7B4 SWAP6 PUSH32 0xECAE5290F872DA7E2F2A9D95AB0DB3130BBFB94B59E8F70600148D17BF1F2541 SWAP8 CALLDATASIZE SWAP2 ADD PUSH2 0x7EA JUMP JUMPDEST SWAP7 PUSH2 0x781 DUP2 MLOAD ISZERO ISZERO PUSH2 0x902 JUMP JUMPDEST PUSH2 0x78D DUP6 MLOAD ISZERO ISZERO PUSH2 0x958 JUMP JUMPDEST PUSH2 0x798 PUSH1 0x6 SLOAD PUSH2 0x9A4 JUMP JUMPDEST PUSH1 0x6 SSTORE PUSH2 0x9C9 JUMP JUMPDEST SWAP6 DUP3 MLOAD SWAP5 DUP6 SWAP5 PUSH1 0x60 DUP7 MSTORE PUSH1 0x60 DUP7 ADD SWAP1 PUSH2 0x9E9 JUMP JUMPDEST SWAP1 DUP5 DUP3 SUB PUSH1 0x20 DUP7 ADD MSTORE PUSH2 0x9E9 JUMP JUMPDEST SWAP1 TIMESTAMP SWAP1 DUP4 ADD MSTORE SUB SWAP1 LOG2 DUP1 RETURN JUMPDEST DUP5 SWAP1 CALLVALUE PUSH2 0xE7 JUMPI DUP2 PUSH1 0x3 NOT CALLDATASIZE ADD SLT PUSH2 0xE7 JUMPI PUSH1 0x20 SWAP1 PUSH1 0x6 SLOAD DUP2 MSTORE RETURN JUMPDEST DUP2 PUSH1 0x1F DUP3 ADD SLT ISZERO PUSH2 0x84D JUMPI DUP1 CALLDATALOAD SWAP1 PUSH8 0xFFFFFFFFFFFFFFFF SWAP3 DUP4 DUP4 GT PUSH2 0x852 JUMPI PUSH1 0x40 MLOAD SWAP4 PUSH1 0x1F DUP5 ADD PUSH1 0x1F NOT SWAP1 DUP2 AND PUSH1 0x3F ADD AND DUP6 ADD SWAP1 DUP2 GT DUP6 DUP3 LT OR PUSH2 0x852 JUMPI PUSH1 0x40 MSTORE DUP3 DUP5 MSTORE PUSH1 0x20 DUP4 DUP4 ADD ADD GT PUSH2 0x84D JUMPI DUP2 PUSH1 0x0 SWAP3 PUSH1 0x20 DUP1 SWAP4 ADD DUP4 DUP7 ADD CALLDATACOPY DUP4 ADD ADD MSTORE SWAP1 JUMP JUMPDEST PUSH1 0x0 DUP1 REVERT JUMPDEST PUSH4 0x4E487B71 PUSH1 0xE0 SHL PUSH1 0x0 MSTORE PUSH1 0x41 PUSH1 0x4 MSTORE PUSH1 0x24 PUSH1 0x0 REVERT JUMPDEST PUSH1 0x0 JUMPDEST DUP4 DUP2 LT PUSH2 0x87B JUMPI POP POP PUSH1 0x0 SWAP2 ADD MSTORE JUMP JUMPDEST DUP2 DUP2 ADD MLOAD DUP4 DUP3 ADD MSTORE PUSH1 0x20 ADD PUSH2 0x86B JUMP JUMPDEST PUSH1 0x80 PUSH1 0x3 NOT DUP3 ADD SLT PUSH2 0x84D JUMPI PUSH8 0xFFFFFFFFFFFFFFFF SWAP1 PUSH1 0x4 CALLDATALOAD DUP3 DUP2 GT PUSH2 0x84D JUMPI DUP2 PUSH2 0x8B8 SWAP2 PUSH1 0x4 ADD PUSH2 0x7EA JUMP JUMPDEST SWAP3 PUSH1 0x24 CALLDATALOAD DUP4 DUP2 GT PUSH2 0x84D JUMPI DUP3 PUSH2 0x8D0 SWAP2 PUSH1 0x4 ADD PUSH2 0x7EA JUMP JUMPDEST SWAP3 PUSH1 0x44 CALLDATALOAD DUP2 DUP2 GT PUSH2 0x84D JUMPI DUP4 PUSH2 0x8E8 SWAP2 PUSH1 0x4 ADD PUSH2 0x7EA JUMP JUMPDEST SWAP3 PUSH1 0x64 CALLDATALOAD SWAP2 DUP3 GT PUSH2 0x84D JUMPI PUSH2 0x8FF SWAP2 PUSH1 0x4 ADD PUSH2 0x7EA JUMP JUMPDEST SWAP1 JUMP JUMPDEST ISZERO PUSH2 0x909 JUMPI JUMP JUMPDEST PUSH1 0x40 MLOAD PUSH3 0x461BCD PUSH1 0xE5 SHL DUP2 MSTORE PUSH1 0x20 PUSH1 0x4 DUP3 ADD MSTORE PUSH1 0x21 PUSH1 0x24 DUP3 ADD MSTORE PUSH32 0x507265736372697074696F6E20555549442063616E6E6F7420626520656D7074 PUSH1 0x44 DUP3 ADD MSTORE PUSH1 0x79 PUSH1 0xF8 SHL PUSH1 0x64 DUP3 ADD MSTORE PUSH1 0x84 SWAP1 REVERT JUMPDEST ISZERO PUSH2 0x95F JUMPI JUMP JUMPDEST PUSH1 0x40 MLOAD PUSH3 0x461BCD PUSH1 0xE5 SHL DUP2 MSTORE PUSH1 0x20 PUSH1 0x4 DUP3 ADD MSTORE PUSH1 0x19 PUSH1 0x24 DUP3 ADD MSTORE PUSH32 0x446F63746F722049442063616E6E6F7420626520656D70747900000000000000 PUSH1 0x44 DUP3 ADD MSTORE PUSH1 0x64 SWAP1 REVERT JUMPDEST PUSH1 0x0 NOT DUP2 EQ PUSH2 0x9B3 JUMPI PUSH1 0x1 ADD SWAP1 JUMP JUMPDEST PUSH4 0x4E487B71 PUSH1 0xE0 SHL PUSH1 0x0 MSTORE PUSH1 0x11 PUSH1 0x4 MSTORE PUSH1 0x24 PUSH1 0x0 REVERT JUMPDEST PUSH2 0x9E1 SWAP1 PUSH1 0x20 PUSH1 0x40 MLOAD SWAP3 DUP3 DUP5 DUP1 SWAP5 MLOAD SWAP4 DUP5 SWAP3 ADD PUSH2 0x868 JUMP JUMPDEST DUP2 ADD SUB SWAP1 KECCAK256 SWAP1 JUMP JUMPDEST SWAP1 PUSH1 0x20 SWAP2 PUSH2 0xA02 DUP2 MLOAD DUP1 SWAP3 DUP2 DUP6 MSTORE DUP6 DUP1 DUP7 ADD SWAP2 ADD PUSH2 0x868 JUMP JUMPDEST PUSH1 0x1F ADD PUSH1 0x1F NOT AND ADD ADD SWAP1 JUMP JUMPDEST ISZERO PUSH2 0xA15 JUMPI JUMP JUMPDEST PUSH1 0x40 MLOAD PUSH3 0x461BCD PUSH1 0xE5 SHL DUP2 MSTORE PUSH1 0x20 PUSH1 0x4 DUP3 ADD MSTORE PUSH1 0x1D PUSH1 0x24 DUP3 ADD MSTORE PUSH32 0x506861726D61636973742049442063616E6E6F7420626520656D707479000000 PUSH1 0x44 DUP3 ADD MSTORE PUSH1 0x64 SWAP1 REVERT JUMPDEST SWAP5 SWAP4 SWAP3 PUSH2 0xA86 PUSH1 0x60 SWAP4 PUSH2 0xA78 PUSH2 0xA94 SWAP5 PUSH1 0x80 DUP11 MSTORE PUSH1 0x80 DUP11 ADD SWAP1 PUSH2 0x9E9 JUMP JUMPDEST SWAP1 DUP9 DUP3 SUB PUSH1 0x20 DUP11 ADD MSTORE PUSH2 0x9E9 JUMP JUMPDEST SWAP1 DUP7 DUP3 SUB PUSH1 0x40 DUP9 ADD MSTORE PUSH2 0x9E9 JUMP JUMPDEST SWAP4 ADD MSTORE JUMP INVALID LOG2 PUSH5 0x6970667358 0x22 SLT KECCAK256 0xCA 0xDD 0x5E GAS PUSH17 0xA7964CD23F287CE22D85C769626991DA95 0x23 0x5D 0xD MSTORE8 PUSH3 0x10747A JUMPDEST 0xEF PUSH5 0x736F6C6343 STOP ADDMOD SGT STOP CALLER "},"methodIdentifiers":{"getStatistics()":"372d6b27","logAIReview(string,bool,uint8,uint8,string,string)":"42df98bb","logDoctorCancelsPrescription(string,string,string)":"31a93d63","logDoctorRespondsToReview(string,string,string,string)":"8cfe87b7","logPharmacistDecision(string,string,string,string)":"d4c53184","logPharmacistRequestsReview(string,string,string,string)":"7a97de12","logPrescriptionCreated(string,string)":"3aa240cb","owner()":"8da5cb5b","prescriptionExists(string)":"65e63555","totalAIReviews()":"6edb019f","totalCancellations()":"2c4e9b04","totalDoctorResponses()":"e14b4311","totalPharmacistDecisions()":"6b919b42","totalPrescriptions()":"362a2e6c","totalReviewRequests()":"7d83fc6f"}}}}}