{
  "_format": "hh-sol-artifact-1",
  "contractName": "PharmacyWorkflowAudit",
  "sourceName": "contracts/PharmacyWorkflowAudit.sol",
  "abi": [
    {
      "inputs": [],
      "stateMutability": "nonpayable",
      "type": "constructor"
    },
    {
      "anonymous": false,
      "inputs": [
        {
          "indexed": true,
          "internalType": "string",
          "name": "prescriptionUuid",
          "type": "string"
        },
        {
          "indexed": false,
          "internalType": "bool",
          "name": "flagged",
          "type": "bool"
        },
        {
          "indexed": false,
          "internalType": "uint8",
          "name": "eligibilityScore",
          "type": "uint8"
        },
        {
          "indexed": false,
          "internalType": "uint8",
          "name": "oudRiskScore",
          "type": "uint8"
        },
        {
          "indexed": false,
          "internalType": "string",
          "name": "flagReason",
          "type": "string"
        },
        {
          "indexed": false,
          "internalType": "string",
          "name": "recommendation",
          "type": "string"
        },
        {
          "indexed": false,
          "internalType": "uint256",
          "name": "timestamp",
          "type": "uint256"
        }
      ],
      "name": "AIReviewCompleted",
      "type": "event"
    },
    {
      "anonymous": false,
      "inputs": [
        {
          "indexed": true,
          "internalType": "string",
          "name": "prescriptionUuid",
          "type": "string"
        },
        {
          "indexed": false,
          "internalType": "string",
          "name": "pharmacistId",
          "type": "string"
        },
        {
          "indexed": false,
          "internalType": "string",
          "name": "action",
          "type": "string"
        },
        {
          "indexed": false,
          "internalType": "string",
          "name": "actionReason",
          "type": "string"
        },
        {
          "indexed": false,
          "internalType": "uint256",
          "name": "timestamp",
          "type": "uint256"
        }
      ],
      "name": "PharmacistDecision",
      "type": "event"
    },
    {
      "anonymous": false,
      "inputs": [
        {
          "indexed": true,
          "internalType": "string",
          "name": "prescriptionUuid",
          "type": "string"
        },
        {
          "indexed": false,
          "internalType": "string",
          "name": "doctorId",
          "type": "string"
        },
        {
          "indexed": false,
          "internalType": "uint256",
          "name": "timestamp",
          "type": "uint256"
        }
      ],
      "name": "PrescriptionCreated",
      "type": "event"
    },
    {
      "inputs": [],
      "name": "getStatistics",
      "outputs": [
        {
          "internalType": "uint256",
          "name": "prescriptions",
          "type": "uint256"
        },
        {
          "internalType": "uint256",
          "name": "aiReviews",
          "type": "uint256"
        },
        {
          "internalType": "uint256",
          "name": "pharmacistDecisions",
          "type": "uint256"
        }
      ],
      "stateMutability": "view",
      "type": "function"
    },
    {
      "inputs": [
        {
          "internalType": "string",
          "name": "prescriptionUuid",
          "type": "string"
        },
        {
          "internalType": "bool",
          "name": "flagged",
          "type": "bool"
        },
        {
          "internalType": "uint8",
          "name": "eligibilityScore",
          "type": "uint8"
        },
        {
          "internalType": "uint8",
          "name": "oudRiskScore",
          "type": "uint8"
        },
        {
          "internalType": "string",
          "name": "flagReason",
          "type": "string"
        },
        {
          "internalType": "string",
          "name": "recommendation",
          "type": "string"
        }
      ],
      "name": "logAIReview",
      "outputs": [],
      "stateMutability": "nonpayable",
      "type": "function"
    },
    {
      "inputs": [
        {
          "internalType": "string",
          "name": "prescriptionUuid",
          "type": "string"
        },
        {
          "internalType": "string",
          "name": "pharmacistId",
          "type": "string"
        },
        {
          "internalType": "string",
          "name": "action",
          "type": "string"
        },
        {
          "internalType": "string",
          "name": "actionReason",
          "type": "string"
        }
      ],
      "name": "logPharmacistDecision",
      "outputs": [],
      "stateMutability": "nonpayable",
      "type": "function"
    },
    {
      "inputs": [
        {
          "internalType": "string",
          "name": "prescriptionUuid",
          "type": "string"
        },
        {
          "internalType": "string",
          "name": "doctorId",
          "type": "string"
        }
      ],
      "name": "logPrescriptionCreated",
      "outputs": [],
      "stateMutability": "nonpayable",
      "type": "function"
    },
    {
      "inputs": [],
      "name": "owner",
      "outputs": [
        {
          "internalType": "address",
          "name": "",
          "type": "address"
        }
      ],
      "stateMutability": "view",
      "type": "function"
    },
    {
      "inputs": [
        {
          "internalType": "string",
          "name": "",
          "type": "string"
        }
      ],
      "name": "prescriptionExists",
      "outputs": [
        {
          "internalType": "bool",
          "name": "",
          "type": "bool"
        }
      ],
      "stateMutability": "view",
      "type": "function"
    },
    {
      "inputs": [],
      "name": "totalAIReviews",
      "outputs": [
        {
          "internalType": "uint256",
          "name": "",
          "type": "uint256"
        }
      ],
      "stateMutability": "view",
      "type": "function"
    },
    {
      "inputs": [],
      "name": "totalPharmacistDecisions",
      "outputs": [
        {
          "internalType": "uint256",
          "name": "",
          "type": "uint256"
        }
      ],
      "stateMutability": "view",
      "type": "function"
    },
    {
      "inputs": [],
      "name": "totalPrescriptions",
      "outputs": [
        {
          "internalType": "uint256",
          "name": "",
          "type": "uint256"
        }
      ],
      "stateMutability": "view",
      "type": "function"
    }
  ],
  "bytecode": "0x6080806040523461003557600080546001600160a01b0319163317815560018190556002819055600355610824908161003b8239f35b600080fdfe6080604081815260048036101561001557600080fd5b600092833560e01c908163362a2e6c1461067157508063372d6b27146106415780633aa240cb146104b257806342df98bb146102f957806365e63555146102935780636b919b42146102745780636edb019f146102555780638da5cb5b146102295763d4c531841461008657600080fd5b346102255760803660031901126102255767ffffffffffffffff918135838111610221576100b7903690840161068d565b9160243584811161021d576100cf903690830161068d565b92604435858111610219576100e7903690840161068d565b94606435908111610219576100ff903690840161068d565b9161010c8251151561072e565b8451156101d65785511561019a5750610173927f0f296ecc44158aa6b5262a01732c4243145a4588797f9c4de1e44c71ab99b6be949261018161015f61018e94610157600354610784565b6003556107a9565b9783519687966080885260808801906107c9565b9086820360208801526107c9565b91848303908501526107c9565b4260608301520390a280f35b606490602085519162461bcd60e51b83528201526016602482015275416374696f6e2063616e6e6f7420626520656d70747960501b6044820152fd5b606490602085519162461bcd60e51b8352820152601d60248201527f506861726d61636973742049442063616e6e6f7420626520656d7074790000006044820152fd5b8680fd5b8580fd5b8480fd5b8280fd5b505034610251578160031936011261025157905490516001600160a01b039091168152602090f35b5080fd5b5050346102515781600319360112610251576020906002549051908152f35b5050346102515781600319360112610251576020906003549051908152f35b5091346102f65760203660031901126102f65782359067ffffffffffffffff82116102f657506102e2602080946102cf60ff943690830161068d565b908286519483868095519384920161070b565b820190815203019020541690519015158152f35b80fd5b509190346102515760c03660031901126102515767ffffffffffffffff83358181116104ae5761032c903690860161068d565b9060243590811515809203610221576044359260ff841680940361021d576064359060ff8216809203610219576084358381116104aa576103709036908a0161068d565b9260a4359081116104aa576103889036908a0161068d565b976103958251151561072e565b6064861161046757606483116104245750610418927fc68605156ce499dc0976ce4a970166dc4a4c337138fe72026afeb2a0ece8ab84969798926103e961040a936103e1600254610784565b6002556107a9565b9880519788978852602088015286015260c0606086015260c08501906107c9565b9083820360808501526107c9565b4260a08301520390a280f35b606490602088519162461bcd60e51b8352820152601c60248201527f4f5544207269736b2073636f7265206d75737420626520302d313030000000006044820152fd5b606490602088519162461bcd60e51b8352820152601f60248201527f456c69676962696c6974792073636f7265206d75737420626520302d313030006044820152fd5b8780fd5b8380fd5b503461022557816003193601126102255767ffffffffffffffff8135818111610221576104e2903690840161068d565b90602435908111610221576104fa903690840161068d565b916105078251151561072e565b8251156105fe5783519060ff8351926020818187019561052881838961070b565b81018581520301902054166105bb5791610574602061059b937f19be9993a45ed7d41c517a6e45749b58d0ffe49472d0385064bcdcc2c5b29e179695885180948193875192839161070b565b820190815203019020600160ff19825416179055610593600154610784565b6001556107a9565b926105af81519282849384528301906107c9565b4260208301520390a280f35b606490602086519162461bcd60e51b8352820152601b60248201527f507265736372697074696f6e20616c7265616479206c6f6767656400000000006044820152fd5b606490602085519162461bcd60e51b8352820152601960248201527f446f63746f722049442063616e6e6f7420626520656d707479000000000000006044820152fd5b50503461025157816003193601126102515760609060015490600254906003549181519384526020840152820152f35b8490346102515781600319360112610251576020906001548152f35b81601f820112156106f05780359067ffffffffffffffff928383116106f55760405193601f8401601f19908116603f01168501908111858210176106f557604052828452602083830101116106f057816000926020809301838601378301015290565b600080fd5b634e487b7160e01b600052604160045260246000fd5b60005b83811061071e5750506000910152565b818101518382015260200161070e565b1561073557565b60405162461bcd60e51b815260206004820152602160248201527f507265736372697074696f6e20555549442063616e6e6f7420626520656d70746044820152607960f81b6064820152608490fd5b60001981146107935760010190565b634e487b7160e01b600052601160045260246000fd5b6107c19060206040519282848094519384920161070b565b810103902090565b906020916107e28151809281855285808601910161070b565b601f01601f191601019056fea264697066735822122096748beefdb3a1c1e1dd9245ee8f0a914adcc4328bdd9e3f32816766bdf92c4f64736f6c63430008130033",
  "linkReferences": {},
  "deployedLinkReferences": {}
}