{
  "_format": "hh-sol-artifact-1",
  "contractName": "PharmacyWorkflowAudit",
  "sourceName": "contracts/PharmacyWorkflowAudit.sol",
  "abi": [
    {
      "inputs": [],
      "stateMutability": "nonpayable",
      "type": "constructor"
    },
    {
      "anonymous": false,
      "inputs": [
        {
          "indexed": true,
          "internalType": "string",
          "name": "prescriptionUuid",
          "type": "string"
        },
        {
          "indexed": false,
          "internalType": "bool",
          "name": "flagged",
          "type": "bool"
        },
        {
          "indexed": false,
          "internalType": "uint8",
          "name": "eligibilityScore",
          "type": "uint8"
        },
        {
          "indexed": false,
          "internalType": "uint8",
          "name": "oudRiskScore",
          "type": "uint8"
        },
        {
          "indexed": false,
          "internalType": "string",
          "name": "flagReason",
          "type": "string"
        },
        {
          "indexed": false,
          "internalType": "string",
          "name": "recommendation",
          "type": "string"
        },
        {
          "indexed": false,
          "internalType": "uint256",
          "name": "timestamp",
          "type": "uint256"
        }
      ],
      "name": "AIReviewCompleted",
      "type": "event"
    },
    {
      "anonymous": false,
      "inputs": [
        {
          "indexed": true,
          "internalType": "string",
          "name": "prescriptionUuid",
          "type": "string"
        },
        {
          "indexed": false,
          "internalType": "string",
          "name": "doctorId",
          "type": "string"
        },
        {
          "indexed": false,
          "internalType": "string",
          "name": "cancellationReason",
          "type": "string"
        },
        {
          "indexed": false,
          "internalType": "uint256",
          "name": "timestamp",
          "type": "uint256"
        }
      ],
      "name": "DoctorCancelsPrescription",
      "type": "event"
    },
    {
      "anonymous": false,
      "inputs": [
        {
          "indexed": true,
          "internalType": "string",
          "name": "prescriptionUuid",
          "type": "string"
        },
        {
          "indexed": false,
          "internalType": "string",
          "name": "doctorId",
          "type": "string"
        },
        {
          "indexed": false,
          "internalType": "string",
          "name": "doctorName",
          "type": "string"
        },
        {
          "indexed": false,
          "internalType": "string",
          "name": "responseComments",
          "type": "string"
        },
        {
          "indexed": false,
          "internalType": "uint256",
          "name": "timestamp",
          "type": "uint256"
        }
      ],
      "name": "DoctorRespondsToReview",
      "type": "event"
    },
    {
      "anonymous": false,
      "inputs": [
        {
          "indexed": true,
          "internalType": "string",
          "name": "prescriptionUuid",
          "type": "string"
        },
        {
          "indexed": false,
          "internalType": "string",
          "name": "pharmacistId",
          "type": "string"
        },
        {
          "indexed": false,
          "internalType": "string",
          "name": "action",
          "type": "string"
        },
        {
          "indexed": false,
          "internalType": "string",
          "name": "actionReason",
          "type": "string"
        },
        {
          "indexed": false,
          "internalType": "uint256",
          "name": "timestamp",
          "type": "uint256"
        }
      ],
      "name": "PharmacistDecision",
      "type": "event"
    },
    {
      "anonymous": false,
      "inputs": [
        {
          "indexed": true,
          "internalType": "string",
          "name": "prescriptionUuid",
          "type": "string"
        },
        {
          "indexed": false,
          "internalType": "string",
          "name": "pharmacistId",
          "type": "string"
        },
        {
          "indexed": false,
          "internalType": "string",
          "name": "pharmacistName",
          "type": "string"
        },
        {
          "indexed": false,
          "internalType": "string",
          "name": "reviewComments",
          "type": "string"
        },
        {
          "indexed": false,
          "internalType": "uint256",
          "name": "timestamp",
          "type": "uint256"
        }
      ],
      "name": "PharmacistRequestsReview",
      "type": "event"
    },
    {
      "anonymous": false,
      "inputs": [
        {
          "indexed": true,
          "internalType": "string",
          "name": "prescriptionUuid",
          "type": "string"
        },
        {
          "indexed": false,
          "internalType": "string",
          "name": "doctorId",
          "type": "string"
        },
        {
          "indexed": false,
          "internalType": "uint256",
          "name": "timestamp",
          "type": "uint256"
        }
      ],
      "name": "PrescriptionCreated",
      "type": "event"
    },
    {
      "inputs": [],
      "name": "getStatistics",
      "outputs": [
        {
          "internalType": "uint256",
          "name": "prescriptions",
          "type": "uint256"
        },
        {
          "internalType": "uint256",
          "name": "aiReviews",
          "type": "uint256"
        },
        {
          "internalType": "uint256",
          "name": "pharmacistDecisions",
          "type": "uint256"
        },
        {
          "internalType": "uint256",
          "name": "reviewRequests",
          "type": "uint256"
        },
        {
          "internalType": "uint256",
          "name": "doctorResponses",
          "type": "uint256"
        },
        {
          "internalType": "uint256",
          "name": "cancellations",
          "type": "uint256"
        }
      ],
      "stateMutability": "view",
      "type": "function"
    },
    {
      "inputs": [
        {
          "internalType": "string",
          "name": "prescriptionUuid",
          "type": "string"
        },
        {
          "internalType": "bool",
          "name": "flagged",
          "type": "bool"
        },
        {
          "internalType": "uint8",
          "name": "eligibilityScore",
          "type": "uint8"
        },
        {
          "internalType": "uint8",
          "name": "oudRiskScore",
          "type": "uint8"
        },
        {
          "internalType": "string",
          "name": "flagReason",
          "type": "string"
        },
        {
          "internalType": "string",
          "name": "recommendation",
          "type": "string"
        }
      ],
      "name": "logAIReview",
      "outputs": [],
      "stateMutability": "nonpayable",
      "type": "function"
    },
    {
      "inputs": [
        {
          "internalType": "string",
          "name": "prescriptionUuid",
          "type": "string"
        },
        {
          "internalType": "string",
          "name": "doctorId",
          "type": "string"
        },
        {
          "internalType": "string",
          "name": "cancellationReason",
          "type": "string"
        }
      ],
      "name": "logDoctorCancelsPrescription",
      "outputs": [],
      "stateMutability": "nonpayable",
      "type": "function"
    },
    {
      "inputs": [
        {
          "internalType": "string",
          "name": "prescriptionUuid",
          "type": "string"
        },
        {
          "internalType": "string",
          "name": "doctorId",
          "type": "string"
        },
        {
          "internalType": "string",
          "name": "doctorName",
          "type": "string"
        },
        {
          "internalType": "string",
          "name": "responseComments",
          "type": "string"
        }
      ],
      "name": "logDoctorRespondsToReview",
      "outputs": [],
      "stateMutability": "nonpayable",
      "type": "function"
    },
    {
      "inputs": [
        {
          "internalType": "string",
          "name": "prescriptionUuid",
          "type": "string"
        },
        {
          "internalType": "string",
          "name": "pharmacistId",
          "type": "string"
        },
        {
          "internalType": "string",
          "name": "action",
          "type": "string"
        },
        {
          "internalType": "string",
          "name": "actionReason",
          "type": "string"
        }
      ],
      "name": "logPharmacistDecision",
      "outputs": [],
      "stateMutability": "nonpayable",
      "type": "function"
    },
    {
      "inputs": [
        {
          "internalType": "string",
          "name": "prescriptionUuid",
          "type": "string"
        },
        {
          "internalType": "string",
          "name": "pharmacistId",
          "type": "string"
        },
        {
          "internalType": "string",
          "name": "pharmacistName",
          "type": "string"
        },
        {
          "internalType": "string",
          "name": "reviewComments",
          "type": "string"
        }
      ],
      "name": "logPharmacistRequestsReview",
      "outputs": [],
      "stateMutability": "nonpayable",
      "type": "function"
    },
    {
      "inputs": [
        {
          "internalType": "string",
          "name": "prescriptionUuid",
          "type": "string"
        },
        {
          "internalType": "string",
          "name": "doctorId",
          "type": "string"
        }
      ],
      "name": "logPrescriptionCreated",
      "outputs": [],
      "stateMutability": "nonpayable",
      "type": "function"
    },
    {
      "inputs": [],
      "name": "owner",
      "outputs": [
        {
          "internalType": "address",
          "name": "",
          "type": "address"
        }
      ],
      "stateMutability": "view",
      "type": "function"
    },
    {
      "inputs": [
        {
          "internalType": "string",
          "name": "",
          "type": "string"
        }
      ],
      "name": "prescriptionExists",
      "outputs": [
        {
          "internalType": "bool",
          "name": "",
          "type": "bool"
        }
      ],
      "stateMutability": "view",
      "type": "function"
    },
    {
      "inputs": [],
      "name": "totalAIReviews",
      "outputs": [
        {
          "internalType": "uint256",
          "name": "",
          "type": "uint256"
        }
      ],
      "stateMutability": "view",
      "type": "function"
    },
    {
      "inputs": [],
      "name": "totalCancellations",
      "outputs": [
        {
          "internalType": "uint256",
          "name": "",
          "type": "uint256"
        }
      ],
      "stateMutability": "view",
      "type": "function"
    },
    {
      "inputs": [],
      "name": "totalDoctorResponses",
      "outputs": [
        {
          "internalType": "uint256",
          "name": "",
          "type": "uint256"
        }
      ],
      "stateMutability": "view",
      "type": "function"
    },
    {
      "inputs": [],
      "name": "totalPharmacistDecisions",
      "outputs": [
        {
          "internalType": "uint256",
          "name": "",
          "type": "uint256"
        }
      ],
      "stateMutability": "view",
      "type": "function"
    },
    {
      "inputs": [],
      "name": "totalPrescriptions",
      "outputs": [
        {
          "internalType": "uint256",
          "name": "",
          "type": "uint256"
        }
      ],
      "stateMutability": "view",
      "type": "function"
    },
    {
      "inputs": [],
      "name": "totalReviewRequests",
      "outputs": [
        {
          "internalType": "uint256",
          "name": "",
          "type": "uint256"
        }
      ],
      "stateMutability": "view",
      "type": "function"
    }
  ],
  "bytecode": "0x6080806040523461003e5760003360018060a01b03198254161781558060015580600255806003558060045580600555600655610acf90816100448239f35b600080fdfe608060408181526004918236101561001657600080fd5b600092833560e01c9182632c4e9b04146107ce5750816331a93d63146106e7578163362a2e6c146106c8578163372d6b271461067e5781633aa240cb1461052a57816342df98bb1461036657816365e63555146103015781636b919b42146102e25781636edb019f146102c35781637a97de121461025d5781637d83fc6f1461023b5781638cfe87b7146101d45781638da5cb5b146101ac578163d4c53184146100eb575063e14b4311146100ca57600080fd5b346100e757816003193601126100e7576020906005549051908152f35b5080fd5b8383346100e7576100fb3661088b565b9290919561010b82511515610902565b61011787511515610a0e565b82511561017057507f0f296ecc44158aa6b5262a01732c4243145a4588797f9c4de1e44c71ab99b6be93949561015d61016a926101556003546109a4565b6003556109c9565b9551938493429285610a5a565b0390a280f35b606490602086519162461bcd60e51b83528201526016602482015275416374696f6e2063616e6e6f7420626520656d70747960501b6044820152fd5b5050346100e757816003193601126100e757905490516001600160a01b039091168152602090f35b5050346100e7577fbd93a39e8a6c8a3e698a01bf31bf027282e43f3b098638cad485fccfe026f8a561016a61015d61020b3661088b565b949261021c81959295511515610902565b61022883511515610958565b6102336005546109a4565b6005556109c9565b90503461025957826003193601126102595760209250549051908152f35b8280fd5b9050346102595761015d7fc5c3b5b26d0b5ff61a441baa7a2dfd831502cb38feef821cbdfb98451e806a769161016a6102953661088b565b95919290946102a682511515610902565b6102b284511515610a0e565b6102bc81546109a4565b90556109c9565b5050346100e757816003193601126100e7576020906002549051908152f35b5050346100e757816003193601126100e7576020906003549051908152f35b8284346103635760203660031901126103635782359067ffffffffffffffff8211610363575061034e602061033c819560ff943691016107ea565b81855193828580945193849201610868565b81016007815203019020541690519015158152f35b80fd5b8383346100e75760c03660031901126100e75767ffffffffffffffff83358181116105265761039890369086016107ea565b9060243590811515809203610522576044359260ff841680940361051e576064359060ff821680920361051a57608435838111610516576103dc9036908a016107ea565b9260a435908111610516576103f49036908a016107ea565b9761040182511515610902565b606486116104d357606483116104905750610484927fc68605156ce499dc0976ce4a970166dc4a4c337138fe72026afeb2a0ece8ab84969798926104556104769361044d6002546109a4565b6002556109c9565b9880519788978852602088015286015260c0606086015260c08501906109e9565b9083820360808501526109e9565b4260a08301520390a280f35b606490602088519162461bcd60e51b8352820152601c60248201527f4f5544207269736b2073636f7265206d75737420626520302d313030000000006044820152fd5b606490602088519162461bcd60e51b8352820152601f60248201527f456c69676962696c6974792073636f7265206d75737420626520302d313030006044820152fd5b8780fd5b8680fd5b8580fd5b8480fd5b8380fd5b90503461025957816003193601126102595767ffffffffffffffff81358181116105225761055b90369084016107ea565b906024359081116105225761057390369084016107ea565b9161058082511515610902565b61058c83511515610958565b83519060ff835192602081818701956105a6818389610868565b81016007815203019020541661063b57507f19be9993a45ed7d41c517a6e45749b58d0ffe49472d0385064bcdcc2c5b29e1792916105f3602061061b938751809381928651928391610868565b81016007815203019020600160ff198254161790556106136001546109a4565b6001556109c9565b9261062f81519282849384528301906109e9565b4260208301520390a280f35b606490602086519162461bcd60e51b8352820152601b60248201527f507265736372697074696f6e20616c7265616479206c6f6767656400000000006044820152fd5b90503461025957826003193601126102595760c0925060015491600254916003549054906005549260065494815196875260208701528501526060840152608083015260a0820152f35b5050346100e757816003193601126100e7576020906001549051908152f35b9050346102595760603660031901126102595767ffffffffffffffff9080358281116105225761071a90369083016107ea565b9260243583811161051e5761073290369084016107ea565b9060443593841161051e576107c26107a06107746107b4957fecae5290f872da7e2f2a9d95ab0db3130bbfb94b59e8f70600148d17bf1f2541973691016107ea565b9661078181511515610902565b61078d85511515610958565b6107986006546109a4565b6006556109c9565b9582519485946060865260608601906109e9565b9084820360208601526109e9565b9042908301520390a280f35b8490346100e757816003193601126100e7576020906006548152f35b81601f8201121561084d5780359067ffffffffffffffff928383116108525760405193601f8401601f19908116603f0116850190811185821017610852576040528284526020838301011161084d57816000926020809301838601378301015290565b600080fd5b634e487b7160e01b600052604160045260246000fd5b60005b83811061087b5750506000910152565b818101518382015260200161086b565b608060031982011261084d5767ffffffffffffffff9060043582811161084d57816108b8916004016107ea565b9260243583811161084d57826108d0916004016107ea565b9260443581811161084d57836108e8916004016107ea565b9260643591821161084d576108ff916004016107ea565b90565b1561090957565b60405162461bcd60e51b815260206004820152602160248201527f507265736372697074696f6e20555549442063616e6e6f7420626520656d70746044820152607960f81b6064820152608490fd5b1561095f57565b60405162461bcd60e51b815260206004820152601960248201527f446f63746f722049442063616e6e6f7420626520656d707479000000000000006044820152606490fd5b60001981146109b35760010190565b634e487b7160e01b600052601160045260246000fd5b6109e190602060405192828480945193849201610868565b810103902090565b90602091610a0281518092818552858086019101610868565b601f01601f1916010190565b15610a1557565b60405162461bcd60e51b815260206004820152601d60248201527f506861726d61636973742049442063616e6e6f7420626520656d7074790000006044820152606490fd5b949392610a86606093610a78610a949460808a5260808a01906109e9565b9088820360208a01526109e9565b9086820360408801526109e9565b93015256fea2646970667358221220cadd5e5a70a7964cd23f287ce22d85c769626991da95235d0d536210747a5bef64736f6c63430008130033",
  "linkReferences": {},
  "deployedLinkReferences": {}
}